
LabWork1.elf:     file format elf32-littlearm

Sections:
Idx Name          Size      VMA       LMA       File off  Algn
  0 .isr_vector   00000188  08000000  08000000  00010000  2**0
                  CONTENTS, ALLOC, LOAD, READONLY, DATA
  1 .text         00001c3c  08000188  08000188  00010188  2**2
                  CONTENTS, ALLOC, LOAD, READONLY, CODE
  2 .rodata       00000018  08001dc4  08001dc4  00011dc4  2**2
                  CONTENTS, ALLOC, LOAD, READONLY, DATA
  3 .ARM.extab    00000000  08001ddc  08001ddc  0002000c  2**0
                  CONTENTS
  4 .ARM          00000008  08001ddc  08001ddc  00011ddc  2**2
                  CONTENTS, ALLOC, LOAD, READONLY, DATA
  5 .preinit_array 00000000  08001de4  08001de4  0002000c  2**0
                  CONTENTS, ALLOC, LOAD, DATA
  6 .init_array   00000004  08001de4  08001de4  00011de4  2**2
                  CONTENTS, ALLOC, LOAD, DATA
  7 .fini_array   00000004  08001de8  08001de8  00011de8  2**2
                  CONTENTS, ALLOC, LOAD, DATA
  8 .data         0000000c  20000000  08001dec  00020000  2**2
                  CONTENTS, ALLOC, LOAD, DATA
  9 .ccmram       00000000  10000000  10000000  0002000c  2**0
                  CONTENTS
 10 .bss          00000068  2000000c  2000000c  0002000c  2**2
                  ALLOC
 11 ._user_heap_stack 00000604  20000074  20000074  0002000c  2**0
                  ALLOC
 12 .ARM.attributes 00000030  00000000  00000000  0002000c  2**0
                  CONTENTS, READONLY
 13 .debug_info   000096ff  00000000  00000000  0002003c  2**0
                  CONTENTS, READONLY, DEBUGGING, OCTETS
 14 .debug_abbrev 00001617  00000000  00000000  0002973b  2**0
                  CONTENTS, READONLY, DEBUGGING, OCTETS
 15 .debug_aranges 00000968  00000000  00000000  0002ad58  2**3
                  CONTENTS, READONLY, DEBUGGING, OCTETS
 16 .debug_ranges 000008b0  00000000  00000000  0002b6c0  2**3
                  CONTENTS, READONLY, DEBUGGING, OCTETS
 17 .debug_macro  0001fc89  00000000  00000000  0002bf70  2**0
                  CONTENTS, READONLY, DEBUGGING, OCTETS
 18 .debug_line   0000a2a2  00000000  00000000  0004bbf9  2**0
                  CONTENTS, READONLY, DEBUGGING, OCTETS
 19 .debug_str    000c460e  00000000  00000000  00055e9b  2**0
                  CONTENTS, READONLY, DEBUGGING, OCTETS
 20 .comment      00000053  00000000  00000000  0011a4a9  2**0
                  CONTENTS, READONLY
 21 .debug_frame  000026c8  00000000  00000000  0011a4fc  2**2
                  CONTENTS, READONLY, DEBUGGING, OCTETS

Disassembly of section .text:

08000188 <__do_global_dtors_aux>:
 8000188:	b510      	push	{r4, lr}
 800018a:	4c05      	ldr	r4, [pc, #20]	; (80001a0 <__do_global_dtors_aux+0x18>)
 800018c:	7823      	ldrb	r3, [r4, #0]
 800018e:	b933      	cbnz	r3, 800019e <__do_global_dtors_aux+0x16>
 8000190:	4b04      	ldr	r3, [pc, #16]	; (80001a4 <__do_global_dtors_aux+0x1c>)
 8000192:	b113      	cbz	r3, 800019a <__do_global_dtors_aux+0x12>
 8000194:	4804      	ldr	r0, [pc, #16]	; (80001a8 <__do_global_dtors_aux+0x20>)
 8000196:	f3af 8000 	nop.w
 800019a:	2301      	movs	r3, #1
 800019c:	7023      	strb	r3, [r4, #0]
 800019e:	bd10      	pop	{r4, pc}
 80001a0:	2000000c 	.word	0x2000000c
 80001a4:	00000000 	.word	0x00000000
 80001a8:	08001dac 	.word	0x08001dac

080001ac <frame_dummy>:
 80001ac:	b508      	push	{r3, lr}
 80001ae:	4b03      	ldr	r3, [pc, #12]	; (80001bc <frame_dummy+0x10>)
 80001b0:	b11b      	cbz	r3, 80001ba <frame_dummy+0xe>
 80001b2:	4903      	ldr	r1, [pc, #12]	; (80001c0 <frame_dummy+0x14>)
 80001b4:	4803      	ldr	r0, [pc, #12]	; (80001c4 <frame_dummy+0x18>)
 80001b6:	f3af 8000 	nop.w
 80001ba:	bd08      	pop	{r3, pc}
 80001bc:	00000000 	.word	0x00000000
 80001c0:	20000010 	.word	0x20000010
 80001c4:	08001dac 	.word	0x08001dac

080001c8 <__aeabi_uldivmod>:
 80001c8:	b953      	cbnz	r3, 80001e0 <__aeabi_uldivmod+0x18>
 80001ca:	b94a      	cbnz	r2, 80001e0 <__aeabi_uldivmod+0x18>
 80001cc:	2900      	cmp	r1, #0
 80001ce:	bf08      	it	eq
 80001d0:	2800      	cmpeq	r0, #0
 80001d2:	bf1c      	itt	ne
 80001d4:	f04f 31ff 	movne.w	r1, #4294967295
 80001d8:	f04f 30ff 	movne.w	r0, #4294967295
 80001dc:	f000 b96e 	b.w	80004bc <__aeabi_idiv0>
 80001e0:	f1ad 0c08 	sub.w	ip, sp, #8
 80001e4:	e96d ce04 	strd	ip, lr, [sp, #-16]!
 80001e8:	f000 f806 	bl	80001f8 <__udivmoddi4>
 80001ec:	f8dd e004 	ldr.w	lr, [sp, #4]
 80001f0:	e9dd 2302 	ldrd	r2, r3, [sp, #8]
 80001f4:	b004      	add	sp, #16
 80001f6:	4770      	bx	lr

080001f8 <__udivmoddi4>:
 80001f8:	e92d 47f0 	stmdb	sp!, {r4, r5, r6, r7, r8, r9, sl, lr}
 80001fc:	9d08      	ldr	r5, [sp, #32]
 80001fe:	4604      	mov	r4, r0
 8000200:	468c      	mov	ip, r1
 8000202:	2b00      	cmp	r3, #0
 8000204:	f040 8083 	bne.w	800030e <__udivmoddi4+0x116>
 8000208:	428a      	cmp	r2, r1
 800020a:	4617      	mov	r7, r2
 800020c:	d947      	bls.n	800029e <__udivmoddi4+0xa6>
 800020e:	fab2 f282 	clz	r2, r2
 8000212:	b142      	cbz	r2, 8000226 <__udivmoddi4+0x2e>
 8000214:	f1c2 0020 	rsb	r0, r2, #32
 8000218:	fa24 f000 	lsr.w	r0, r4, r0
 800021c:	4091      	lsls	r1, r2
 800021e:	4097      	lsls	r7, r2
 8000220:	ea40 0c01 	orr.w	ip, r0, r1
 8000224:	4094      	lsls	r4, r2
 8000226:	ea4f 4817 	mov.w	r8, r7, lsr #16
 800022a:	0c23      	lsrs	r3, r4, #16
 800022c:	fbbc f6f8 	udiv	r6, ip, r8
 8000230:	fa1f fe87 	uxth.w	lr, r7
 8000234:	fb08 c116 	mls	r1, r8, r6, ip
 8000238:	ea43 4301 	orr.w	r3, r3, r1, lsl #16
 800023c:	fb06 f10e 	mul.w	r1, r6, lr
 8000240:	4299      	cmp	r1, r3
 8000242:	d909      	bls.n	8000258 <__udivmoddi4+0x60>
 8000244:	18fb      	adds	r3, r7, r3
 8000246:	f106 30ff 	add.w	r0, r6, #4294967295
 800024a:	f080 8119 	bcs.w	8000480 <__udivmoddi4+0x288>
 800024e:	4299      	cmp	r1, r3
 8000250:	f240 8116 	bls.w	8000480 <__udivmoddi4+0x288>
 8000254:	3e02      	subs	r6, #2
 8000256:	443b      	add	r3, r7
 8000258:	1a5b      	subs	r3, r3, r1
 800025a:	b2a4      	uxth	r4, r4
 800025c:	fbb3 f0f8 	udiv	r0, r3, r8
 8000260:	fb08 3310 	mls	r3, r8, r0, r3
 8000264:	ea44 4403 	orr.w	r4, r4, r3, lsl #16
 8000268:	fb00 fe0e 	mul.w	lr, r0, lr
 800026c:	45a6      	cmp	lr, r4
 800026e:	d909      	bls.n	8000284 <__udivmoddi4+0x8c>
 8000270:	193c      	adds	r4, r7, r4
 8000272:	f100 33ff 	add.w	r3, r0, #4294967295
 8000276:	f080 8105 	bcs.w	8000484 <__udivmoddi4+0x28c>
 800027a:	45a6      	cmp	lr, r4
 800027c:	f240 8102 	bls.w	8000484 <__udivmoddi4+0x28c>
 8000280:	3802      	subs	r0, #2
 8000282:	443c      	add	r4, r7
 8000284:	ea40 4006 	orr.w	r0, r0, r6, lsl #16
 8000288:	eba4 040e 	sub.w	r4, r4, lr
 800028c:	2600      	movs	r6, #0
 800028e:	b11d      	cbz	r5, 8000298 <__udivmoddi4+0xa0>
 8000290:	40d4      	lsrs	r4, r2
 8000292:	2300      	movs	r3, #0
 8000294:	e9c5 4300 	strd	r4, r3, [r5]
 8000298:	4631      	mov	r1, r6
 800029a:	e8bd 87f0 	ldmia.w	sp!, {r4, r5, r6, r7, r8, r9, sl, pc}
 800029e:	b902      	cbnz	r2, 80002a2 <__udivmoddi4+0xaa>
 80002a0:	deff      	udf	#255	; 0xff
 80002a2:	fab2 f282 	clz	r2, r2
 80002a6:	2a00      	cmp	r2, #0
 80002a8:	d150      	bne.n	800034c <__udivmoddi4+0x154>
 80002aa:	1bcb      	subs	r3, r1, r7
 80002ac:	ea4f 4e17 	mov.w	lr, r7, lsr #16
 80002b0:	fa1f f887 	uxth.w	r8, r7
 80002b4:	2601      	movs	r6, #1
 80002b6:	fbb3 fcfe 	udiv	ip, r3, lr
 80002ba:	0c21      	lsrs	r1, r4, #16
 80002bc:	fb0e 331c 	mls	r3, lr, ip, r3
 80002c0:	ea41 4103 	orr.w	r1, r1, r3, lsl #16
 80002c4:	fb08 f30c 	mul.w	r3, r8, ip
 80002c8:	428b      	cmp	r3, r1
 80002ca:	d907      	bls.n	80002dc <__udivmoddi4+0xe4>
 80002cc:	1879      	adds	r1, r7, r1
 80002ce:	f10c 30ff 	add.w	r0, ip, #4294967295
 80002d2:	d202      	bcs.n	80002da <__udivmoddi4+0xe2>
 80002d4:	428b      	cmp	r3, r1
 80002d6:	f200 80e9 	bhi.w	80004ac <__udivmoddi4+0x2b4>
 80002da:	4684      	mov	ip, r0
 80002dc:	1ac9      	subs	r1, r1, r3
 80002de:	b2a3      	uxth	r3, r4
 80002e0:	fbb1 f0fe 	udiv	r0, r1, lr
 80002e4:	fb0e 1110 	mls	r1, lr, r0, r1
 80002e8:	ea43 4401 	orr.w	r4, r3, r1, lsl #16
 80002ec:	fb08 f800 	mul.w	r8, r8, r0
 80002f0:	45a0      	cmp	r8, r4
 80002f2:	d907      	bls.n	8000304 <__udivmoddi4+0x10c>
 80002f4:	193c      	adds	r4, r7, r4
 80002f6:	f100 33ff 	add.w	r3, r0, #4294967295
 80002fa:	d202      	bcs.n	8000302 <__udivmoddi4+0x10a>
 80002fc:	45a0      	cmp	r8, r4
 80002fe:	f200 80d9 	bhi.w	80004b4 <__udivmoddi4+0x2bc>
 8000302:	4618      	mov	r0, r3
 8000304:	eba4 0408 	sub.w	r4, r4, r8
 8000308:	ea40 400c 	orr.w	r0, r0, ip, lsl #16
 800030c:	e7bf      	b.n	800028e <__udivmoddi4+0x96>
 800030e:	428b      	cmp	r3, r1
 8000310:	d909      	bls.n	8000326 <__udivmoddi4+0x12e>
 8000312:	2d00      	cmp	r5, #0
 8000314:	f000 80b1 	beq.w	800047a <__udivmoddi4+0x282>
 8000318:	2600      	movs	r6, #0
 800031a:	e9c5 0100 	strd	r0, r1, [r5]
 800031e:	4630      	mov	r0, r6
 8000320:	4631      	mov	r1, r6
 8000322:	e8bd 87f0 	ldmia.w	sp!, {r4, r5, r6, r7, r8, r9, sl, pc}
 8000326:	fab3 f683 	clz	r6, r3
 800032a:	2e00      	cmp	r6, #0
 800032c:	d14a      	bne.n	80003c4 <__udivmoddi4+0x1cc>
 800032e:	428b      	cmp	r3, r1
 8000330:	d302      	bcc.n	8000338 <__udivmoddi4+0x140>
 8000332:	4282      	cmp	r2, r0
 8000334:	f200 80b8 	bhi.w	80004a8 <__udivmoddi4+0x2b0>
 8000338:	1a84      	subs	r4, r0, r2
 800033a:	eb61 0103 	sbc.w	r1, r1, r3
 800033e:	2001      	movs	r0, #1
 8000340:	468c      	mov	ip, r1
 8000342:	2d00      	cmp	r5, #0
 8000344:	d0a8      	beq.n	8000298 <__udivmoddi4+0xa0>
 8000346:	e9c5 4c00 	strd	r4, ip, [r5]
 800034a:	e7a5      	b.n	8000298 <__udivmoddi4+0xa0>
 800034c:	f1c2 0320 	rsb	r3, r2, #32
 8000350:	fa20 f603 	lsr.w	r6, r0, r3
 8000354:	4097      	lsls	r7, r2
 8000356:	fa01 f002 	lsl.w	r0, r1, r2
 800035a:	ea4f 4e17 	mov.w	lr, r7, lsr #16
 800035e:	40d9      	lsrs	r1, r3
 8000360:	4330      	orrs	r0, r6
 8000362:	0c03      	lsrs	r3, r0, #16
 8000364:	fbb1 f6fe 	udiv	r6, r1, lr
 8000368:	fa1f f887 	uxth.w	r8, r7
 800036c:	fb0e 1116 	mls	r1, lr, r6, r1
 8000370:	ea43 4301 	orr.w	r3, r3, r1, lsl #16
 8000374:	fb06 f108 	mul.w	r1, r6, r8
 8000378:	4299      	cmp	r1, r3
 800037a:	fa04 f402 	lsl.w	r4, r4, r2
 800037e:	d909      	bls.n	8000394 <__udivmoddi4+0x19c>
 8000380:	18fb      	adds	r3, r7, r3
 8000382:	f106 3cff 	add.w	ip, r6, #4294967295
 8000386:	f080 808d 	bcs.w	80004a4 <__udivmoddi4+0x2ac>
 800038a:	4299      	cmp	r1, r3
 800038c:	f240 808a 	bls.w	80004a4 <__udivmoddi4+0x2ac>
 8000390:	3e02      	subs	r6, #2
 8000392:	443b      	add	r3, r7
 8000394:	1a5b      	subs	r3, r3, r1
 8000396:	b281      	uxth	r1, r0
 8000398:	fbb3 f0fe 	udiv	r0, r3, lr
 800039c:	fb0e 3310 	mls	r3, lr, r0, r3
 80003a0:	ea41 4103 	orr.w	r1, r1, r3, lsl #16
 80003a4:	fb00 f308 	mul.w	r3, r0, r8
 80003a8:	428b      	cmp	r3, r1
 80003aa:	d907      	bls.n	80003bc <__udivmoddi4+0x1c4>
 80003ac:	1879      	adds	r1, r7, r1
 80003ae:	f100 3cff 	add.w	ip, r0, #4294967295
 80003b2:	d273      	bcs.n	800049c <__udivmoddi4+0x2a4>
 80003b4:	428b      	cmp	r3, r1
 80003b6:	d971      	bls.n	800049c <__udivmoddi4+0x2a4>
 80003b8:	3802      	subs	r0, #2
 80003ba:	4439      	add	r1, r7
 80003bc:	1acb      	subs	r3, r1, r3
 80003be:	ea40 4606 	orr.w	r6, r0, r6, lsl #16
 80003c2:	e778      	b.n	80002b6 <__udivmoddi4+0xbe>
 80003c4:	f1c6 0c20 	rsb	ip, r6, #32
 80003c8:	fa03 f406 	lsl.w	r4, r3, r6
 80003cc:	fa22 f30c 	lsr.w	r3, r2, ip
 80003d0:	431c      	orrs	r4, r3
 80003d2:	fa20 f70c 	lsr.w	r7, r0, ip
 80003d6:	fa01 f306 	lsl.w	r3, r1, r6
 80003da:	ea4f 4e14 	mov.w	lr, r4, lsr #16
 80003de:	fa21 f10c 	lsr.w	r1, r1, ip
 80003e2:	431f      	orrs	r7, r3
 80003e4:	0c3b      	lsrs	r3, r7, #16
 80003e6:	fbb1 f9fe 	udiv	r9, r1, lr
 80003ea:	fa1f f884 	uxth.w	r8, r4
 80003ee:	fb0e 1119 	mls	r1, lr, r9, r1
 80003f2:	ea43 4101 	orr.w	r1, r3, r1, lsl #16
 80003f6:	fb09 fa08 	mul.w	sl, r9, r8
 80003fa:	458a      	cmp	sl, r1
 80003fc:	fa02 f206 	lsl.w	r2, r2, r6
 8000400:	fa00 f306 	lsl.w	r3, r0, r6
 8000404:	d908      	bls.n	8000418 <__udivmoddi4+0x220>
 8000406:	1861      	adds	r1, r4, r1
 8000408:	f109 30ff 	add.w	r0, r9, #4294967295
 800040c:	d248      	bcs.n	80004a0 <__udivmoddi4+0x2a8>
 800040e:	458a      	cmp	sl, r1
 8000410:	d946      	bls.n	80004a0 <__udivmoddi4+0x2a8>
 8000412:	f1a9 0902 	sub.w	r9, r9, #2
 8000416:	4421      	add	r1, r4
 8000418:	eba1 010a 	sub.w	r1, r1, sl
 800041c:	b2bf      	uxth	r7, r7
 800041e:	fbb1 f0fe 	udiv	r0, r1, lr
 8000422:	fb0e 1110 	mls	r1, lr, r0, r1
 8000426:	ea47 4701 	orr.w	r7, r7, r1, lsl #16
 800042a:	fb00 f808 	mul.w	r8, r0, r8
 800042e:	45b8      	cmp	r8, r7
 8000430:	d907      	bls.n	8000442 <__udivmoddi4+0x24a>
 8000432:	19e7      	adds	r7, r4, r7
 8000434:	f100 31ff 	add.w	r1, r0, #4294967295
 8000438:	d22e      	bcs.n	8000498 <__udivmoddi4+0x2a0>
 800043a:	45b8      	cmp	r8, r7
 800043c:	d92c      	bls.n	8000498 <__udivmoddi4+0x2a0>
 800043e:	3802      	subs	r0, #2
 8000440:	4427      	add	r7, r4
 8000442:	ea40 4009 	orr.w	r0, r0, r9, lsl #16
 8000446:	eba7 0708 	sub.w	r7, r7, r8
 800044a:	fba0 8902 	umull	r8, r9, r0, r2
 800044e:	454f      	cmp	r7, r9
 8000450:	46c6      	mov	lr, r8
 8000452:	4649      	mov	r1, r9
 8000454:	d31a      	bcc.n	800048c <__udivmoddi4+0x294>
 8000456:	d017      	beq.n	8000488 <__udivmoddi4+0x290>
 8000458:	b15d      	cbz	r5, 8000472 <__udivmoddi4+0x27a>
 800045a:	ebb3 020e 	subs.w	r2, r3, lr
 800045e:	eb67 0701 	sbc.w	r7, r7, r1
 8000462:	fa07 fc0c 	lsl.w	ip, r7, ip
 8000466:	40f2      	lsrs	r2, r6
 8000468:	ea4c 0202 	orr.w	r2, ip, r2
 800046c:	40f7      	lsrs	r7, r6
 800046e:	e9c5 2700 	strd	r2, r7, [r5]
 8000472:	2600      	movs	r6, #0
 8000474:	4631      	mov	r1, r6
 8000476:	e8bd 87f0 	ldmia.w	sp!, {r4, r5, r6, r7, r8, r9, sl, pc}
 800047a:	462e      	mov	r6, r5
 800047c:	4628      	mov	r0, r5
 800047e:	e70b      	b.n	8000298 <__udivmoddi4+0xa0>
 8000480:	4606      	mov	r6, r0
 8000482:	e6e9      	b.n	8000258 <__udivmoddi4+0x60>
 8000484:	4618      	mov	r0, r3
 8000486:	e6fd      	b.n	8000284 <__udivmoddi4+0x8c>
 8000488:	4543      	cmp	r3, r8
 800048a:	d2e5      	bcs.n	8000458 <__udivmoddi4+0x260>
 800048c:	ebb8 0e02 	subs.w	lr, r8, r2
 8000490:	eb69 0104 	sbc.w	r1, r9, r4
 8000494:	3801      	subs	r0, #1
 8000496:	e7df      	b.n	8000458 <__udivmoddi4+0x260>
 8000498:	4608      	mov	r0, r1
 800049a:	e7d2      	b.n	8000442 <__udivmoddi4+0x24a>
 800049c:	4660      	mov	r0, ip
 800049e:	e78d      	b.n	80003bc <__udivmoddi4+0x1c4>
 80004a0:	4681      	mov	r9, r0
 80004a2:	e7b9      	b.n	8000418 <__udivmoddi4+0x220>
 80004a4:	4666      	mov	r6, ip
 80004a6:	e775      	b.n	8000394 <__udivmoddi4+0x19c>
 80004a8:	4630      	mov	r0, r6
 80004aa:	e74a      	b.n	8000342 <__udivmoddi4+0x14a>
 80004ac:	f1ac 0c02 	sub.w	ip, ip, #2
 80004b0:	4439      	add	r1, r7
 80004b2:	e713      	b.n	80002dc <__udivmoddi4+0xe4>
 80004b4:	3802      	subs	r0, #2
 80004b6:	443c      	add	r4, r7
 80004b8:	e724      	b.n	8000304 <__udivmoddi4+0x10c>
 80004ba:	bf00      	nop

080004bc <__aeabi_idiv0>:
 80004bc:	4770      	bx	lr
 80004be:	bf00      	nop

080004c0 <main>:
/**
  * @brief  The application entry point.
  * @retval int
  */
int main(void)
{
 80004c0:	b580      	push	{r7, lr}
 80004c2:	b082      	sub	sp, #8
 80004c4:	af00      	add	r7, sp, #0
  /* USER CODE END 1 */

  /* MCU Configuration--------------------------------------------------------*/

  /* Reset of all peripherals, Initializes the Flash interface and the Systick. */
  HAL_Init();
 80004c6:	f000 fa07 	bl	80008d8 <HAL_Init>
  /* USER CODE BEGIN Init */

  /* USER CODE END Init */

  /* Configure the system clock */
  SystemClock_Config();
 80004ca:	f000 f83d 	bl	8000548 <SystemClock_Config>
  /* USER CODE BEGIN SysInit */

  /* USER CODE END SysInit */

  /* Initialize all configured peripherals */
  MX_GPIO_Init();
 80004ce:	f000 f8a5 	bl	800061c <MX_GPIO_Init>
  /* USER CODE END 2 */

  /* Infinite loop */
  /* USER CODE BEGIN WHILE */

  int seconds = 0;
 80004d2:	2300      	movs	r3, #0
 80004d4:	607b      	str	r3, [r7, #4]
	  HAL_GPIO_WritePin(GPIOD, GPIO_PIN_13, GPIO_PIN_SET);
	  HAL_GPIO_WritePin(GPIOD, GPIO_PIN_14, GPIO_PIN_SET);
	  HAL_Delay(1000);

*/
	  if (seconds % 2 == 0) {
 80004d6:	687b      	ldr	r3, [r7, #4]
 80004d8:	f003 0301 	and.w	r3, r3, #1
 80004dc:	2b00      	cmp	r3, #0
 80004de:	d105      	bne.n	80004ec <main+0x2c>
		  HAL_GPIO_WritePin(GPIOD, GPIO_PIN_13, GPIO_PIN_SET);
 80004e0:	2201      	movs	r2, #1
 80004e2:	f44f 5100 	mov.w	r1, #8192	; 0x2000
 80004e6:	4817      	ldr	r0, [pc, #92]	; (8000544 <main+0x84>)
 80004e8:	f000 fcda 	bl	8000ea0 <HAL_GPIO_WritePin>
		  //HAL_GPIO_TogglePin(GPIOD, GPIO_PIN_13);
	  }

	  if (seconds % 2 == 1) {
 80004ec:	687b      	ldr	r3, [r7, #4]
 80004ee:	2b00      	cmp	r3, #0
 80004f0:	f003 0301 	and.w	r3, r3, #1
 80004f4:	bfb8      	it	lt
 80004f6:	425b      	neglt	r3, r3
 80004f8:	2b01      	cmp	r3, #1
 80004fa:	d10b      	bne.n	8000514 <main+0x54>
		  HAL_GPIO_WritePin(GPIOD, GPIO_PIN_13, GPIO_PIN_SET);
 80004fc:	2201      	movs	r2, #1
 80004fe:	f44f 5100 	mov.w	r1, #8192	; 0x2000
 8000502:	4810      	ldr	r0, [pc, #64]	; (8000544 <main+0x84>)
 8000504:	f000 fccc 	bl	8000ea0 <HAL_GPIO_WritePin>
		  //HAL_GPIO_TogglePin(GPIOD, GPIO_PIN_13);
		  HAL_GPIO_WritePin(GPIOD, GPIO_PIN_14, GPIO_PIN_SET);
 8000508:	2201      	movs	r2, #1
 800050a:	f44f 4180 	mov.w	r1, #16384	; 0x4000
 800050e:	480d      	ldr	r0, [pc, #52]	; (8000544 <main+0x84>)
 8000510:	f000 fcc6 	bl	8000ea0 <HAL_GPIO_WritePin>
	  }
	  HAL_Delay(900);
 8000514:	f44f 7061 	mov.w	r0, #900	; 0x384
 8000518:	f000 fa20 	bl	800095c <HAL_Delay>
	  HAL_GPIO_WritePin(GPIOD, GPIO_PIN_13, GPIO_PIN_RESET);
 800051c:	2200      	movs	r2, #0
 800051e:	f44f 5100 	mov.w	r1, #8192	; 0x2000
 8000522:	4808      	ldr	r0, [pc, #32]	; (8000544 <main+0x84>)
 8000524:	f000 fcbc 	bl	8000ea0 <HAL_GPIO_WritePin>
	  HAL_GPIO_WritePin(GPIOD, GPIO_PIN_14, GPIO_PIN_RESET);
 8000528:	2200      	movs	r2, #0
 800052a:	f44f 4180 	mov.w	r1, #16384	; 0x4000
 800052e:	4805      	ldr	r0, [pc, #20]	; (8000544 <main+0x84>)
 8000530:	f000 fcb6 	bl	8000ea0 <HAL_GPIO_WritePin>
	  HAL_Delay(100);
 8000534:	2064      	movs	r0, #100	; 0x64
 8000536:	f000 fa11 	bl	800095c <HAL_Delay>

	  seconds++;
 800053a:	687b      	ldr	r3, [r7, #4]
 800053c:	3301      	adds	r3, #1
 800053e:	607b      	str	r3, [r7, #4]
	  if (seconds % 2 == 0) {
 8000540:	e7c9      	b.n	80004d6 <main+0x16>
 8000542:	bf00      	nop
 8000544:	40020c00 	.word	0x40020c00

08000548 <SystemClock_Config>:
/**
  * @brief System Clock Configuration
  * @retval None
  */
void SystemClock_Config(void)
{
 8000548:	b580      	push	{r7, lr}
 800054a:	b094      	sub	sp, #80	; 0x50
 800054c:	af00      	add	r7, sp, #0
  RCC_OscInitTypeDef RCC_OscInitStruct = {0};
 800054e:	f107 0320 	add.w	r3, r7, #32
 8000552:	2230      	movs	r2, #48	; 0x30
 8000554:	2100      	movs	r1, #0
 8000556:	4618      	mov	r0, r3
 8000558:	f001 fc20 	bl	8001d9c <memset>
  RCC_ClkInitTypeDef RCC_ClkInitStruct = {0};
 800055c:	f107 030c 	add.w	r3, r7, #12
 8000560:	2200      	movs	r2, #0
 8000562:	601a      	str	r2, [r3, #0]
 8000564:	605a      	str	r2, [r3, #4]
 8000566:	609a      	str	r2, [r3, #8]
 8000568:	60da      	str	r2, [r3, #12]
 800056a:	611a      	str	r2, [r3, #16]

  /** Configure the main internal regulator output voltage
  */
  __HAL_RCC_PWR_CLK_ENABLE();
 800056c:	2300      	movs	r3, #0
 800056e:	60bb      	str	r3, [r7, #8]
 8000570:	4b28      	ldr	r3, [pc, #160]	; (8000614 <SystemClock_Config+0xcc>)
 8000572:	6c1b      	ldr	r3, [r3, #64]	; 0x40
 8000574:	4a27      	ldr	r2, [pc, #156]	; (8000614 <SystemClock_Config+0xcc>)
 8000576:	f043 5380 	orr.w	r3, r3, #268435456	; 0x10000000
 800057a:	6413      	str	r3, [r2, #64]	; 0x40
 800057c:	4b25      	ldr	r3, [pc, #148]	; (8000614 <SystemClock_Config+0xcc>)
 800057e:	6c1b      	ldr	r3, [r3, #64]	; 0x40
 8000580:	f003 5380 	and.w	r3, r3, #268435456	; 0x10000000
 8000584:	60bb      	str	r3, [r7, #8]
 8000586:	68bb      	ldr	r3, [r7, #8]
  __HAL_PWR_VOLTAGESCALING_CONFIG(PWR_REGULATOR_VOLTAGE_SCALE1);
 8000588:	2300      	movs	r3, #0
 800058a:	607b      	str	r3, [r7, #4]
 800058c:	4b22      	ldr	r3, [pc, #136]	; (8000618 <SystemClock_Config+0xd0>)
 800058e:	681b      	ldr	r3, [r3, #0]
 8000590:	4a21      	ldr	r2, [pc, #132]	; (8000618 <SystemClock_Config+0xd0>)
 8000592:	f443 4380 	orr.w	r3, r3, #16384	; 0x4000
 8000596:	6013      	str	r3, [r2, #0]
 8000598:	4b1f      	ldr	r3, [pc, #124]	; (8000618 <SystemClock_Config+0xd0>)
 800059a:	681b      	ldr	r3, [r3, #0]
 800059c:	f403 4380 	and.w	r3, r3, #16384	; 0x4000
 80005a0:	607b      	str	r3, [r7, #4]
 80005a2:	687b      	ldr	r3, [r7, #4]
  /** Initializes the RCC Oscillators according to the specified parameters
  * in the RCC_OscInitTypeDef structure.
  */
  RCC_OscInitStruct.OscillatorType = RCC_OSCILLATORTYPE_HSI;
 80005a4:	2302      	movs	r3, #2
 80005a6:	623b      	str	r3, [r7, #32]
  RCC_OscInitStruct.HSIState = RCC_HSI_ON;
 80005a8:	2301      	movs	r3, #1
 80005aa:	62fb      	str	r3, [r7, #44]	; 0x2c
  RCC_OscInitStruct.HSICalibrationValue = RCC_HSICALIBRATION_DEFAULT;
 80005ac:	2310      	movs	r3, #16
 80005ae:	633b      	str	r3, [r7, #48]	; 0x30
  RCC_OscInitStruct.PLL.PLLState = RCC_PLL_ON;
 80005b0:	2302      	movs	r3, #2
 80005b2:	63bb      	str	r3, [r7, #56]	; 0x38
  RCC_OscInitStruct.PLL.PLLSource = RCC_PLLSOURCE_HSI;
 80005b4:	2300      	movs	r3, #0
 80005b6:	63fb      	str	r3, [r7, #60]	; 0x3c
  RCC_OscInitStruct.PLL.PLLM = 8;
 80005b8:	2308      	movs	r3, #8
 80005ba:	643b      	str	r3, [r7, #64]	; 0x40
  RCC_OscInitStruct.PLL.PLLN = 50;
 80005bc:	2332      	movs	r3, #50	; 0x32
 80005be:	647b      	str	r3, [r7, #68]	; 0x44
  RCC_OscInitStruct.PLL.PLLP = RCC_PLLP_DIV2;
 80005c0:	2302      	movs	r3, #2
 80005c2:	64bb      	str	r3, [r7, #72]	; 0x48
  RCC_OscInitStruct.PLL.PLLQ = 7;
 80005c4:	2307      	movs	r3, #7
 80005c6:	64fb      	str	r3, [r7, #76]	; 0x4c
  if (HAL_RCC_OscConfig(&RCC_OscInitStruct) != HAL_OK)
 80005c8:	f107 0320 	add.w	r3, r7, #32
 80005cc:	4618      	mov	r0, r3
 80005ce:	f000 fc81 	bl	8000ed4 <HAL_RCC_OscConfig>
 80005d2:	4603      	mov	r3, r0
 80005d4:	2b00      	cmp	r3, #0
 80005d6:	d001      	beq.n	80005dc <SystemClock_Config+0x94>
  {
    Error_Handler();
 80005d8:	f000 f884 	bl	80006e4 <Error_Handler>
  }
  /** Initializes the CPU, AHB and APB buses clocks
  */
  RCC_ClkInitStruct.ClockType = RCC_CLOCKTYPE_HCLK|RCC_CLOCKTYPE_SYSCLK
 80005dc:	230f      	movs	r3, #15
 80005de:	60fb      	str	r3, [r7, #12]
                              |RCC_CLOCKTYPE_PCLK1|RCC_CLOCKTYPE_PCLK2;
  RCC_ClkInitStruct.SYSCLKSource = RCC_SYSCLKSOURCE_PLLCLK;
 80005e0:	2302      	movs	r3, #2
 80005e2:	613b      	str	r3, [r7, #16]
  RCC_ClkInitStruct.AHBCLKDivider = RCC_SYSCLK_DIV2;
 80005e4:	2380      	movs	r3, #128	; 0x80
 80005e6:	617b      	str	r3, [r7, #20]
  RCC_ClkInitStruct.APB1CLKDivider = RCC_HCLK_DIV4;
 80005e8:	f44f 53a0 	mov.w	r3, #5120	; 0x1400
 80005ec:	61bb      	str	r3, [r7, #24]
  RCC_ClkInitStruct.APB2CLKDivider = RCC_HCLK_DIV2;
 80005ee:	f44f 5380 	mov.w	r3, #4096	; 0x1000
 80005f2:	61fb      	str	r3, [r7, #28]

  if (HAL_RCC_ClockConfig(&RCC_ClkInitStruct, FLASH_LATENCY_0) != HAL_OK)
 80005f4:	f107 030c 	add.w	r3, r7, #12
 80005f8:	2100      	movs	r1, #0
 80005fa:	4618      	mov	r0, r3
 80005fc:	f000 fee2 	bl	80013c4 <HAL_RCC_ClockConfig>
 8000600:	4603      	mov	r3, r0
 8000602:	2b00      	cmp	r3, #0
 8000604:	d001      	beq.n	800060a <SystemClock_Config+0xc2>
  {
    Error_Handler();
 8000606:	f000 f86d 	bl	80006e4 <Error_Handler>
  }
}
 800060a:	bf00      	nop
 800060c:	3750      	adds	r7, #80	; 0x50
 800060e:	46bd      	mov	sp, r7
 8000610:	bd80      	pop	{r7, pc}
 8000612:	bf00      	nop
 8000614:	40023800 	.word	0x40023800
 8000618:	40007000 	.word	0x40007000

0800061c <MX_GPIO_Init>:
  * @brief GPIO Initialization Function
  * @param None
  * @retval None
  */
static void MX_GPIO_Init(void)
{
 800061c:	b580      	push	{r7, lr}
 800061e:	b088      	sub	sp, #32
 8000620:	af00      	add	r7, sp, #0
  GPIO_InitTypeDef GPIO_InitStruct = {0};
 8000622:	f107 030c 	add.w	r3, r7, #12
 8000626:	2200      	movs	r2, #0
 8000628:	601a      	str	r2, [r3, #0]
 800062a:	605a      	str	r2, [r3, #4]
 800062c:	609a      	str	r2, [r3, #8]
 800062e:	60da      	str	r2, [r3, #12]
 8000630:	611a      	str	r2, [r3, #16]

  /* GPIO Ports Clock Enable */
  __HAL_RCC_GPIOA_CLK_ENABLE();
 8000632:	2300      	movs	r3, #0
 8000634:	60bb      	str	r3, [r7, #8]
 8000636:	4b1f      	ldr	r3, [pc, #124]	; (80006b4 <MX_GPIO_Init+0x98>)
 8000638:	6b1b      	ldr	r3, [r3, #48]	; 0x30
 800063a:	4a1e      	ldr	r2, [pc, #120]	; (80006b4 <MX_GPIO_Init+0x98>)
 800063c:	f043 0301 	orr.w	r3, r3, #1
 8000640:	6313      	str	r3, [r2, #48]	; 0x30
 8000642:	4b1c      	ldr	r3, [pc, #112]	; (80006b4 <MX_GPIO_Init+0x98>)
 8000644:	6b1b      	ldr	r3, [r3, #48]	; 0x30
 8000646:	f003 0301 	and.w	r3, r3, #1
 800064a:	60bb      	str	r3, [r7, #8]
 800064c:	68bb      	ldr	r3, [r7, #8]
  __HAL_RCC_GPIOD_CLK_ENABLE();
 800064e:	2300      	movs	r3, #0
 8000650:	607b      	str	r3, [r7, #4]
 8000652:	4b18      	ldr	r3, [pc, #96]	; (80006b4 <MX_GPIO_Init+0x98>)
 8000654:	6b1b      	ldr	r3, [r3, #48]	; 0x30
 8000656:	4a17      	ldr	r2, [pc, #92]	; (80006b4 <MX_GPIO_Init+0x98>)
 8000658:	f043 0308 	orr.w	r3, r3, #8
 800065c:	6313      	str	r3, [r2, #48]	; 0x30
 800065e:	4b15      	ldr	r3, [pc, #84]	; (80006b4 <MX_GPIO_Init+0x98>)
 8000660:	6b1b      	ldr	r3, [r3, #48]	; 0x30
 8000662:	f003 0308 	and.w	r3, r3, #8
 8000666:	607b      	str	r3, [r7, #4]
 8000668:	687b      	ldr	r3, [r7, #4]

  /*Configure GPIO pin Output Level */
  HAL_GPIO_WritePin(GPIOD, Green_LED_Pin|Orange_LED_Pin|Red_LED_Pin|Blue_LED_Pin, GPIO_PIN_RESET);
 800066a:	2200      	movs	r2, #0
 800066c:	f44f 4170 	mov.w	r1, #61440	; 0xf000
 8000670:	4811      	ldr	r0, [pc, #68]	; (80006b8 <MX_GPIO_Init+0x9c>)
 8000672:	f000 fc15 	bl	8000ea0 <HAL_GPIO_WritePin>

  /*Configure GPIO pin : USER_BUTTON_Pin */
  GPIO_InitStruct.Pin = USER_BUTTON_Pin;
 8000676:	2301      	movs	r3, #1
 8000678:	60fb      	str	r3, [r7, #12]
  GPIO_InitStruct.Mode = GPIO_MODE_INPUT;
 800067a:	2300      	movs	r3, #0
 800067c:	613b      	str	r3, [r7, #16]
  GPIO_InitStruct.Pull = GPIO_NOPULL;
 800067e:	2300      	movs	r3, #0
 8000680:	617b      	str	r3, [r7, #20]
  HAL_GPIO_Init(USER_BUTTON_GPIO_Port, &GPIO_InitStruct);
 8000682:	f107 030c 	add.w	r3, r7, #12
 8000686:	4619      	mov	r1, r3
 8000688:	480c      	ldr	r0, [pc, #48]	; (80006bc <MX_GPIO_Init+0xa0>)
 800068a:	f000 fa6d 	bl	8000b68 <HAL_GPIO_Init>

  /*Configure GPIO pins : Green_LED_Pin Orange_LED_Pin Red_LED_Pin Blue_LED_Pin */
  GPIO_InitStruct.Pin = Green_LED_Pin|Orange_LED_Pin|Red_LED_Pin|Blue_LED_Pin;
 800068e:	f44f 4370 	mov.w	r3, #61440	; 0xf000
 8000692:	60fb      	str	r3, [r7, #12]
  GPIO_InitStruct.Mode = GPIO_MODE_OUTPUT_PP;
 8000694:	2301      	movs	r3, #1
 8000696:	613b      	str	r3, [r7, #16]
  GPIO_InitStruct.Pull = GPIO_NOPULL;
 8000698:	2300      	movs	r3, #0
 800069a:	617b      	str	r3, [r7, #20]
  GPIO_InitStruct.Speed = GPIO_SPEED_FREQ_LOW;
 800069c:	2300      	movs	r3, #0
 800069e:	61bb      	str	r3, [r7, #24]
  HAL_GPIO_Init(GPIOD, &GPIO_InitStruct);
 80006a0:	f107 030c 	add.w	r3, r7, #12
 80006a4:	4619      	mov	r1, r3
 80006a6:	4804      	ldr	r0, [pc, #16]	; (80006b8 <MX_GPIO_Init+0x9c>)
 80006a8:	f000 fa5e 	bl	8000b68 <HAL_GPIO_Init>

}
 80006ac:	bf00      	nop
 80006ae:	3720      	adds	r7, #32
 80006b0:	46bd      	mov	sp, r7
 80006b2:	bd80      	pop	{r7, pc}
 80006b4:	40023800 	.word	0x40023800
 80006b8:	40020c00 	.word	0x40020c00
 80006bc:	40020000 	.word	0x40020000

080006c0 <HAL_TIM_PeriodElapsedCallback>:
  * a global variable "uwTick" used as application time base.
  * @param  htim : TIM handle
  * @retval None
  */
void HAL_TIM_PeriodElapsedCallback(TIM_HandleTypeDef *htim)
{
 80006c0:	b580      	push	{r7, lr}
 80006c2:	b082      	sub	sp, #8
 80006c4:	af00      	add	r7, sp, #0
 80006c6:	6078      	str	r0, [r7, #4]
  /* USER CODE BEGIN Callback 0 */

  /* USER CODE END Callback 0 */
  if (htim->Instance == TIM1) {
 80006c8:	687b      	ldr	r3, [r7, #4]
 80006ca:	681b      	ldr	r3, [r3, #0]
 80006cc:	4a04      	ldr	r2, [pc, #16]	; (80006e0 <HAL_TIM_PeriodElapsedCallback+0x20>)
 80006ce:	4293      	cmp	r3, r2
 80006d0:	d101      	bne.n	80006d6 <HAL_TIM_PeriodElapsedCallback+0x16>
    HAL_IncTick();
 80006d2:	f000 f923 	bl	800091c <HAL_IncTick>
  }
  /* USER CODE BEGIN Callback 1 */

  /* USER CODE END Callback 1 */
}
 80006d6:	bf00      	nop
 80006d8:	3708      	adds	r7, #8
 80006da:	46bd      	mov	sp, r7
 80006dc:	bd80      	pop	{r7, pc}
 80006de:	bf00      	nop
 80006e0:	40010000 	.word	0x40010000

080006e4 <Error_Handler>:
/**
  * @brief  This function is executed in case of error occurrence.
  * @retval None
  */
void Error_Handler(void)
{
 80006e4:	b480      	push	{r7}
 80006e6:	af00      	add	r7, sp, #0
  \details Disables IRQ interrupts by setting the I-bit in the CPSR.
           Can only be executed in Privileged modes.
 */
__STATIC_FORCEINLINE void __disable_irq(void)
{
  __ASM volatile ("cpsid i" : : : "memory");
 80006e8:	b672      	cpsid	i
}
 80006ea:	bf00      	nop
  /* USER CODE BEGIN Error_Handler_Debug */
  /* User can add his own implementation to report the HAL error return state */
  __disable_irq();
  while (1)
 80006ec:	e7fe      	b.n	80006ec <Error_Handler+0x8>
	...

080006f0 <HAL_MspInit>:
/* USER CODE END 0 */
/**
  * Initializes the Global MSP.
  */
void HAL_MspInit(void)
{
 80006f0:	b580      	push	{r7, lr}
 80006f2:	b082      	sub	sp, #8
 80006f4:	af00      	add	r7, sp, #0
  /* USER CODE BEGIN MspInit 0 */

  /* USER CODE END MspInit 0 */

  __HAL_RCC_SYSCFG_CLK_ENABLE();
 80006f6:	2300      	movs	r3, #0
 80006f8:	607b      	str	r3, [r7, #4]
 80006fa:	4b10      	ldr	r3, [pc, #64]	; (800073c <HAL_MspInit+0x4c>)
 80006fc:	6c5b      	ldr	r3, [r3, #68]	; 0x44
 80006fe:	4a0f      	ldr	r2, [pc, #60]	; (800073c <HAL_MspInit+0x4c>)
 8000700:	f443 4380 	orr.w	r3, r3, #16384	; 0x4000
 8000704:	6453      	str	r3, [r2, #68]	; 0x44
 8000706:	4b0d      	ldr	r3, [pc, #52]	; (800073c <HAL_MspInit+0x4c>)
 8000708:	6c5b      	ldr	r3, [r3, #68]	; 0x44
 800070a:	f403 4380 	and.w	r3, r3, #16384	; 0x4000
 800070e:	607b      	str	r3, [r7, #4]
 8000710:	687b      	ldr	r3, [r7, #4]
  __HAL_RCC_PWR_CLK_ENABLE();
 8000712:	2300      	movs	r3, #0
 8000714:	603b      	str	r3, [r7, #0]
 8000716:	4b09      	ldr	r3, [pc, #36]	; (800073c <HAL_MspInit+0x4c>)
 8000718:	6c1b      	ldr	r3, [r3, #64]	; 0x40
 800071a:	4a08      	ldr	r2, [pc, #32]	; (800073c <HAL_MspInit+0x4c>)
 800071c:	f043 5380 	orr.w	r3, r3, #268435456	; 0x10000000
 8000720:	6413      	str	r3, [r2, #64]	; 0x40
 8000722:	4b06      	ldr	r3, [pc, #24]	; (800073c <HAL_MspInit+0x4c>)
 8000724:	6c1b      	ldr	r3, [r3, #64]	; 0x40
 8000726:	f003 5380 	and.w	r3, r3, #268435456	; 0x10000000
 800072a:	603b      	str	r3, [r7, #0]
 800072c:	683b      	ldr	r3, [r7, #0]

  HAL_NVIC_SetPriorityGrouping(NVIC_PRIORITYGROUP_0);
 800072e:	2007      	movs	r0, #7
 8000730:	f000 f9e5 	bl	8000afe <HAL_NVIC_SetPriorityGrouping>
  /* System interrupt init*/

  /* USER CODE BEGIN MspInit 1 */

  /* USER CODE END MspInit 1 */
}
 8000734:	bf00      	nop
 8000736:	3708      	adds	r7, #8
 8000738:	46bd      	mov	sp, r7
 800073a:	bd80      	pop	{r7, pc}
 800073c:	40023800 	.word	0x40023800

08000740 <HAL_InitTick>:
  *         reset by HAL_Init() or at any time when clock is configured, by HAL_RCC_ClockConfig().
  * @param  TickPriority: Tick interrupt priority.
  * @retval HAL status
  */
HAL_StatusTypeDef HAL_InitTick(uint32_t TickPriority)
{
 8000740:	b580      	push	{r7, lr}
 8000742:	b08c      	sub	sp, #48	; 0x30
 8000744:	af00      	add	r7, sp, #0
 8000746:	6078      	str	r0, [r7, #4]
  RCC_ClkInitTypeDef    clkconfig;
  uint32_t              uwTimclock = 0;
 8000748:	2300      	movs	r3, #0
 800074a:	62fb      	str	r3, [r7, #44]	; 0x2c
  uint32_t              uwPrescalerValue = 0;
 800074c:	2300      	movs	r3, #0
 800074e:	62bb      	str	r3, [r7, #40]	; 0x28
  uint32_t              pFLatency;
  /*Configure the TIM1 IRQ priority */
  HAL_NVIC_SetPriority(TIM1_UP_TIM10_IRQn, TickPriority ,0);
 8000750:	2200      	movs	r2, #0
 8000752:	6879      	ldr	r1, [r7, #4]
 8000754:	2019      	movs	r0, #25
 8000756:	f000 f9dd 	bl	8000b14 <HAL_NVIC_SetPriority>

  /* Enable the TIM1 global Interrupt */
  HAL_NVIC_EnableIRQ(TIM1_UP_TIM10_IRQn);
 800075a:	2019      	movs	r0, #25
 800075c:	f000 f9f6 	bl	8000b4c <HAL_NVIC_EnableIRQ>

  /* Enable TIM1 clock */
  __HAL_RCC_TIM1_CLK_ENABLE();
 8000760:	2300      	movs	r3, #0
 8000762:	60fb      	str	r3, [r7, #12]
 8000764:	4b1f      	ldr	r3, [pc, #124]	; (80007e4 <HAL_InitTick+0xa4>)
 8000766:	6c5b      	ldr	r3, [r3, #68]	; 0x44
 8000768:	4a1e      	ldr	r2, [pc, #120]	; (80007e4 <HAL_InitTick+0xa4>)
 800076a:	f043 0301 	orr.w	r3, r3, #1
 800076e:	6453      	str	r3, [r2, #68]	; 0x44
 8000770:	4b1c      	ldr	r3, [pc, #112]	; (80007e4 <HAL_InitTick+0xa4>)
 8000772:	6c5b      	ldr	r3, [r3, #68]	; 0x44
 8000774:	f003 0301 	and.w	r3, r3, #1
 8000778:	60fb      	str	r3, [r7, #12]
 800077a:	68fb      	ldr	r3, [r7, #12]

  /* Get clock configuration */
  HAL_RCC_GetClockConfig(&clkconfig, &pFLatency);
 800077c:	f107 0210 	add.w	r2, r7, #16
 8000780:	f107 0314 	add.w	r3, r7, #20
 8000784:	4611      	mov	r1, r2
 8000786:	4618      	mov	r0, r3
 8000788:	f001 f804 	bl	8001794 <HAL_RCC_GetClockConfig>

  /* Compute TIM1 clock */
  uwTimclock = 2*HAL_RCC_GetPCLK2Freq();
 800078c:	f000 ffee 	bl	800176c <HAL_RCC_GetPCLK2Freq>
 8000790:	4603      	mov	r3, r0
 8000792:	005b      	lsls	r3, r3, #1
 8000794:	62fb      	str	r3, [r7, #44]	; 0x2c
  /* Compute the prescaler value to have TIM1 counter clock equal to 1MHz */
  uwPrescalerValue = (uint32_t) ((uwTimclock / 1000000U) - 1U);
 8000796:	6afb      	ldr	r3, [r7, #44]	; 0x2c
 8000798:	4a13      	ldr	r2, [pc, #76]	; (80007e8 <HAL_InitTick+0xa8>)
 800079a:	fba2 2303 	umull	r2, r3, r2, r3
 800079e:	0c9b      	lsrs	r3, r3, #18
 80007a0:	3b01      	subs	r3, #1
 80007a2:	62bb      	str	r3, [r7, #40]	; 0x28

  /* Initialize TIM1 */
  htim1.Instance = TIM1;
 80007a4:	4b11      	ldr	r3, [pc, #68]	; (80007ec <HAL_InitTick+0xac>)
 80007a6:	4a12      	ldr	r2, [pc, #72]	; (80007f0 <HAL_InitTick+0xb0>)
 80007a8:	601a      	str	r2, [r3, #0]
  + Period = [(TIM1CLK/1000) - 1]. to have a (1/1000) s time base.
  + Prescaler = (uwTimclock/1000000 - 1) to have a 1MHz counter clock.
  + ClockDivision = 0
  + Counter direction = Up
  */
  htim1.Init.Period = (1000000U / 1000U) - 1U;
 80007aa:	4b10      	ldr	r3, [pc, #64]	; (80007ec <HAL_InitTick+0xac>)
 80007ac:	f240 32e7 	movw	r2, #999	; 0x3e7
 80007b0:	60da      	str	r2, [r3, #12]
  htim1.Init.Prescaler = uwPrescalerValue;
 80007b2:	4a0e      	ldr	r2, [pc, #56]	; (80007ec <HAL_InitTick+0xac>)
 80007b4:	6abb      	ldr	r3, [r7, #40]	; 0x28
 80007b6:	6053      	str	r3, [r2, #4]
  htim1.Init.ClockDivision = 0;
 80007b8:	4b0c      	ldr	r3, [pc, #48]	; (80007ec <HAL_InitTick+0xac>)
 80007ba:	2200      	movs	r2, #0
 80007bc:	611a      	str	r2, [r3, #16]
  htim1.Init.CounterMode = TIM_COUNTERMODE_UP;
 80007be:	4b0b      	ldr	r3, [pc, #44]	; (80007ec <HAL_InitTick+0xac>)
 80007c0:	2200      	movs	r2, #0
 80007c2:	609a      	str	r2, [r3, #8]

  if(HAL_TIM_Base_Init(&htim1) == HAL_OK)
 80007c4:	4809      	ldr	r0, [pc, #36]	; (80007ec <HAL_InitTick+0xac>)
 80007c6:	f001 f817 	bl	80017f8 <HAL_TIM_Base_Init>
 80007ca:	4603      	mov	r3, r0
 80007cc:	2b00      	cmp	r3, #0
 80007ce:	d104      	bne.n	80007da <HAL_InitTick+0x9a>
  {
    /* Start the TIM time Base generation in interrupt mode */
    return HAL_TIM_Base_Start_IT(&htim1);
 80007d0:	4806      	ldr	r0, [pc, #24]	; (80007ec <HAL_InitTick+0xac>)
 80007d2:	f001 f86b 	bl	80018ac <HAL_TIM_Base_Start_IT>
 80007d6:	4603      	mov	r3, r0
 80007d8:	e000      	b.n	80007dc <HAL_InitTick+0x9c>
  }

  /* Return function status */
  return HAL_ERROR;
 80007da:	2301      	movs	r3, #1
}
 80007dc:	4618      	mov	r0, r3
 80007de:	3730      	adds	r7, #48	; 0x30
 80007e0:	46bd      	mov	sp, r7
 80007e2:	bd80      	pop	{r7, pc}
 80007e4:	40023800 	.word	0x40023800
 80007e8:	431bde83 	.word	0x431bde83
 80007ec:	20000028 	.word	0x20000028
 80007f0:	40010000 	.word	0x40010000

080007f4 <NMI_Handler>:
/******************************************************************************/
/**
  * @brief This function handles Non maskable interrupt.
  */
void NMI_Handler(void)
{
 80007f4:	b480      	push	{r7}
 80007f6:	af00      	add	r7, sp, #0
  /* USER CODE BEGIN NonMaskableInt_IRQn 0 */

  /* USER CODE END NonMaskableInt_IRQn 0 */
  /* USER CODE BEGIN NonMaskableInt_IRQn 1 */
  while (1)
 80007f8:	e7fe      	b.n	80007f8 <NMI_Handler+0x4>

080007fa <HardFault_Handler>:

/**
  * @brief This function handles Hard fault interrupt.
  */
void HardFault_Handler(void)
{
 80007fa:	b480      	push	{r7}
 80007fc:	af00      	add	r7, sp, #0
  /* USER CODE BEGIN HardFault_IRQn 0 */

  /* USER CODE END HardFault_IRQn 0 */
  while (1)
 80007fe:	e7fe      	b.n	80007fe <HardFault_Handler+0x4>

08000800 <MemManage_Handler>:

/**
  * @brief This function handles Memory management fault.
  */
void MemManage_Handler(void)
{
 8000800:	b480      	push	{r7}
 8000802:	af00      	add	r7, sp, #0
  /* USER CODE BEGIN MemoryManagement_IRQn 0 */

  /* USER CODE END MemoryManagement_IRQn 0 */
  while (1)
 8000804:	e7fe      	b.n	8000804 <MemManage_Handler+0x4>

08000806 <BusFault_Handler>:

/**
  * @brief This function handles Pre-fetch fault, memory access fault.
  */
void BusFault_Handler(void)
{
 8000806:	b480      	push	{r7}
 8000808:	af00      	add	r7, sp, #0
  /* USER CODE BEGIN BusFault_IRQn 0 */

  /* USER CODE END BusFault_IRQn 0 */
  while (1)
 800080a:	e7fe      	b.n	800080a <BusFault_Handler+0x4>

0800080c <UsageFault_Handler>:

/**
  * @brief This function handles Undefined instruction or illegal state.
  */
void UsageFault_Handler(void)
{
 800080c:	b480      	push	{r7}
 800080e:	af00      	add	r7, sp, #0
  /* USER CODE BEGIN UsageFault_IRQn 0 */

  /* USER CODE END UsageFault_IRQn 0 */
  while (1)
 8000810:	e7fe      	b.n	8000810 <UsageFault_Handler+0x4>

08000812 <SVC_Handler>:

/**
  * @brief This function handles System service call via SWI instruction.
  */
void SVC_Handler(void)
{
 8000812:	b480      	push	{r7}
 8000814:	af00      	add	r7, sp, #0

  /* USER CODE END SVCall_IRQn 0 */
  /* USER CODE BEGIN SVCall_IRQn 1 */

  /* USER CODE END SVCall_IRQn 1 */
}
 8000816:	bf00      	nop
 8000818:	46bd      	mov	sp, r7
 800081a:	f85d 7b04 	ldr.w	r7, [sp], #4
 800081e:	4770      	bx	lr

08000820 <DebugMon_Handler>:

/**
  * @brief This function handles Debug monitor.
  */
void DebugMon_Handler(void)
{
 8000820:	b480      	push	{r7}
 8000822:	af00      	add	r7, sp, #0

  /* USER CODE END DebugMonitor_IRQn 0 */
  /* USER CODE BEGIN DebugMonitor_IRQn 1 */

  /* USER CODE END DebugMonitor_IRQn 1 */
}
 8000824:	bf00      	nop
 8000826:	46bd      	mov	sp, r7
 8000828:	f85d 7b04 	ldr.w	r7, [sp], #4
 800082c:	4770      	bx	lr

0800082e <PendSV_Handler>:

/**
  * @brief This function handles Pendable request for system service.
  */
void PendSV_Handler(void)
{
 800082e:	b480      	push	{r7}
 8000830:	af00      	add	r7, sp, #0

  /* USER CODE END PendSV_IRQn 0 */
  /* USER CODE BEGIN PendSV_IRQn 1 */

  /* USER CODE END PendSV_IRQn 1 */
}
 8000832:	bf00      	nop
 8000834:	46bd      	mov	sp, r7
 8000836:	f85d 7b04 	ldr.w	r7, [sp], #4
 800083a:	4770      	bx	lr

0800083c <SysTick_Handler>:

/**
  * @brief This function handles System tick timer.
  */
void SysTick_Handler(void)
{
 800083c:	b480      	push	{r7}
 800083e:	af00      	add	r7, sp, #0
  /* USER CODE END SysTick_IRQn 0 */

  /* USER CODE BEGIN SysTick_IRQn 1 */

  /* USER CODE END SysTick_IRQn 1 */
}
 8000840:	bf00      	nop
 8000842:	46bd      	mov	sp, r7
 8000844:	f85d 7b04 	ldr.w	r7, [sp], #4
 8000848:	4770      	bx	lr
	...

0800084c <TIM1_UP_TIM10_IRQHandler>:

/**
  * @brief This function handles TIM1 update interrupt and TIM10 global interrupt.
  */
void TIM1_UP_TIM10_IRQHandler(void)
{
 800084c:	b580      	push	{r7, lr}
 800084e:	af00      	add	r7, sp, #0
  /* USER CODE BEGIN TIM1_UP_TIM10_IRQn 0 */

  /* USER CODE END TIM1_UP_TIM10_IRQn 0 */
  HAL_TIM_IRQHandler(&htim1);
 8000850:	4802      	ldr	r0, [pc, #8]	; (800085c <TIM1_UP_TIM10_IRQHandler+0x10>)
 8000852:	f001 f89b 	bl	800198c <HAL_TIM_IRQHandler>
  /* USER CODE BEGIN TIM1_UP_TIM10_IRQn 1 */

  /* USER CODE END TIM1_UP_TIM10_IRQn 1 */
}
 8000856:	bf00      	nop
 8000858:	bd80      	pop	{r7, pc}
 800085a:	bf00      	nop
 800085c:	20000028 	.word	0x20000028

08000860 <SystemInit>:
  *         configuration.
  * @param  None
  * @retval None
  */
void SystemInit(void)
{
 8000860:	b480      	push	{r7}
 8000862:	af00      	add	r7, sp, #0
  /* FPU settings ------------------------------------------------------------*/
  #if (__FPU_PRESENT == 1) && (__FPU_USED == 1)
    SCB->CPACR |= ((3UL << 10*2)|(3UL << 11*2));  /* set CP10 and CP11 Full Access */
 8000864:	4b06      	ldr	r3, [pc, #24]	; (8000880 <SystemInit+0x20>)
 8000866:	f8d3 3088 	ldr.w	r3, [r3, #136]	; 0x88
 800086a:	4a05      	ldr	r2, [pc, #20]	; (8000880 <SystemInit+0x20>)
 800086c:	f443 0370 	orr.w	r3, r3, #15728640	; 0xf00000
 8000870:	f8c2 3088 	str.w	r3, [r2, #136]	; 0x88

  /* Configure the Vector Table location -------------------------------------*/
#if defined(USER_VECT_TAB_ADDRESS)
  SCB->VTOR = VECT_TAB_BASE_ADDRESS | VECT_TAB_OFFSET; /* Vector Table Relocation in Internal SRAM */
#endif /* USER_VECT_TAB_ADDRESS */
}
 8000874:	bf00      	nop
 8000876:	46bd      	mov	sp, r7
 8000878:	f85d 7b04 	ldr.w	r7, [sp], #4
 800087c:	4770      	bx	lr
 800087e:	bf00      	nop
 8000880:	e000ed00 	.word	0xe000ed00

08000884 <Reset_Handler>:

    .section  .text.Reset_Handler
  .weak  Reset_Handler
  .type  Reset_Handler, %function
Reset_Handler:  
  ldr   sp, =_estack     /* set stack pointer */
 8000884:	f8df d034 	ldr.w	sp, [pc, #52]	; 80008bc <LoopFillZerobss+0x12>

/* Copy the data segment initializers from flash to SRAM */  
  ldr r0, =_sdata
 8000888:	480d      	ldr	r0, [pc, #52]	; (80008c0 <LoopFillZerobss+0x16>)
  ldr r1, =_edata
 800088a:	490e      	ldr	r1, [pc, #56]	; (80008c4 <LoopFillZerobss+0x1a>)
  ldr r2, =_sidata
 800088c:	4a0e      	ldr	r2, [pc, #56]	; (80008c8 <LoopFillZerobss+0x1e>)
  movs r3, #0
 800088e:	2300      	movs	r3, #0
  b LoopCopyDataInit
 8000890:	e002      	b.n	8000898 <LoopCopyDataInit>

08000892 <CopyDataInit>:

CopyDataInit:
  ldr r4, [r2, r3]
 8000892:	58d4      	ldr	r4, [r2, r3]
  str r4, [r0, r3]
 8000894:	50c4      	str	r4, [r0, r3]
  adds r3, r3, #4
 8000896:	3304      	adds	r3, #4

08000898 <LoopCopyDataInit>:

LoopCopyDataInit:
  adds r4, r0, r3
 8000898:	18c4      	adds	r4, r0, r3
  cmp r4, r1
 800089a:	428c      	cmp	r4, r1
  bcc CopyDataInit
 800089c:	d3f9      	bcc.n	8000892 <CopyDataInit>
  
/* Zero fill the bss segment. */
  ldr r2, =_sbss
 800089e:	4a0b      	ldr	r2, [pc, #44]	; (80008cc <LoopFillZerobss+0x22>)
  ldr r4, =_ebss
 80008a0:	4c0b      	ldr	r4, [pc, #44]	; (80008d0 <LoopFillZerobss+0x26>)
  movs r3, #0
 80008a2:	2300      	movs	r3, #0
  b LoopFillZerobss
 80008a4:	e001      	b.n	80008aa <LoopFillZerobss>

080008a6 <FillZerobss>:

FillZerobss:
  str  r3, [r2]
 80008a6:	6013      	str	r3, [r2, #0]
  adds r2, r2, #4
 80008a8:	3204      	adds	r2, #4

080008aa <LoopFillZerobss>:

LoopFillZerobss:
  cmp r2, r4
 80008aa:	42a2      	cmp	r2, r4
  bcc FillZerobss
 80008ac:	d3fb      	bcc.n	80008a6 <FillZerobss>

/* Call the clock system intitialization function.*/
  bl  SystemInit   
 80008ae:	f7ff ffd7 	bl	8000860 <SystemInit>
/* Call static constructors */
    bl __libc_init_array
 80008b2:	f001 fa4f 	bl	8001d54 <__libc_init_array>
/* Call the application's entry point.*/
  bl  main
 80008b6:	f7ff fe03 	bl	80004c0 <main>
  bx  lr    
 80008ba:	4770      	bx	lr
  ldr   sp, =_estack     /* set stack pointer */
 80008bc:	20020000 	.word	0x20020000
  ldr r0, =_sdata
 80008c0:	20000000 	.word	0x20000000
  ldr r1, =_edata
 80008c4:	2000000c 	.word	0x2000000c
  ldr r2, =_sidata
 80008c8:	08001dec 	.word	0x08001dec
  ldr r2, =_sbss
 80008cc:	2000000c 	.word	0x2000000c
  ldr r4, =_ebss
 80008d0:	20000074 	.word	0x20000074

080008d4 <ADC_IRQHandler>:
 * @retval None       
*/
    .section  .text.Default_Handler,"ax",%progbits
Default_Handler:
Infinite_Loop:
  b  Infinite_Loop
 80008d4:	e7fe      	b.n	80008d4 <ADC_IRQHandler>
	...

080008d8 <HAL_Init>:
  *         need to ensure that the SysTick time base is always set to 1 millisecond
  *         to have correct HAL operation.
  * @retval HAL status
  */
HAL_StatusTypeDef HAL_Init(void)
{
 80008d8:	b580      	push	{r7, lr}
 80008da:	af00      	add	r7, sp, #0
  /* Configure Flash prefetch, Instruction cache, Data cache */ 
#if (INSTRUCTION_CACHE_ENABLE != 0U)
  __HAL_FLASH_INSTRUCTION_CACHE_ENABLE();
 80008dc:	4b0e      	ldr	r3, [pc, #56]	; (8000918 <HAL_Init+0x40>)
 80008de:	681b      	ldr	r3, [r3, #0]
 80008e0:	4a0d      	ldr	r2, [pc, #52]	; (8000918 <HAL_Init+0x40>)
 80008e2:	f443 7300 	orr.w	r3, r3, #512	; 0x200
 80008e6:	6013      	str	r3, [r2, #0]
#endif /* INSTRUCTION_CACHE_ENABLE */

#if (DATA_CACHE_ENABLE != 0U)
  __HAL_FLASH_DATA_CACHE_ENABLE();
 80008e8:	4b0b      	ldr	r3, [pc, #44]	; (8000918 <HAL_Init+0x40>)
 80008ea:	681b      	ldr	r3, [r3, #0]
 80008ec:	4a0a      	ldr	r2, [pc, #40]	; (8000918 <HAL_Init+0x40>)
 80008ee:	f443 6380 	orr.w	r3, r3, #1024	; 0x400
 80008f2:	6013      	str	r3, [r2, #0]
#endif /* DATA_CACHE_ENABLE */

#if (PREFETCH_ENABLE != 0U)
  __HAL_FLASH_PREFETCH_BUFFER_ENABLE();
 80008f4:	4b08      	ldr	r3, [pc, #32]	; (8000918 <HAL_Init+0x40>)
 80008f6:	681b      	ldr	r3, [r3, #0]
 80008f8:	4a07      	ldr	r2, [pc, #28]	; (8000918 <HAL_Init+0x40>)
 80008fa:	f443 7380 	orr.w	r3, r3, #256	; 0x100
 80008fe:	6013      	str	r3, [r2, #0]
#endif /* PREFETCH_ENABLE */

  /* Set Interrupt Group Priority */
  HAL_NVIC_SetPriorityGrouping(NVIC_PRIORITYGROUP_4);
 8000900:	2003      	movs	r0, #3
 8000902:	f000 f8fc 	bl	8000afe <HAL_NVIC_SetPriorityGrouping>

  /* Use systick as time base source and configure 1ms tick (default clock after Reset is HSI) */
  HAL_InitTick(TICK_INT_PRIORITY);
 8000906:	2000      	movs	r0, #0
 8000908:	f7ff ff1a 	bl	8000740 <HAL_InitTick>

  /* Init the low level hardware */
  HAL_MspInit();
 800090c:	f7ff fef0 	bl	80006f0 <HAL_MspInit>

  /* Return function status */
  return HAL_OK;
 8000910:	2300      	movs	r3, #0
}
 8000912:	4618      	mov	r0, r3
 8000914:	bd80      	pop	{r7, pc}
 8000916:	bf00      	nop
 8000918:	40023c00 	.word	0x40023c00

0800091c <HAL_IncTick>:
 * @note This function is declared as __weak to be overwritten in case of other 
  *      implementations in user file.
  * @retval None
  */
__weak void HAL_IncTick(void)
{
 800091c:	b480      	push	{r7}
 800091e:	af00      	add	r7, sp, #0
  uwTick += uwTickFreq;
 8000920:	4b06      	ldr	r3, [pc, #24]	; (800093c <HAL_IncTick+0x20>)
 8000922:	781b      	ldrb	r3, [r3, #0]
 8000924:	461a      	mov	r2, r3
 8000926:	4b06      	ldr	r3, [pc, #24]	; (8000940 <HAL_IncTick+0x24>)
 8000928:	681b      	ldr	r3, [r3, #0]
 800092a:	4413      	add	r3, r2
 800092c:	4a04      	ldr	r2, [pc, #16]	; (8000940 <HAL_IncTick+0x24>)
 800092e:	6013      	str	r3, [r2, #0]
}
 8000930:	bf00      	nop
 8000932:	46bd      	mov	sp, r7
 8000934:	f85d 7b04 	ldr.w	r7, [sp], #4
 8000938:	4770      	bx	lr
 800093a:	bf00      	nop
 800093c:	20000008 	.word	0x20000008
 8000940:	20000070 	.word	0x20000070

08000944 <HAL_GetTick>:
  * @note This function is declared as __weak to be overwritten in case of other 
  *       implementations in user file.
  * @retval tick value
  */
__weak uint32_t HAL_GetTick(void)
{
 8000944:	b480      	push	{r7}
 8000946:	af00      	add	r7, sp, #0
  return uwTick;
 8000948:	4b03      	ldr	r3, [pc, #12]	; (8000958 <HAL_GetTick+0x14>)
 800094a:	681b      	ldr	r3, [r3, #0]
}
 800094c:	4618      	mov	r0, r3
 800094e:	46bd      	mov	sp, r7
 8000950:	f85d 7b04 	ldr.w	r7, [sp], #4
 8000954:	4770      	bx	lr
 8000956:	bf00      	nop
 8000958:	20000070 	.word	0x20000070

0800095c <HAL_Delay>:
  *       implementations in user file.
  * @param Delay specifies the delay time length, in milliseconds.
  * @retval None
  */
__weak void HAL_Delay(uint32_t Delay)
{
 800095c:	b580      	push	{r7, lr}
 800095e:	b084      	sub	sp, #16
 8000960:	af00      	add	r7, sp, #0
 8000962:	6078      	str	r0, [r7, #4]
  uint32_t tickstart = HAL_GetTick();
 8000964:	f7ff ffee 	bl	8000944 <HAL_GetTick>
 8000968:	60b8      	str	r0, [r7, #8]
  uint32_t wait = Delay;
 800096a:	687b      	ldr	r3, [r7, #4]
 800096c:	60fb      	str	r3, [r7, #12]

  /* Add a freq to guarantee minimum wait */
  if (wait < HAL_MAX_DELAY)
 800096e:	68fb      	ldr	r3, [r7, #12]
 8000970:	f1b3 3fff 	cmp.w	r3, #4294967295
 8000974:	d005      	beq.n	8000982 <HAL_Delay+0x26>
  {
    wait += (uint32_t)(uwTickFreq);
 8000976:	4b0a      	ldr	r3, [pc, #40]	; (80009a0 <HAL_Delay+0x44>)
 8000978:	781b      	ldrb	r3, [r3, #0]
 800097a:	461a      	mov	r2, r3
 800097c:	68fb      	ldr	r3, [r7, #12]
 800097e:	4413      	add	r3, r2
 8000980:	60fb      	str	r3, [r7, #12]
  }

  while((HAL_GetTick() - tickstart) < wait)
 8000982:	bf00      	nop
 8000984:	f7ff ffde 	bl	8000944 <HAL_GetTick>
 8000988:	4602      	mov	r2, r0
 800098a:	68bb      	ldr	r3, [r7, #8]
 800098c:	1ad3      	subs	r3, r2, r3
 800098e:	68fa      	ldr	r2, [r7, #12]
 8000990:	429a      	cmp	r2, r3
 8000992:	d8f7      	bhi.n	8000984 <HAL_Delay+0x28>
  {
  }
}
 8000994:	bf00      	nop
 8000996:	bf00      	nop
 8000998:	3710      	adds	r7, #16
 800099a:	46bd      	mov	sp, r7
 800099c:	bd80      	pop	{r7, pc}
 800099e:	bf00      	nop
 80009a0:	20000008 	.word	0x20000008

080009a4 <__NVIC_SetPriorityGrouping>:
           In case of a conflict between priority grouping and available
           priority bits (__NVIC_PRIO_BITS), the smallest possible priority group is set.
  \param [in]      PriorityGroup  Priority grouping field.
 */
__STATIC_INLINE void __NVIC_SetPriorityGrouping(uint32_t PriorityGroup)
{
 80009a4:	b480      	push	{r7}
 80009a6:	b085      	sub	sp, #20
 80009a8:	af00      	add	r7, sp, #0
 80009aa:	6078      	str	r0, [r7, #4]
  uint32_t reg_value;
  uint32_t PriorityGroupTmp = (PriorityGroup & (uint32_t)0x07UL);             /* only values 0..7 are used          */
 80009ac:	687b      	ldr	r3, [r7, #4]
 80009ae:	f003 0307 	and.w	r3, r3, #7
 80009b2:	60fb      	str	r3, [r7, #12]

  reg_value  =  SCB->AIRCR;                                                   /* read old register configuration    */
 80009b4:	4b0c      	ldr	r3, [pc, #48]	; (80009e8 <__NVIC_SetPriorityGrouping+0x44>)
 80009b6:	68db      	ldr	r3, [r3, #12]
 80009b8:	60bb      	str	r3, [r7, #8]
  reg_value &= ~((uint32_t)(SCB_AIRCR_VECTKEY_Msk | SCB_AIRCR_PRIGROUP_Msk)); /* clear bits to change               */
 80009ba:	68ba      	ldr	r2, [r7, #8]
 80009bc:	f64f 03ff 	movw	r3, #63743	; 0xf8ff
 80009c0:	4013      	ands	r3, r2
 80009c2:	60bb      	str	r3, [r7, #8]
  reg_value  =  (reg_value                                   |
                ((uint32_t)0x5FAUL << SCB_AIRCR_VECTKEY_Pos) |
                (PriorityGroupTmp << SCB_AIRCR_PRIGROUP_Pos)  );              /* Insert write key and priority group */
 80009c4:	68fb      	ldr	r3, [r7, #12]
 80009c6:	021a      	lsls	r2, r3, #8
                ((uint32_t)0x5FAUL << SCB_AIRCR_VECTKEY_Pos) |
 80009c8:	68bb      	ldr	r3, [r7, #8]
 80009ca:	4313      	orrs	r3, r2
  reg_value  =  (reg_value                                   |
 80009cc:	f043 63bf 	orr.w	r3, r3, #100139008	; 0x5f80000
 80009d0:	f443 3300 	orr.w	r3, r3, #131072	; 0x20000
 80009d4:	60bb      	str	r3, [r7, #8]
  SCB->AIRCR =  reg_value;
 80009d6:	4a04      	ldr	r2, [pc, #16]	; (80009e8 <__NVIC_SetPriorityGrouping+0x44>)
 80009d8:	68bb      	ldr	r3, [r7, #8]
 80009da:	60d3      	str	r3, [r2, #12]
}
 80009dc:	bf00      	nop
 80009de:	3714      	adds	r7, #20
 80009e0:	46bd      	mov	sp, r7
 80009e2:	f85d 7b04 	ldr.w	r7, [sp], #4
 80009e6:	4770      	bx	lr
 80009e8:	e000ed00 	.word	0xe000ed00

080009ec <__NVIC_GetPriorityGrouping>:
  \brief   Get Priority Grouping
  \details Reads the priority grouping field from the NVIC Interrupt Controller.
  \return                Priority grouping field (SCB->AIRCR [10:8] PRIGROUP field).
 */
__STATIC_INLINE uint32_t __NVIC_GetPriorityGrouping(void)
{
 80009ec:	b480      	push	{r7}
 80009ee:	af00      	add	r7, sp, #0
  return ((uint32_t)((SCB->AIRCR & SCB_AIRCR_PRIGROUP_Msk) >> SCB_AIRCR_PRIGROUP_Pos));
 80009f0:	4b04      	ldr	r3, [pc, #16]	; (8000a04 <__NVIC_GetPriorityGrouping+0x18>)
 80009f2:	68db      	ldr	r3, [r3, #12]
 80009f4:	0a1b      	lsrs	r3, r3, #8
 80009f6:	f003 0307 	and.w	r3, r3, #7
}
 80009fa:	4618      	mov	r0, r3
 80009fc:	46bd      	mov	sp, r7
 80009fe:	f85d 7b04 	ldr.w	r7, [sp], #4
 8000a02:	4770      	bx	lr
 8000a04:	e000ed00 	.word	0xe000ed00

08000a08 <__NVIC_EnableIRQ>:
  \details Enables a device specific interrupt in the NVIC interrupt controller.
  \param [in]      IRQn  Device specific interrupt number.
  \note    IRQn must not be negative.
 */
__STATIC_INLINE void __NVIC_EnableIRQ(IRQn_Type IRQn)
{
 8000a08:	b480      	push	{r7}
 8000a0a:	b083      	sub	sp, #12
 8000a0c:	af00      	add	r7, sp, #0
 8000a0e:	4603      	mov	r3, r0
 8000a10:	71fb      	strb	r3, [r7, #7]
  if ((int32_t)(IRQn) >= 0)
 8000a12:	f997 3007 	ldrsb.w	r3, [r7, #7]
 8000a16:	2b00      	cmp	r3, #0
 8000a18:	db0b      	blt.n	8000a32 <__NVIC_EnableIRQ+0x2a>
  {
    NVIC->ISER[(((uint32_t)IRQn) >> 5UL)] = (uint32_t)(1UL << (((uint32_t)IRQn) & 0x1FUL));
 8000a1a:	79fb      	ldrb	r3, [r7, #7]
 8000a1c:	f003 021f 	and.w	r2, r3, #31
 8000a20:	4907      	ldr	r1, [pc, #28]	; (8000a40 <__NVIC_EnableIRQ+0x38>)
 8000a22:	f997 3007 	ldrsb.w	r3, [r7, #7]
 8000a26:	095b      	lsrs	r3, r3, #5
 8000a28:	2001      	movs	r0, #1
 8000a2a:	fa00 f202 	lsl.w	r2, r0, r2
 8000a2e:	f841 2023 	str.w	r2, [r1, r3, lsl #2]
  }
}
 8000a32:	bf00      	nop
 8000a34:	370c      	adds	r7, #12
 8000a36:	46bd      	mov	sp, r7
 8000a38:	f85d 7b04 	ldr.w	r7, [sp], #4
 8000a3c:	4770      	bx	lr
 8000a3e:	bf00      	nop
 8000a40:	e000e100 	.word	0xe000e100

08000a44 <__NVIC_SetPriority>:
  \param [in]      IRQn  Interrupt number.
  \param [in]  priority  Priority to set.
  \note    The priority cannot be set for every processor exception.
 */
__STATIC_INLINE void __NVIC_SetPriority(IRQn_Type IRQn, uint32_t priority)
{
 8000a44:	b480      	push	{r7}
 8000a46:	b083      	sub	sp, #12
 8000a48:	af00      	add	r7, sp, #0
 8000a4a:	4603      	mov	r3, r0
 8000a4c:	6039      	str	r1, [r7, #0]
 8000a4e:	71fb      	strb	r3, [r7, #7]
  if ((int32_t)(IRQn) >= 0)
 8000a50:	f997 3007 	ldrsb.w	r3, [r7, #7]
 8000a54:	2b00      	cmp	r3, #0
 8000a56:	db0a      	blt.n	8000a6e <__NVIC_SetPriority+0x2a>
  {
    NVIC->IP[((uint32_t)IRQn)]               = (uint8_t)((priority << (8U - __NVIC_PRIO_BITS)) & (uint32_t)0xFFUL);
 8000a58:	683b      	ldr	r3, [r7, #0]
 8000a5a:	b2da      	uxtb	r2, r3
 8000a5c:	490c      	ldr	r1, [pc, #48]	; (8000a90 <__NVIC_SetPriority+0x4c>)
 8000a5e:	f997 3007 	ldrsb.w	r3, [r7, #7]
 8000a62:	0112      	lsls	r2, r2, #4
 8000a64:	b2d2      	uxtb	r2, r2
 8000a66:	440b      	add	r3, r1
 8000a68:	f883 2300 	strb.w	r2, [r3, #768]	; 0x300
  }
  else
  {
    SCB->SHP[(((uint32_t)IRQn) & 0xFUL)-4UL] = (uint8_t)((priority << (8U - __NVIC_PRIO_BITS)) & (uint32_t)0xFFUL);
  }
}
 8000a6c:	e00a      	b.n	8000a84 <__NVIC_SetPriority+0x40>
    SCB->SHP[(((uint32_t)IRQn) & 0xFUL)-4UL] = (uint8_t)((priority << (8U - __NVIC_PRIO_BITS)) & (uint32_t)0xFFUL);
 8000a6e:	683b      	ldr	r3, [r7, #0]
 8000a70:	b2da      	uxtb	r2, r3
 8000a72:	4908      	ldr	r1, [pc, #32]	; (8000a94 <__NVIC_SetPriority+0x50>)
 8000a74:	79fb      	ldrb	r3, [r7, #7]
 8000a76:	f003 030f 	and.w	r3, r3, #15
 8000a7a:	3b04      	subs	r3, #4
 8000a7c:	0112      	lsls	r2, r2, #4
 8000a7e:	b2d2      	uxtb	r2, r2
 8000a80:	440b      	add	r3, r1
 8000a82:	761a      	strb	r2, [r3, #24]
}
 8000a84:	bf00      	nop
 8000a86:	370c      	adds	r7, #12
 8000a88:	46bd      	mov	sp, r7
 8000a8a:	f85d 7b04 	ldr.w	r7, [sp], #4
 8000a8e:	4770      	bx	lr
 8000a90:	e000e100 	.word	0xe000e100
 8000a94:	e000ed00 	.word	0xe000ed00

08000a98 <NVIC_EncodePriority>:
  \param [in]   PreemptPriority  Preemptive priority value (starting from 0).
  \param [in]       SubPriority  Subpriority value (starting from 0).
  \return                        Encoded priority. Value can be used in the function \ref NVIC_SetPriority().
 */
__STATIC_INLINE uint32_t NVIC_EncodePriority (uint32_t PriorityGroup, uint32_t PreemptPriority, uint32_t SubPriority)
{
 8000a98:	b480      	push	{r7}
 8000a9a:	b089      	sub	sp, #36	; 0x24
 8000a9c:	af00      	add	r7, sp, #0
 8000a9e:	60f8      	str	r0, [r7, #12]
 8000aa0:	60b9      	str	r1, [r7, #8]
 8000aa2:	607a      	str	r2, [r7, #4]
  uint32_t PriorityGroupTmp = (PriorityGroup & (uint32_t)0x07UL);   /* only values 0..7 are used          */
 8000aa4:	68fb      	ldr	r3, [r7, #12]
 8000aa6:	f003 0307 	and.w	r3, r3, #7
 8000aaa:	61fb      	str	r3, [r7, #28]
  uint32_t PreemptPriorityBits;
  uint32_t SubPriorityBits;

  PreemptPriorityBits = ((7UL - PriorityGroupTmp) > (uint32_t)(__NVIC_PRIO_BITS)) ? (uint32_t)(__NVIC_PRIO_BITS) : (uint32_t)(7UL - PriorityGroupTmp);
 8000aac:	69fb      	ldr	r3, [r7, #28]
 8000aae:	f1c3 0307 	rsb	r3, r3, #7
 8000ab2:	2b04      	cmp	r3, #4
 8000ab4:	bf28      	it	cs
 8000ab6:	2304      	movcs	r3, #4
 8000ab8:	61bb      	str	r3, [r7, #24]
  SubPriorityBits     = ((PriorityGroupTmp + (uint32_t)(__NVIC_PRIO_BITS)) < (uint32_t)7UL) ? (uint32_t)0UL : (uint32_t)((PriorityGroupTmp - 7UL) + (uint32_t)(__NVIC_PRIO_BITS));
 8000aba:	69fb      	ldr	r3, [r7, #28]
 8000abc:	3304      	adds	r3, #4
 8000abe:	2b06      	cmp	r3, #6
 8000ac0:	d902      	bls.n	8000ac8 <NVIC_EncodePriority+0x30>
 8000ac2:	69fb      	ldr	r3, [r7, #28]
 8000ac4:	3b03      	subs	r3, #3
 8000ac6:	e000      	b.n	8000aca <NVIC_EncodePriority+0x32>
 8000ac8:	2300      	movs	r3, #0
 8000aca:	617b      	str	r3, [r7, #20]

  return (
           ((PreemptPriority & (uint32_t)((1UL << (PreemptPriorityBits)) - 1UL)) << SubPriorityBits) |
 8000acc:	f04f 32ff 	mov.w	r2, #4294967295
 8000ad0:	69bb      	ldr	r3, [r7, #24]
 8000ad2:	fa02 f303 	lsl.w	r3, r2, r3
 8000ad6:	43da      	mvns	r2, r3
 8000ad8:	68bb      	ldr	r3, [r7, #8]
 8000ada:	401a      	ands	r2, r3
 8000adc:	697b      	ldr	r3, [r7, #20]
 8000ade:	409a      	lsls	r2, r3
           ((SubPriority     & (uint32_t)((1UL << (SubPriorityBits    )) - 1UL)))
 8000ae0:	f04f 31ff 	mov.w	r1, #4294967295
 8000ae4:	697b      	ldr	r3, [r7, #20]
 8000ae6:	fa01 f303 	lsl.w	r3, r1, r3
 8000aea:	43d9      	mvns	r1, r3
 8000aec:	687b      	ldr	r3, [r7, #4]
 8000aee:	400b      	ands	r3, r1
           ((PreemptPriority & (uint32_t)((1UL << (PreemptPriorityBits)) - 1UL)) << SubPriorityBits) |
 8000af0:	4313      	orrs	r3, r2
         );
}
 8000af2:	4618      	mov	r0, r3
 8000af4:	3724      	adds	r7, #36	; 0x24
 8000af6:	46bd      	mov	sp, r7
 8000af8:	f85d 7b04 	ldr.w	r7, [sp], #4
 8000afc:	4770      	bx	lr

08000afe <HAL_NVIC_SetPriorityGrouping>:
  * @note   When the NVIC_PriorityGroup_0 is selected, IRQ preemption is no more possible. 
  *         The pending IRQ priority will be managed only by the subpriority. 
  * @retval None
  */
void HAL_NVIC_SetPriorityGrouping(uint32_t PriorityGroup)
{
 8000afe:	b580      	push	{r7, lr}
 8000b00:	b082      	sub	sp, #8
 8000b02:	af00      	add	r7, sp, #0
 8000b04:	6078      	str	r0, [r7, #4]
  /* Check the parameters */
  assert_param(IS_NVIC_PRIORITY_GROUP(PriorityGroup));
  
  /* Set the PRIGROUP[10:8] bits according to the PriorityGroup parameter value */
  NVIC_SetPriorityGrouping(PriorityGroup);
 8000b06:	6878      	ldr	r0, [r7, #4]
 8000b08:	f7ff ff4c 	bl	80009a4 <__NVIC_SetPriorityGrouping>
}
 8000b0c:	bf00      	nop
 8000b0e:	3708      	adds	r7, #8
 8000b10:	46bd      	mov	sp, r7
 8000b12:	bd80      	pop	{r7, pc}

08000b14 <HAL_NVIC_SetPriority>:
  *         This parameter can be a value between 0 and 15
  *         A lower priority value indicates a higher priority.          
  * @retval None
  */
void HAL_NVIC_SetPriority(IRQn_Type IRQn, uint32_t PreemptPriority, uint32_t SubPriority)
{ 
 8000b14:	b580      	push	{r7, lr}
 8000b16:	b086      	sub	sp, #24
 8000b18:	af00      	add	r7, sp, #0
 8000b1a:	4603      	mov	r3, r0
 8000b1c:	60b9      	str	r1, [r7, #8]
 8000b1e:	607a      	str	r2, [r7, #4]
 8000b20:	73fb      	strb	r3, [r7, #15]
  uint32_t prioritygroup = 0x00U;
 8000b22:	2300      	movs	r3, #0
 8000b24:	617b      	str	r3, [r7, #20]
  
  /* Check the parameters */
  assert_param(IS_NVIC_SUB_PRIORITY(SubPriority));
  assert_param(IS_NVIC_PREEMPTION_PRIORITY(PreemptPriority));
  
  prioritygroup = NVIC_GetPriorityGrouping();
 8000b26:	f7ff ff61 	bl	80009ec <__NVIC_GetPriorityGrouping>
 8000b2a:	6178      	str	r0, [r7, #20]
  
  NVIC_SetPriority(IRQn, NVIC_EncodePriority(prioritygroup, PreemptPriority, SubPriority));
 8000b2c:	687a      	ldr	r2, [r7, #4]
 8000b2e:	68b9      	ldr	r1, [r7, #8]
 8000b30:	6978      	ldr	r0, [r7, #20]
 8000b32:	f7ff ffb1 	bl	8000a98 <NVIC_EncodePriority>
 8000b36:	4602      	mov	r2, r0
 8000b38:	f997 300f 	ldrsb.w	r3, [r7, #15]
 8000b3c:	4611      	mov	r1, r2
 8000b3e:	4618      	mov	r0, r3
 8000b40:	f7ff ff80 	bl	8000a44 <__NVIC_SetPriority>
}
 8000b44:	bf00      	nop
 8000b46:	3718      	adds	r7, #24
 8000b48:	46bd      	mov	sp, r7
 8000b4a:	bd80      	pop	{r7, pc}

08000b4c <HAL_NVIC_EnableIRQ>:
  *         This parameter can be an enumerator of IRQn_Type enumeration
  *         (For the complete STM32 Devices IRQ Channels list, please refer to the appropriate CMSIS device file (stm32f4xxxx.h))
  * @retval None
  */
void HAL_NVIC_EnableIRQ(IRQn_Type IRQn)
{
 8000b4c:	b580      	push	{r7, lr}
 8000b4e:	b082      	sub	sp, #8
 8000b50:	af00      	add	r7, sp, #0
 8000b52:	4603      	mov	r3, r0
 8000b54:	71fb      	strb	r3, [r7, #7]
  /* Check the parameters */
  assert_param(IS_NVIC_DEVICE_IRQ(IRQn));
  
  /* Enable interrupt */
  NVIC_EnableIRQ(IRQn);
 8000b56:	f997 3007 	ldrsb.w	r3, [r7, #7]
 8000b5a:	4618      	mov	r0, r3
 8000b5c:	f7ff ff54 	bl	8000a08 <__NVIC_EnableIRQ>
}
 8000b60:	bf00      	nop
 8000b62:	3708      	adds	r7, #8
 8000b64:	46bd      	mov	sp, r7
 8000b66:	bd80      	pop	{r7, pc}

08000b68 <HAL_GPIO_Init>:
  * @param  GPIO_Init pointer to a GPIO_InitTypeDef structure that contains
  *         the configuration information for the specified GPIO peripheral.
  * @retval None
  */
void HAL_GPIO_Init(GPIO_TypeDef  *GPIOx, GPIO_InitTypeDef *GPIO_Init)
{
 8000b68:	b480      	push	{r7}
 8000b6a:	b089      	sub	sp, #36	; 0x24
 8000b6c:	af00      	add	r7, sp, #0
 8000b6e:	6078      	str	r0, [r7, #4]
 8000b70:	6039      	str	r1, [r7, #0]
  uint32_t position;
  uint32_t ioposition = 0x00U;
 8000b72:	2300      	movs	r3, #0
 8000b74:	617b      	str	r3, [r7, #20]
  uint32_t iocurrent = 0x00U;
 8000b76:	2300      	movs	r3, #0
 8000b78:	613b      	str	r3, [r7, #16]
  uint32_t temp = 0x00U;
 8000b7a:	2300      	movs	r3, #0
 8000b7c:	61bb      	str	r3, [r7, #24]
  assert_param(IS_GPIO_ALL_INSTANCE(GPIOx));
  assert_param(IS_GPIO_PIN(GPIO_Init->Pin));
  assert_param(IS_GPIO_MODE(GPIO_Init->Mode));

  /* Configure the port pins */
  for(position = 0U; position < GPIO_NUMBER; position++)
 8000b7e:	2300      	movs	r3, #0
 8000b80:	61fb      	str	r3, [r7, #28]
 8000b82:	e16b      	b.n	8000e5c <HAL_GPIO_Init+0x2f4>
  {
    /* Get the IO position */
    ioposition = 0x01U << position;
 8000b84:	2201      	movs	r2, #1
 8000b86:	69fb      	ldr	r3, [r7, #28]
 8000b88:	fa02 f303 	lsl.w	r3, r2, r3
 8000b8c:	617b      	str	r3, [r7, #20]
    /* Get the current IO position */
    iocurrent = (uint32_t)(GPIO_Init->Pin) & ioposition;
 8000b8e:	683b      	ldr	r3, [r7, #0]
 8000b90:	681b      	ldr	r3, [r3, #0]
 8000b92:	697a      	ldr	r2, [r7, #20]
 8000b94:	4013      	ands	r3, r2
 8000b96:	613b      	str	r3, [r7, #16]

    if(iocurrent == ioposition)
 8000b98:	693a      	ldr	r2, [r7, #16]
 8000b9a:	697b      	ldr	r3, [r7, #20]
 8000b9c:	429a      	cmp	r2, r3
 8000b9e:	f040 815a 	bne.w	8000e56 <HAL_GPIO_Init+0x2ee>
    {
      /*--------------------- GPIO Mode Configuration ------------------------*/
      /* In case of Output or Alternate function mode selection */
      if(((GPIO_Init->Mode & GPIO_MODE) == MODE_OUTPUT) || \
 8000ba2:	683b      	ldr	r3, [r7, #0]
 8000ba4:	685b      	ldr	r3, [r3, #4]
 8000ba6:	f003 0303 	and.w	r3, r3, #3
 8000baa:	2b01      	cmp	r3, #1
 8000bac:	d005      	beq.n	8000bba <HAL_GPIO_Init+0x52>
          (GPIO_Init->Mode & GPIO_MODE) == MODE_AF)
 8000bae:	683b      	ldr	r3, [r7, #0]
 8000bb0:	685b      	ldr	r3, [r3, #4]
 8000bb2:	f003 0303 	and.w	r3, r3, #3
      if(((GPIO_Init->Mode & GPIO_MODE) == MODE_OUTPUT) || \
 8000bb6:	2b02      	cmp	r3, #2
 8000bb8:	d130      	bne.n	8000c1c <HAL_GPIO_Init+0xb4>
      {
        /* Check the Speed parameter */
        assert_param(IS_GPIO_SPEED(GPIO_Init->Speed));
        /* Configure the IO Speed */
        temp = GPIOx->OSPEEDR; 
 8000bba:	687b      	ldr	r3, [r7, #4]
 8000bbc:	689b      	ldr	r3, [r3, #8]
 8000bbe:	61bb      	str	r3, [r7, #24]
        temp &= ~(GPIO_OSPEEDER_OSPEEDR0 << (position * 2U));
 8000bc0:	69fb      	ldr	r3, [r7, #28]
 8000bc2:	005b      	lsls	r3, r3, #1
 8000bc4:	2203      	movs	r2, #3
 8000bc6:	fa02 f303 	lsl.w	r3, r2, r3
 8000bca:	43db      	mvns	r3, r3
 8000bcc:	69ba      	ldr	r2, [r7, #24]
 8000bce:	4013      	ands	r3, r2
 8000bd0:	61bb      	str	r3, [r7, #24]
        temp |= (GPIO_Init->Speed << (position * 2U));
 8000bd2:	683b      	ldr	r3, [r7, #0]
 8000bd4:	68da      	ldr	r2, [r3, #12]
 8000bd6:	69fb      	ldr	r3, [r7, #28]
 8000bd8:	005b      	lsls	r3, r3, #1
 8000bda:	fa02 f303 	lsl.w	r3, r2, r3
 8000bde:	69ba      	ldr	r2, [r7, #24]
 8000be0:	4313      	orrs	r3, r2
 8000be2:	61bb      	str	r3, [r7, #24]
        GPIOx->OSPEEDR = temp;
 8000be4:	687b      	ldr	r3, [r7, #4]
 8000be6:	69ba      	ldr	r2, [r7, #24]
 8000be8:	609a      	str	r2, [r3, #8]

        /* Configure the IO Output Type */
        temp = GPIOx->OTYPER;
 8000bea:	687b      	ldr	r3, [r7, #4]
 8000bec:	685b      	ldr	r3, [r3, #4]
 8000bee:	61bb      	str	r3, [r7, #24]
        temp &= ~(GPIO_OTYPER_OT_0 << position) ;
 8000bf0:	2201      	movs	r2, #1
 8000bf2:	69fb      	ldr	r3, [r7, #28]
 8000bf4:	fa02 f303 	lsl.w	r3, r2, r3
 8000bf8:	43db      	mvns	r3, r3
 8000bfa:	69ba      	ldr	r2, [r7, #24]
 8000bfc:	4013      	ands	r3, r2
 8000bfe:	61bb      	str	r3, [r7, #24]
        temp |= (((GPIO_Init->Mode & OUTPUT_TYPE) >> OUTPUT_TYPE_Pos) << position);
 8000c00:	683b      	ldr	r3, [r7, #0]
 8000c02:	685b      	ldr	r3, [r3, #4]
 8000c04:	091b      	lsrs	r3, r3, #4
 8000c06:	f003 0201 	and.w	r2, r3, #1
 8000c0a:	69fb      	ldr	r3, [r7, #28]
 8000c0c:	fa02 f303 	lsl.w	r3, r2, r3
 8000c10:	69ba      	ldr	r2, [r7, #24]
 8000c12:	4313      	orrs	r3, r2
 8000c14:	61bb      	str	r3, [r7, #24]
        GPIOx->OTYPER = temp;
 8000c16:	687b      	ldr	r3, [r7, #4]
 8000c18:	69ba      	ldr	r2, [r7, #24]
 8000c1a:	605a      	str	r2, [r3, #4]
       }

      if((GPIO_Init->Mode & GPIO_MODE) != MODE_ANALOG)
 8000c1c:	683b      	ldr	r3, [r7, #0]
 8000c1e:	685b      	ldr	r3, [r3, #4]
 8000c20:	f003 0303 	and.w	r3, r3, #3
 8000c24:	2b03      	cmp	r3, #3
 8000c26:	d017      	beq.n	8000c58 <HAL_GPIO_Init+0xf0>
      {
        /* Check the parameters */
        assert_param(IS_GPIO_PULL(GPIO_Init->Pull));
        
        /* Activate the Pull-up or Pull down resistor for the current IO */
        temp = GPIOx->PUPDR;
 8000c28:	687b      	ldr	r3, [r7, #4]
 8000c2a:	68db      	ldr	r3, [r3, #12]
 8000c2c:	61bb      	str	r3, [r7, #24]
        temp &= ~(GPIO_PUPDR_PUPDR0 << (position * 2U));
 8000c2e:	69fb      	ldr	r3, [r7, #28]
 8000c30:	005b      	lsls	r3, r3, #1
 8000c32:	2203      	movs	r2, #3
 8000c34:	fa02 f303 	lsl.w	r3, r2, r3
 8000c38:	43db      	mvns	r3, r3
 8000c3a:	69ba      	ldr	r2, [r7, #24]
 8000c3c:	4013      	ands	r3, r2
 8000c3e:	61bb      	str	r3, [r7, #24]
        temp |= ((GPIO_Init->Pull) << (position * 2U));
 8000c40:	683b      	ldr	r3, [r7, #0]
 8000c42:	689a      	ldr	r2, [r3, #8]
 8000c44:	69fb      	ldr	r3, [r7, #28]
 8000c46:	005b      	lsls	r3, r3, #1
 8000c48:	fa02 f303 	lsl.w	r3, r2, r3
 8000c4c:	69ba      	ldr	r2, [r7, #24]
 8000c4e:	4313      	orrs	r3, r2
 8000c50:	61bb      	str	r3, [r7, #24]
        GPIOx->PUPDR = temp;
 8000c52:	687b      	ldr	r3, [r7, #4]
 8000c54:	69ba      	ldr	r2, [r7, #24]
 8000c56:	60da      	str	r2, [r3, #12]
      }

      /* In case of Alternate function mode selection */
      if((GPIO_Init->Mode & GPIO_MODE) == MODE_AF)
 8000c58:	683b      	ldr	r3, [r7, #0]
 8000c5a:	685b      	ldr	r3, [r3, #4]
 8000c5c:	f003 0303 	and.w	r3, r3, #3
 8000c60:	2b02      	cmp	r3, #2
 8000c62:	d123      	bne.n	8000cac <HAL_GPIO_Init+0x144>
      {
        /* Check the Alternate function parameter */
        assert_param(IS_GPIO_AF(GPIO_Init->Alternate));
        /* Configure Alternate function mapped with the current IO */
        temp = GPIOx->AFR[position >> 3U];
 8000c64:	69fb      	ldr	r3, [r7, #28]
 8000c66:	08da      	lsrs	r2, r3, #3
 8000c68:	687b      	ldr	r3, [r7, #4]
 8000c6a:	3208      	adds	r2, #8
 8000c6c:	f853 3022 	ldr.w	r3, [r3, r2, lsl #2]
 8000c70:	61bb      	str	r3, [r7, #24]
        temp &= ~(0xFU << ((uint32_t)(position & 0x07U) * 4U)) ;
 8000c72:	69fb      	ldr	r3, [r7, #28]
 8000c74:	f003 0307 	and.w	r3, r3, #7
 8000c78:	009b      	lsls	r3, r3, #2
 8000c7a:	220f      	movs	r2, #15
 8000c7c:	fa02 f303 	lsl.w	r3, r2, r3
 8000c80:	43db      	mvns	r3, r3
 8000c82:	69ba      	ldr	r2, [r7, #24]
 8000c84:	4013      	ands	r3, r2
 8000c86:	61bb      	str	r3, [r7, #24]
        temp |= ((uint32_t)(GPIO_Init->Alternate) << (((uint32_t)position & 0x07U) * 4U));
 8000c88:	683b      	ldr	r3, [r7, #0]
 8000c8a:	691a      	ldr	r2, [r3, #16]
 8000c8c:	69fb      	ldr	r3, [r7, #28]
 8000c8e:	f003 0307 	and.w	r3, r3, #7
 8000c92:	009b      	lsls	r3, r3, #2
 8000c94:	fa02 f303 	lsl.w	r3, r2, r3
 8000c98:	69ba      	ldr	r2, [r7, #24]
 8000c9a:	4313      	orrs	r3, r2
 8000c9c:	61bb      	str	r3, [r7, #24]
        GPIOx->AFR[position >> 3U] = temp;
 8000c9e:	69fb      	ldr	r3, [r7, #28]
 8000ca0:	08da      	lsrs	r2, r3, #3
 8000ca2:	687b      	ldr	r3, [r7, #4]
 8000ca4:	3208      	adds	r2, #8
 8000ca6:	69b9      	ldr	r1, [r7, #24]
 8000ca8:	f843 1022 	str.w	r1, [r3, r2, lsl #2]
      }

      /* Configure IO Direction mode (Input, Output, Alternate or Analog) */
      temp = GPIOx->MODER;
 8000cac:	687b      	ldr	r3, [r7, #4]
 8000cae:	681b      	ldr	r3, [r3, #0]
 8000cb0:	61bb      	str	r3, [r7, #24]
      temp &= ~(GPIO_MODER_MODER0 << (position * 2U));
 8000cb2:	69fb      	ldr	r3, [r7, #28]
 8000cb4:	005b      	lsls	r3, r3, #1
 8000cb6:	2203      	movs	r2, #3
 8000cb8:	fa02 f303 	lsl.w	r3, r2, r3
 8000cbc:	43db      	mvns	r3, r3
 8000cbe:	69ba      	ldr	r2, [r7, #24]
 8000cc0:	4013      	ands	r3, r2
 8000cc2:	61bb      	str	r3, [r7, #24]
      temp |= ((GPIO_Init->Mode & GPIO_MODE) << (position * 2U));
 8000cc4:	683b      	ldr	r3, [r7, #0]
 8000cc6:	685b      	ldr	r3, [r3, #4]
 8000cc8:	f003 0203 	and.w	r2, r3, #3
 8000ccc:	69fb      	ldr	r3, [r7, #28]
 8000cce:	005b      	lsls	r3, r3, #1
 8000cd0:	fa02 f303 	lsl.w	r3, r2, r3
 8000cd4:	69ba      	ldr	r2, [r7, #24]
 8000cd6:	4313      	orrs	r3, r2
 8000cd8:	61bb      	str	r3, [r7, #24]
      GPIOx->MODER = temp;
 8000cda:	687b      	ldr	r3, [r7, #4]
 8000cdc:	69ba      	ldr	r2, [r7, #24]
 8000cde:	601a      	str	r2, [r3, #0]

      /*--------------------- EXTI Mode Configuration ------------------------*/
      /* Configure the External Interrupt or event for the current IO */
      if((GPIO_Init->Mode & EXTI_MODE) != 0x00U)
 8000ce0:	683b      	ldr	r3, [r7, #0]
 8000ce2:	685b      	ldr	r3, [r3, #4]
 8000ce4:	f403 3340 	and.w	r3, r3, #196608	; 0x30000
 8000ce8:	2b00      	cmp	r3, #0
 8000cea:	f000 80b4 	beq.w	8000e56 <HAL_GPIO_Init+0x2ee>
      {
        /* Enable SYSCFG Clock */
        __HAL_RCC_SYSCFG_CLK_ENABLE();
 8000cee:	2300      	movs	r3, #0
 8000cf0:	60fb      	str	r3, [r7, #12]
 8000cf2:	4b60      	ldr	r3, [pc, #384]	; (8000e74 <HAL_GPIO_Init+0x30c>)
 8000cf4:	6c5b      	ldr	r3, [r3, #68]	; 0x44
 8000cf6:	4a5f      	ldr	r2, [pc, #380]	; (8000e74 <HAL_GPIO_Init+0x30c>)
 8000cf8:	f443 4380 	orr.w	r3, r3, #16384	; 0x4000
 8000cfc:	6453      	str	r3, [r2, #68]	; 0x44
 8000cfe:	4b5d      	ldr	r3, [pc, #372]	; (8000e74 <HAL_GPIO_Init+0x30c>)
 8000d00:	6c5b      	ldr	r3, [r3, #68]	; 0x44
 8000d02:	f403 4380 	and.w	r3, r3, #16384	; 0x4000
 8000d06:	60fb      	str	r3, [r7, #12]
 8000d08:	68fb      	ldr	r3, [r7, #12]

        temp = SYSCFG->EXTICR[position >> 2U];
 8000d0a:	4a5b      	ldr	r2, [pc, #364]	; (8000e78 <HAL_GPIO_Init+0x310>)
 8000d0c:	69fb      	ldr	r3, [r7, #28]
 8000d0e:	089b      	lsrs	r3, r3, #2
 8000d10:	3302      	adds	r3, #2
 8000d12:	f852 3023 	ldr.w	r3, [r2, r3, lsl #2]
 8000d16:	61bb      	str	r3, [r7, #24]
        temp &= ~(0x0FU << (4U * (position & 0x03U)));
 8000d18:	69fb      	ldr	r3, [r7, #28]
 8000d1a:	f003 0303 	and.w	r3, r3, #3
 8000d1e:	009b      	lsls	r3, r3, #2
 8000d20:	220f      	movs	r2, #15
 8000d22:	fa02 f303 	lsl.w	r3, r2, r3
 8000d26:	43db      	mvns	r3, r3
 8000d28:	69ba      	ldr	r2, [r7, #24]
 8000d2a:	4013      	ands	r3, r2
 8000d2c:	61bb      	str	r3, [r7, #24]
        temp |= ((uint32_t)(GPIO_GET_INDEX(GPIOx)) << (4U * (position & 0x03U)));
 8000d2e:	687b      	ldr	r3, [r7, #4]
 8000d30:	4a52      	ldr	r2, [pc, #328]	; (8000e7c <HAL_GPIO_Init+0x314>)
 8000d32:	4293      	cmp	r3, r2
 8000d34:	d02b      	beq.n	8000d8e <HAL_GPIO_Init+0x226>
 8000d36:	687b      	ldr	r3, [r7, #4]
 8000d38:	4a51      	ldr	r2, [pc, #324]	; (8000e80 <HAL_GPIO_Init+0x318>)
 8000d3a:	4293      	cmp	r3, r2
 8000d3c:	d025      	beq.n	8000d8a <HAL_GPIO_Init+0x222>
 8000d3e:	687b      	ldr	r3, [r7, #4]
 8000d40:	4a50      	ldr	r2, [pc, #320]	; (8000e84 <HAL_GPIO_Init+0x31c>)
 8000d42:	4293      	cmp	r3, r2
 8000d44:	d01f      	beq.n	8000d86 <HAL_GPIO_Init+0x21e>
 8000d46:	687b      	ldr	r3, [r7, #4]
 8000d48:	4a4f      	ldr	r2, [pc, #316]	; (8000e88 <HAL_GPIO_Init+0x320>)
 8000d4a:	4293      	cmp	r3, r2
 8000d4c:	d019      	beq.n	8000d82 <HAL_GPIO_Init+0x21a>
 8000d4e:	687b      	ldr	r3, [r7, #4]
 8000d50:	4a4e      	ldr	r2, [pc, #312]	; (8000e8c <HAL_GPIO_Init+0x324>)
 8000d52:	4293      	cmp	r3, r2
 8000d54:	d013      	beq.n	8000d7e <HAL_GPIO_Init+0x216>
 8000d56:	687b      	ldr	r3, [r7, #4]
 8000d58:	4a4d      	ldr	r2, [pc, #308]	; (8000e90 <HAL_GPIO_Init+0x328>)
 8000d5a:	4293      	cmp	r3, r2
 8000d5c:	d00d      	beq.n	8000d7a <HAL_GPIO_Init+0x212>
 8000d5e:	687b      	ldr	r3, [r7, #4]
 8000d60:	4a4c      	ldr	r2, [pc, #304]	; (8000e94 <HAL_GPIO_Init+0x32c>)
 8000d62:	4293      	cmp	r3, r2
 8000d64:	d007      	beq.n	8000d76 <HAL_GPIO_Init+0x20e>
 8000d66:	687b      	ldr	r3, [r7, #4]
 8000d68:	4a4b      	ldr	r2, [pc, #300]	; (8000e98 <HAL_GPIO_Init+0x330>)
 8000d6a:	4293      	cmp	r3, r2
 8000d6c:	d101      	bne.n	8000d72 <HAL_GPIO_Init+0x20a>
 8000d6e:	2307      	movs	r3, #7
 8000d70:	e00e      	b.n	8000d90 <HAL_GPIO_Init+0x228>
 8000d72:	2308      	movs	r3, #8
 8000d74:	e00c      	b.n	8000d90 <HAL_GPIO_Init+0x228>
 8000d76:	2306      	movs	r3, #6
 8000d78:	e00a      	b.n	8000d90 <HAL_GPIO_Init+0x228>
 8000d7a:	2305      	movs	r3, #5
 8000d7c:	e008      	b.n	8000d90 <HAL_GPIO_Init+0x228>
 8000d7e:	2304      	movs	r3, #4
 8000d80:	e006      	b.n	8000d90 <HAL_GPIO_Init+0x228>
 8000d82:	2303      	movs	r3, #3
 8000d84:	e004      	b.n	8000d90 <HAL_GPIO_Init+0x228>
 8000d86:	2302      	movs	r3, #2
 8000d88:	e002      	b.n	8000d90 <HAL_GPIO_Init+0x228>
 8000d8a:	2301      	movs	r3, #1
 8000d8c:	e000      	b.n	8000d90 <HAL_GPIO_Init+0x228>
 8000d8e:	2300      	movs	r3, #0
 8000d90:	69fa      	ldr	r2, [r7, #28]
 8000d92:	f002 0203 	and.w	r2, r2, #3
 8000d96:	0092      	lsls	r2, r2, #2
 8000d98:	4093      	lsls	r3, r2
 8000d9a:	69ba      	ldr	r2, [r7, #24]
 8000d9c:	4313      	orrs	r3, r2
 8000d9e:	61bb      	str	r3, [r7, #24]
        SYSCFG->EXTICR[position >> 2U] = temp;
 8000da0:	4935      	ldr	r1, [pc, #212]	; (8000e78 <HAL_GPIO_Init+0x310>)
 8000da2:	69fb      	ldr	r3, [r7, #28]
 8000da4:	089b      	lsrs	r3, r3, #2
 8000da6:	3302      	adds	r3, #2
 8000da8:	69ba      	ldr	r2, [r7, #24]
 8000daa:	f841 2023 	str.w	r2, [r1, r3, lsl #2]

        /* Clear EXTI line configuration */
        temp = EXTI->IMR;
 8000dae:	4b3b      	ldr	r3, [pc, #236]	; (8000e9c <HAL_GPIO_Init+0x334>)
 8000db0:	681b      	ldr	r3, [r3, #0]
 8000db2:	61bb      	str	r3, [r7, #24]
        temp &= ~((uint32_t)iocurrent);
 8000db4:	693b      	ldr	r3, [r7, #16]
 8000db6:	43db      	mvns	r3, r3
 8000db8:	69ba      	ldr	r2, [r7, #24]
 8000dba:	4013      	ands	r3, r2
 8000dbc:	61bb      	str	r3, [r7, #24]
        if((GPIO_Init->Mode & EXTI_IT) != 0x00U)
 8000dbe:	683b      	ldr	r3, [r7, #0]
 8000dc0:	685b      	ldr	r3, [r3, #4]
 8000dc2:	f403 3380 	and.w	r3, r3, #65536	; 0x10000
 8000dc6:	2b00      	cmp	r3, #0
 8000dc8:	d003      	beq.n	8000dd2 <HAL_GPIO_Init+0x26a>
        {
          temp |= iocurrent;
 8000dca:	69ba      	ldr	r2, [r7, #24]
 8000dcc:	693b      	ldr	r3, [r7, #16]
 8000dce:	4313      	orrs	r3, r2
 8000dd0:	61bb      	str	r3, [r7, #24]
        }
        EXTI->IMR = temp;
 8000dd2:	4a32      	ldr	r2, [pc, #200]	; (8000e9c <HAL_GPIO_Init+0x334>)
 8000dd4:	69bb      	ldr	r3, [r7, #24]
 8000dd6:	6013      	str	r3, [r2, #0]

        temp = EXTI->EMR;
 8000dd8:	4b30      	ldr	r3, [pc, #192]	; (8000e9c <HAL_GPIO_Init+0x334>)
 8000dda:	685b      	ldr	r3, [r3, #4]
 8000ddc:	61bb      	str	r3, [r7, #24]
        temp &= ~((uint32_t)iocurrent);
 8000dde:	693b      	ldr	r3, [r7, #16]
 8000de0:	43db      	mvns	r3, r3
 8000de2:	69ba      	ldr	r2, [r7, #24]
 8000de4:	4013      	ands	r3, r2
 8000de6:	61bb      	str	r3, [r7, #24]
        if((GPIO_Init->Mode & EXTI_EVT) != 0x00U)
 8000de8:	683b      	ldr	r3, [r7, #0]
 8000dea:	685b      	ldr	r3, [r3, #4]
 8000dec:	f403 3300 	and.w	r3, r3, #131072	; 0x20000
 8000df0:	2b00      	cmp	r3, #0
 8000df2:	d003      	beq.n	8000dfc <HAL_GPIO_Init+0x294>
        {
          temp |= iocurrent;
 8000df4:	69ba      	ldr	r2, [r7, #24]
 8000df6:	693b      	ldr	r3, [r7, #16]
 8000df8:	4313      	orrs	r3, r2
 8000dfa:	61bb      	str	r3, [r7, #24]
        }
        EXTI->EMR = temp;
 8000dfc:	4a27      	ldr	r2, [pc, #156]	; (8000e9c <HAL_GPIO_Init+0x334>)
 8000dfe:	69bb      	ldr	r3, [r7, #24]
 8000e00:	6053      	str	r3, [r2, #4]

        /* Clear Rising Falling edge configuration */
        temp = EXTI->RTSR;
 8000e02:	4b26      	ldr	r3, [pc, #152]	; (8000e9c <HAL_GPIO_Init+0x334>)
 8000e04:	689b      	ldr	r3, [r3, #8]
 8000e06:	61bb      	str	r3, [r7, #24]
        temp &= ~((uint32_t)iocurrent);
 8000e08:	693b      	ldr	r3, [r7, #16]
 8000e0a:	43db      	mvns	r3, r3
 8000e0c:	69ba      	ldr	r2, [r7, #24]
 8000e0e:	4013      	ands	r3, r2
 8000e10:	61bb      	str	r3, [r7, #24]
        if((GPIO_Init->Mode & TRIGGER_RISING) != 0x00U)
 8000e12:	683b      	ldr	r3, [r7, #0]
 8000e14:	685b      	ldr	r3, [r3, #4]
 8000e16:	f403 1380 	and.w	r3, r3, #1048576	; 0x100000
 8000e1a:	2b00      	cmp	r3, #0
 8000e1c:	d003      	beq.n	8000e26 <HAL_GPIO_Init+0x2be>
        {
          temp |= iocurrent;
 8000e1e:	69ba      	ldr	r2, [r7, #24]
 8000e20:	693b      	ldr	r3, [r7, #16]
 8000e22:	4313      	orrs	r3, r2
 8000e24:	61bb      	str	r3, [r7, #24]
        }
        EXTI->RTSR = temp;
 8000e26:	4a1d      	ldr	r2, [pc, #116]	; (8000e9c <HAL_GPIO_Init+0x334>)
 8000e28:	69bb      	ldr	r3, [r7, #24]
 8000e2a:	6093      	str	r3, [r2, #8]

        temp = EXTI->FTSR;
 8000e2c:	4b1b      	ldr	r3, [pc, #108]	; (8000e9c <HAL_GPIO_Init+0x334>)
 8000e2e:	68db      	ldr	r3, [r3, #12]
 8000e30:	61bb      	str	r3, [r7, #24]
        temp &= ~((uint32_t)iocurrent);
 8000e32:	693b      	ldr	r3, [r7, #16]
 8000e34:	43db      	mvns	r3, r3
 8000e36:	69ba      	ldr	r2, [r7, #24]
 8000e38:	4013      	ands	r3, r2
 8000e3a:	61bb      	str	r3, [r7, #24]
        if((GPIO_Init->Mode & TRIGGER_FALLING) != 0x00U)
 8000e3c:	683b      	ldr	r3, [r7, #0]
 8000e3e:	685b      	ldr	r3, [r3, #4]
 8000e40:	f403 1300 	and.w	r3, r3, #2097152	; 0x200000
 8000e44:	2b00      	cmp	r3, #0
 8000e46:	d003      	beq.n	8000e50 <HAL_GPIO_Init+0x2e8>
        {
          temp |= iocurrent;
 8000e48:	69ba      	ldr	r2, [r7, #24]
 8000e4a:	693b      	ldr	r3, [r7, #16]
 8000e4c:	4313      	orrs	r3, r2
 8000e4e:	61bb      	str	r3, [r7, #24]
        }
        EXTI->FTSR = temp;
 8000e50:	4a12      	ldr	r2, [pc, #72]	; (8000e9c <HAL_GPIO_Init+0x334>)
 8000e52:	69bb      	ldr	r3, [r7, #24]
 8000e54:	60d3      	str	r3, [r2, #12]
  for(position = 0U; position < GPIO_NUMBER; position++)
 8000e56:	69fb      	ldr	r3, [r7, #28]
 8000e58:	3301      	adds	r3, #1
 8000e5a:	61fb      	str	r3, [r7, #28]
 8000e5c:	69fb      	ldr	r3, [r7, #28]
 8000e5e:	2b0f      	cmp	r3, #15
 8000e60:	f67f ae90 	bls.w	8000b84 <HAL_GPIO_Init+0x1c>
      }
    }
  }
}
 8000e64:	bf00      	nop
 8000e66:	bf00      	nop
 8000e68:	3724      	adds	r7, #36	; 0x24
 8000e6a:	46bd      	mov	sp, r7
 8000e6c:	f85d 7b04 	ldr.w	r7, [sp], #4
 8000e70:	4770      	bx	lr
 8000e72:	bf00      	nop
 8000e74:	40023800 	.word	0x40023800
 8000e78:	40013800 	.word	0x40013800
 8000e7c:	40020000 	.word	0x40020000
 8000e80:	40020400 	.word	0x40020400
 8000e84:	40020800 	.word	0x40020800
 8000e88:	40020c00 	.word	0x40020c00
 8000e8c:	40021000 	.word	0x40021000
 8000e90:	40021400 	.word	0x40021400
 8000e94:	40021800 	.word	0x40021800
 8000e98:	40021c00 	.word	0x40021c00
 8000e9c:	40013c00 	.word	0x40013c00

08000ea0 <HAL_GPIO_WritePin>:
  *            @arg GPIO_PIN_RESET: to clear the port pin
  *            @arg GPIO_PIN_SET: to set the port pin
  * @retval None
  */
void HAL_GPIO_WritePin(GPIO_TypeDef* GPIOx, uint16_t GPIO_Pin, GPIO_PinState PinState)
{
 8000ea0:	b480      	push	{r7}
 8000ea2:	b083      	sub	sp, #12
 8000ea4:	af00      	add	r7, sp, #0
 8000ea6:	6078      	str	r0, [r7, #4]
 8000ea8:	460b      	mov	r3, r1
 8000eaa:	807b      	strh	r3, [r7, #2]
 8000eac:	4613      	mov	r3, r2
 8000eae:	707b      	strb	r3, [r7, #1]
  /* Check the parameters */
  assert_param(IS_GPIO_PIN(GPIO_Pin));
  assert_param(IS_GPIO_PIN_ACTION(PinState));

  if(PinState != GPIO_PIN_RESET)
 8000eb0:	787b      	ldrb	r3, [r7, #1]
 8000eb2:	2b00      	cmp	r3, #0
 8000eb4:	d003      	beq.n	8000ebe <HAL_GPIO_WritePin+0x1e>
  {
    GPIOx->BSRR = GPIO_Pin;
 8000eb6:	887a      	ldrh	r2, [r7, #2]
 8000eb8:	687b      	ldr	r3, [r7, #4]
 8000eba:	619a      	str	r2, [r3, #24]
  }
  else
  {
    GPIOx->BSRR = (uint32_t)GPIO_Pin << 16U;
  }
}
 8000ebc:	e003      	b.n	8000ec6 <HAL_GPIO_WritePin+0x26>
    GPIOx->BSRR = (uint32_t)GPIO_Pin << 16U;
 8000ebe:	887b      	ldrh	r3, [r7, #2]
 8000ec0:	041a      	lsls	r2, r3, #16
 8000ec2:	687b      	ldr	r3, [r7, #4]
 8000ec4:	619a      	str	r2, [r3, #24]
}
 8000ec6:	bf00      	nop
 8000ec8:	370c      	adds	r7, #12
 8000eca:	46bd      	mov	sp, r7
 8000ecc:	f85d 7b04 	ldr.w	r7, [sp], #4
 8000ed0:	4770      	bx	lr
	...

08000ed4 <HAL_RCC_OscConfig>:
  *         supported by this API. User should request a transition to HSE Off
  *         first and then HSE On or HSE Bypass.
  * @retval HAL status
  */
__weak HAL_StatusTypeDef HAL_RCC_OscConfig(RCC_OscInitTypeDef  *RCC_OscInitStruct)
{
 8000ed4:	b580      	push	{r7, lr}
 8000ed6:	b086      	sub	sp, #24
 8000ed8:	af00      	add	r7, sp, #0
 8000eda:	6078      	str	r0, [r7, #4]
  uint32_t tickstart, pll_config;

  /* Check Null pointer */
  if(RCC_OscInitStruct == NULL)
 8000edc:	687b      	ldr	r3, [r7, #4]
 8000ede:	2b00      	cmp	r3, #0
 8000ee0:	d101      	bne.n	8000ee6 <HAL_RCC_OscConfig+0x12>
  {
    return HAL_ERROR;
 8000ee2:	2301      	movs	r3, #1
 8000ee4:	e264      	b.n	80013b0 <HAL_RCC_OscConfig+0x4dc>
  }

  /* Check the parameters */
  assert_param(IS_RCC_OSCILLATORTYPE(RCC_OscInitStruct->OscillatorType));
  /*------------------------------- HSE Configuration ------------------------*/
  if(((RCC_OscInitStruct->OscillatorType) & RCC_OSCILLATORTYPE_HSE) == RCC_OSCILLATORTYPE_HSE)
 8000ee6:	687b      	ldr	r3, [r7, #4]
 8000ee8:	681b      	ldr	r3, [r3, #0]
 8000eea:	f003 0301 	and.w	r3, r3, #1
 8000eee:	2b00      	cmp	r3, #0
 8000ef0:	d075      	beq.n	8000fde <HAL_RCC_OscConfig+0x10a>
  {
    /* Check the parameters */
    assert_param(IS_RCC_HSE(RCC_OscInitStruct->HSEState));
    /* When the HSE is used as system clock or clock source for PLL in these cases HSE will not disabled */
    if((__HAL_RCC_GET_SYSCLK_SOURCE() == RCC_CFGR_SWS_HSE) ||\
 8000ef2:	4ba3      	ldr	r3, [pc, #652]	; (8001180 <HAL_RCC_OscConfig+0x2ac>)
 8000ef4:	689b      	ldr	r3, [r3, #8]
 8000ef6:	f003 030c 	and.w	r3, r3, #12
 8000efa:	2b04      	cmp	r3, #4
 8000efc:	d00c      	beq.n	8000f18 <HAL_RCC_OscConfig+0x44>
      ((__HAL_RCC_GET_SYSCLK_SOURCE() == RCC_CFGR_SWS_PLL) && ((RCC->PLLCFGR & RCC_PLLCFGR_PLLSRC) == RCC_PLLCFGR_PLLSRC_HSE)))
 8000efe:	4ba0      	ldr	r3, [pc, #640]	; (8001180 <HAL_RCC_OscConfig+0x2ac>)
 8000f00:	689b      	ldr	r3, [r3, #8]
 8000f02:	f003 030c 	and.w	r3, r3, #12
    if((__HAL_RCC_GET_SYSCLK_SOURCE() == RCC_CFGR_SWS_HSE) ||\
 8000f06:	2b08      	cmp	r3, #8
 8000f08:	d112      	bne.n	8000f30 <HAL_RCC_OscConfig+0x5c>
      ((__HAL_RCC_GET_SYSCLK_SOURCE() == RCC_CFGR_SWS_PLL) && ((RCC->PLLCFGR & RCC_PLLCFGR_PLLSRC) == RCC_PLLCFGR_PLLSRC_HSE)))
 8000f0a:	4b9d      	ldr	r3, [pc, #628]	; (8001180 <HAL_RCC_OscConfig+0x2ac>)
 8000f0c:	685b      	ldr	r3, [r3, #4]
 8000f0e:	f403 0380 	and.w	r3, r3, #4194304	; 0x400000
 8000f12:	f5b3 0f80 	cmp.w	r3, #4194304	; 0x400000
 8000f16:	d10b      	bne.n	8000f30 <HAL_RCC_OscConfig+0x5c>
    {
      if((__HAL_RCC_GET_FLAG(RCC_FLAG_HSERDY) != RESET) && (RCC_OscInitStruct->HSEState == RCC_HSE_OFF))
 8000f18:	4b99      	ldr	r3, [pc, #612]	; (8001180 <HAL_RCC_OscConfig+0x2ac>)
 8000f1a:	681b      	ldr	r3, [r3, #0]
 8000f1c:	f403 3300 	and.w	r3, r3, #131072	; 0x20000
 8000f20:	2b00      	cmp	r3, #0
 8000f22:	d05b      	beq.n	8000fdc <HAL_RCC_OscConfig+0x108>
 8000f24:	687b      	ldr	r3, [r7, #4]
 8000f26:	685b      	ldr	r3, [r3, #4]
 8000f28:	2b00      	cmp	r3, #0
 8000f2a:	d157      	bne.n	8000fdc <HAL_RCC_OscConfig+0x108>
      {
        return HAL_ERROR;
 8000f2c:	2301      	movs	r3, #1
 8000f2e:	e23f      	b.n	80013b0 <HAL_RCC_OscConfig+0x4dc>
      }
    }
    else
    {
      /* Set the new HSE configuration ---------------------------------------*/
      __HAL_RCC_HSE_CONFIG(RCC_OscInitStruct->HSEState);
 8000f30:	687b      	ldr	r3, [r7, #4]
 8000f32:	685b      	ldr	r3, [r3, #4]
 8000f34:	f5b3 3f80 	cmp.w	r3, #65536	; 0x10000
 8000f38:	d106      	bne.n	8000f48 <HAL_RCC_OscConfig+0x74>
 8000f3a:	4b91      	ldr	r3, [pc, #580]	; (8001180 <HAL_RCC_OscConfig+0x2ac>)
 8000f3c:	681b      	ldr	r3, [r3, #0]
 8000f3e:	4a90      	ldr	r2, [pc, #576]	; (8001180 <HAL_RCC_OscConfig+0x2ac>)
 8000f40:	f443 3380 	orr.w	r3, r3, #65536	; 0x10000
 8000f44:	6013      	str	r3, [r2, #0]
 8000f46:	e01d      	b.n	8000f84 <HAL_RCC_OscConfig+0xb0>
 8000f48:	687b      	ldr	r3, [r7, #4]
 8000f4a:	685b      	ldr	r3, [r3, #4]
 8000f4c:	f5b3 2fa0 	cmp.w	r3, #327680	; 0x50000
 8000f50:	d10c      	bne.n	8000f6c <HAL_RCC_OscConfig+0x98>
 8000f52:	4b8b      	ldr	r3, [pc, #556]	; (8001180 <HAL_RCC_OscConfig+0x2ac>)
 8000f54:	681b      	ldr	r3, [r3, #0]
 8000f56:	4a8a      	ldr	r2, [pc, #552]	; (8001180 <HAL_RCC_OscConfig+0x2ac>)
 8000f58:	f443 2380 	orr.w	r3, r3, #262144	; 0x40000
 8000f5c:	6013      	str	r3, [r2, #0]
 8000f5e:	4b88      	ldr	r3, [pc, #544]	; (8001180 <HAL_RCC_OscConfig+0x2ac>)
 8000f60:	681b      	ldr	r3, [r3, #0]
 8000f62:	4a87      	ldr	r2, [pc, #540]	; (8001180 <HAL_RCC_OscConfig+0x2ac>)
 8000f64:	f443 3380 	orr.w	r3, r3, #65536	; 0x10000
 8000f68:	6013      	str	r3, [r2, #0]
 8000f6a:	e00b      	b.n	8000f84 <HAL_RCC_OscConfig+0xb0>
 8000f6c:	4b84      	ldr	r3, [pc, #528]	; (8001180 <HAL_RCC_OscConfig+0x2ac>)
 8000f6e:	681b      	ldr	r3, [r3, #0]
 8000f70:	4a83      	ldr	r2, [pc, #524]	; (8001180 <HAL_RCC_OscConfig+0x2ac>)
 8000f72:	f423 3380 	bic.w	r3, r3, #65536	; 0x10000
 8000f76:	6013      	str	r3, [r2, #0]
 8000f78:	4b81      	ldr	r3, [pc, #516]	; (8001180 <HAL_RCC_OscConfig+0x2ac>)
 8000f7a:	681b      	ldr	r3, [r3, #0]
 8000f7c:	4a80      	ldr	r2, [pc, #512]	; (8001180 <HAL_RCC_OscConfig+0x2ac>)
 8000f7e:	f423 2380 	bic.w	r3, r3, #262144	; 0x40000
 8000f82:	6013      	str	r3, [r2, #0]

      /* Check the HSE State */
      if((RCC_OscInitStruct->HSEState) != RCC_HSE_OFF)
 8000f84:	687b      	ldr	r3, [r7, #4]
 8000f86:	685b      	ldr	r3, [r3, #4]
 8000f88:	2b00      	cmp	r3, #0
 8000f8a:	d013      	beq.n	8000fb4 <HAL_RCC_OscConfig+0xe0>
      {
        /* Get Start Tick */
        tickstart = HAL_GetTick();
 8000f8c:	f7ff fcda 	bl	8000944 <HAL_GetTick>
 8000f90:	6138      	str	r0, [r7, #16]

        /* Wait till HSE is ready */
        while(__HAL_RCC_GET_FLAG(RCC_FLAG_HSERDY) == RESET)
 8000f92:	e008      	b.n	8000fa6 <HAL_RCC_OscConfig+0xd2>
        {
          if((HAL_GetTick() - tickstart ) > HSE_TIMEOUT_VALUE)
 8000f94:	f7ff fcd6 	bl	8000944 <HAL_GetTick>
 8000f98:	4602      	mov	r2, r0
 8000f9a:	693b      	ldr	r3, [r7, #16]
 8000f9c:	1ad3      	subs	r3, r2, r3
 8000f9e:	2b64      	cmp	r3, #100	; 0x64
 8000fa0:	d901      	bls.n	8000fa6 <HAL_RCC_OscConfig+0xd2>
          {
            return HAL_TIMEOUT;
 8000fa2:	2303      	movs	r3, #3
 8000fa4:	e204      	b.n	80013b0 <HAL_RCC_OscConfig+0x4dc>
        while(__HAL_RCC_GET_FLAG(RCC_FLAG_HSERDY) == RESET)
 8000fa6:	4b76      	ldr	r3, [pc, #472]	; (8001180 <HAL_RCC_OscConfig+0x2ac>)
 8000fa8:	681b      	ldr	r3, [r3, #0]
 8000faa:	f403 3300 	and.w	r3, r3, #131072	; 0x20000
 8000fae:	2b00      	cmp	r3, #0
 8000fb0:	d0f0      	beq.n	8000f94 <HAL_RCC_OscConfig+0xc0>
 8000fb2:	e014      	b.n	8000fde <HAL_RCC_OscConfig+0x10a>
        }
      }
      else
      {
        /* Get Start Tick */
        tickstart = HAL_GetTick();
 8000fb4:	f7ff fcc6 	bl	8000944 <HAL_GetTick>
 8000fb8:	6138      	str	r0, [r7, #16]

        /* Wait till HSE is bypassed or disabled */
        while(__HAL_RCC_GET_FLAG(RCC_FLAG_HSERDY) != RESET)
 8000fba:	e008      	b.n	8000fce <HAL_RCC_OscConfig+0xfa>
        {
          if((HAL_GetTick() - tickstart ) > HSE_TIMEOUT_VALUE)
 8000fbc:	f7ff fcc2 	bl	8000944 <HAL_GetTick>
 8000fc0:	4602      	mov	r2, r0
 8000fc2:	693b      	ldr	r3, [r7, #16]
 8000fc4:	1ad3      	subs	r3, r2, r3
 8000fc6:	2b64      	cmp	r3, #100	; 0x64
 8000fc8:	d901      	bls.n	8000fce <HAL_RCC_OscConfig+0xfa>
          {
            return HAL_TIMEOUT;
 8000fca:	2303      	movs	r3, #3
 8000fcc:	e1f0      	b.n	80013b0 <HAL_RCC_OscConfig+0x4dc>
        while(__HAL_RCC_GET_FLAG(RCC_FLAG_HSERDY) != RESET)
 8000fce:	4b6c      	ldr	r3, [pc, #432]	; (8001180 <HAL_RCC_OscConfig+0x2ac>)
 8000fd0:	681b      	ldr	r3, [r3, #0]
 8000fd2:	f403 3300 	and.w	r3, r3, #131072	; 0x20000
 8000fd6:	2b00      	cmp	r3, #0
 8000fd8:	d1f0      	bne.n	8000fbc <HAL_RCC_OscConfig+0xe8>
 8000fda:	e000      	b.n	8000fde <HAL_RCC_OscConfig+0x10a>
      if((__HAL_RCC_GET_FLAG(RCC_FLAG_HSERDY) != RESET) && (RCC_OscInitStruct->HSEState == RCC_HSE_OFF))
 8000fdc:	bf00      	nop
        }
      }
    }
  }
  /*----------------------------- HSI Configuration --------------------------*/
  if(((RCC_OscInitStruct->OscillatorType) & RCC_OSCILLATORTYPE_HSI) == RCC_OSCILLATORTYPE_HSI)
 8000fde:	687b      	ldr	r3, [r7, #4]
 8000fe0:	681b      	ldr	r3, [r3, #0]
 8000fe2:	f003 0302 	and.w	r3, r3, #2
 8000fe6:	2b00      	cmp	r3, #0
 8000fe8:	d063      	beq.n	80010b2 <HAL_RCC_OscConfig+0x1de>
    /* Check the parameters */
    assert_param(IS_RCC_HSI(RCC_OscInitStruct->HSIState));
    assert_param(IS_RCC_CALIBRATION_VALUE(RCC_OscInitStruct->HSICalibrationValue));

    /* Check if HSI is used as system clock or as PLL source when PLL is selected as system clock */
    if((__HAL_RCC_GET_SYSCLK_SOURCE() == RCC_CFGR_SWS_HSI) ||\
 8000fea:	4b65      	ldr	r3, [pc, #404]	; (8001180 <HAL_RCC_OscConfig+0x2ac>)
 8000fec:	689b      	ldr	r3, [r3, #8]
 8000fee:	f003 030c 	and.w	r3, r3, #12
 8000ff2:	2b00      	cmp	r3, #0
 8000ff4:	d00b      	beq.n	800100e <HAL_RCC_OscConfig+0x13a>
      ((__HAL_RCC_GET_SYSCLK_SOURCE() == RCC_CFGR_SWS_PLL) && ((RCC->PLLCFGR & RCC_PLLCFGR_PLLSRC) == RCC_PLLCFGR_PLLSRC_HSI)))
 8000ff6:	4b62      	ldr	r3, [pc, #392]	; (8001180 <HAL_RCC_OscConfig+0x2ac>)
 8000ff8:	689b      	ldr	r3, [r3, #8]
 8000ffa:	f003 030c 	and.w	r3, r3, #12
    if((__HAL_RCC_GET_SYSCLK_SOURCE() == RCC_CFGR_SWS_HSI) ||\
 8000ffe:	2b08      	cmp	r3, #8
 8001000:	d11c      	bne.n	800103c <HAL_RCC_OscConfig+0x168>
      ((__HAL_RCC_GET_SYSCLK_SOURCE() == RCC_CFGR_SWS_PLL) && ((RCC->PLLCFGR & RCC_PLLCFGR_PLLSRC) == RCC_PLLCFGR_PLLSRC_HSI)))
 8001002:	4b5f      	ldr	r3, [pc, #380]	; (8001180 <HAL_RCC_OscConfig+0x2ac>)
 8001004:	685b      	ldr	r3, [r3, #4]
 8001006:	f403 0380 	and.w	r3, r3, #4194304	; 0x400000
 800100a:	2b00      	cmp	r3, #0
 800100c:	d116      	bne.n	800103c <HAL_RCC_OscConfig+0x168>
    {
      /* When HSI is used as system clock it will not disabled */
      if((__HAL_RCC_GET_FLAG(RCC_FLAG_HSIRDY) != RESET) && (RCC_OscInitStruct->HSIState != RCC_HSI_ON))
 800100e:	4b5c      	ldr	r3, [pc, #368]	; (8001180 <HAL_RCC_OscConfig+0x2ac>)
 8001010:	681b      	ldr	r3, [r3, #0]
 8001012:	f003 0302 	and.w	r3, r3, #2
 8001016:	2b00      	cmp	r3, #0
 8001018:	d005      	beq.n	8001026 <HAL_RCC_OscConfig+0x152>
 800101a:	687b      	ldr	r3, [r7, #4]
 800101c:	68db      	ldr	r3, [r3, #12]
 800101e:	2b01      	cmp	r3, #1
 8001020:	d001      	beq.n	8001026 <HAL_RCC_OscConfig+0x152>
      {
        return HAL_ERROR;
 8001022:	2301      	movs	r3, #1
 8001024:	e1c4      	b.n	80013b0 <HAL_RCC_OscConfig+0x4dc>
      }
      /* Otherwise, just the calibration is allowed */
      else
      {
        /* Adjusts the Internal High Speed oscillator (HSI) calibration value.*/
        __HAL_RCC_HSI_CALIBRATIONVALUE_ADJUST(RCC_OscInitStruct->HSICalibrationValue);
 8001026:	4b56      	ldr	r3, [pc, #344]	; (8001180 <HAL_RCC_OscConfig+0x2ac>)
 8001028:	681b      	ldr	r3, [r3, #0]
 800102a:	f023 02f8 	bic.w	r2, r3, #248	; 0xf8
 800102e:	687b      	ldr	r3, [r7, #4]
 8001030:	691b      	ldr	r3, [r3, #16]
 8001032:	00db      	lsls	r3, r3, #3
 8001034:	4952      	ldr	r1, [pc, #328]	; (8001180 <HAL_RCC_OscConfig+0x2ac>)
 8001036:	4313      	orrs	r3, r2
 8001038:	600b      	str	r3, [r1, #0]
      if((__HAL_RCC_GET_FLAG(RCC_FLAG_HSIRDY) != RESET) && (RCC_OscInitStruct->HSIState != RCC_HSI_ON))
 800103a:	e03a      	b.n	80010b2 <HAL_RCC_OscConfig+0x1de>
      }
    }
    else
    {
      /* Check the HSI State */
      if((RCC_OscInitStruct->HSIState)!= RCC_HSI_OFF)
 800103c:	687b      	ldr	r3, [r7, #4]
 800103e:	68db      	ldr	r3, [r3, #12]
 8001040:	2b00      	cmp	r3, #0
 8001042:	d020      	beq.n	8001086 <HAL_RCC_OscConfig+0x1b2>
      {
        /* Enable the Internal High Speed oscillator (HSI). */
        __HAL_RCC_HSI_ENABLE();
 8001044:	4b4f      	ldr	r3, [pc, #316]	; (8001184 <HAL_RCC_OscConfig+0x2b0>)
 8001046:	2201      	movs	r2, #1
 8001048:	601a      	str	r2, [r3, #0]

        /* Get Start Tick*/
        tickstart = HAL_GetTick();
 800104a:	f7ff fc7b 	bl	8000944 <HAL_GetTick>
 800104e:	6138      	str	r0, [r7, #16]

        /* Wait till HSI is ready */
        while(__HAL_RCC_GET_FLAG(RCC_FLAG_HSIRDY) == RESET)
 8001050:	e008      	b.n	8001064 <HAL_RCC_OscConfig+0x190>
        {
          if((HAL_GetTick() - tickstart ) > HSI_TIMEOUT_VALUE)
 8001052:	f7ff fc77 	bl	8000944 <HAL_GetTick>
 8001056:	4602      	mov	r2, r0
 8001058:	693b      	ldr	r3, [r7, #16]
 800105a:	1ad3      	subs	r3, r2, r3
 800105c:	2b02      	cmp	r3, #2
 800105e:	d901      	bls.n	8001064 <HAL_RCC_OscConfig+0x190>
          {
            return HAL_TIMEOUT;
 8001060:	2303      	movs	r3, #3
 8001062:	e1a5      	b.n	80013b0 <HAL_RCC_OscConfig+0x4dc>
        while(__HAL_RCC_GET_FLAG(RCC_FLAG_HSIRDY) == RESET)
 8001064:	4b46      	ldr	r3, [pc, #280]	; (8001180 <HAL_RCC_OscConfig+0x2ac>)
 8001066:	681b      	ldr	r3, [r3, #0]
 8001068:	f003 0302 	and.w	r3, r3, #2
 800106c:	2b00      	cmp	r3, #0
 800106e:	d0f0      	beq.n	8001052 <HAL_RCC_OscConfig+0x17e>
          }
        }

        /* Adjusts the Internal High Speed oscillator (HSI) calibration value. */
        __HAL_RCC_HSI_CALIBRATIONVALUE_ADJUST(RCC_OscInitStruct->HSICalibrationValue);
 8001070:	4b43      	ldr	r3, [pc, #268]	; (8001180 <HAL_RCC_OscConfig+0x2ac>)
 8001072:	681b      	ldr	r3, [r3, #0]
 8001074:	f023 02f8 	bic.w	r2, r3, #248	; 0xf8
 8001078:	687b      	ldr	r3, [r7, #4]
 800107a:	691b      	ldr	r3, [r3, #16]
 800107c:	00db      	lsls	r3, r3, #3
 800107e:	4940      	ldr	r1, [pc, #256]	; (8001180 <HAL_RCC_OscConfig+0x2ac>)
 8001080:	4313      	orrs	r3, r2
 8001082:	600b      	str	r3, [r1, #0]
 8001084:	e015      	b.n	80010b2 <HAL_RCC_OscConfig+0x1de>
      }
      else
      {
        /* Disable the Internal High Speed oscillator (HSI). */
        __HAL_RCC_HSI_DISABLE();
 8001086:	4b3f      	ldr	r3, [pc, #252]	; (8001184 <HAL_RCC_OscConfig+0x2b0>)
 8001088:	2200      	movs	r2, #0
 800108a:	601a      	str	r2, [r3, #0]

        /* Get Start Tick*/
        tickstart = HAL_GetTick();
 800108c:	f7ff fc5a 	bl	8000944 <HAL_GetTick>
 8001090:	6138      	str	r0, [r7, #16]

        /* Wait till HSI is ready */
        while(__HAL_RCC_GET_FLAG(RCC_FLAG_HSIRDY) != RESET)
 8001092:	e008      	b.n	80010a6 <HAL_RCC_OscConfig+0x1d2>
        {
          if((HAL_GetTick() - tickstart ) > HSI_TIMEOUT_VALUE)
 8001094:	f7ff fc56 	bl	8000944 <HAL_GetTick>
 8001098:	4602      	mov	r2, r0
 800109a:	693b      	ldr	r3, [r7, #16]
 800109c:	1ad3      	subs	r3, r2, r3
 800109e:	2b02      	cmp	r3, #2
 80010a0:	d901      	bls.n	80010a6 <HAL_RCC_OscConfig+0x1d2>
          {
            return HAL_TIMEOUT;
 80010a2:	2303      	movs	r3, #3
 80010a4:	e184      	b.n	80013b0 <HAL_RCC_OscConfig+0x4dc>
        while(__HAL_RCC_GET_FLAG(RCC_FLAG_HSIRDY) != RESET)
 80010a6:	4b36      	ldr	r3, [pc, #216]	; (8001180 <HAL_RCC_OscConfig+0x2ac>)
 80010a8:	681b      	ldr	r3, [r3, #0]
 80010aa:	f003 0302 	and.w	r3, r3, #2
 80010ae:	2b00      	cmp	r3, #0
 80010b0:	d1f0      	bne.n	8001094 <HAL_RCC_OscConfig+0x1c0>
        }
      }
    }
  }
  /*------------------------------ LSI Configuration -------------------------*/
  if(((RCC_OscInitStruct->OscillatorType) & RCC_OSCILLATORTYPE_LSI) == RCC_OSCILLATORTYPE_LSI)
 80010b2:	687b      	ldr	r3, [r7, #4]
 80010b4:	681b      	ldr	r3, [r3, #0]
 80010b6:	f003 0308 	and.w	r3, r3, #8
 80010ba:	2b00      	cmp	r3, #0
 80010bc:	d030      	beq.n	8001120 <HAL_RCC_OscConfig+0x24c>
  {
    /* Check the parameters */
    assert_param(IS_RCC_LSI(RCC_OscInitStruct->LSIState));

    /* Check the LSI State */
    if((RCC_OscInitStruct->LSIState)!= RCC_LSI_OFF)
 80010be:	687b      	ldr	r3, [r7, #4]
 80010c0:	695b      	ldr	r3, [r3, #20]
 80010c2:	2b00      	cmp	r3, #0
 80010c4:	d016      	beq.n	80010f4 <HAL_RCC_OscConfig+0x220>
    {
      /* Enable the Internal Low Speed oscillator (LSI). */
      __HAL_RCC_LSI_ENABLE();
 80010c6:	4b30      	ldr	r3, [pc, #192]	; (8001188 <HAL_RCC_OscConfig+0x2b4>)
 80010c8:	2201      	movs	r2, #1
 80010ca:	601a      	str	r2, [r3, #0]

      /* Get Start Tick*/
      tickstart = HAL_GetTick();
 80010cc:	f7ff fc3a 	bl	8000944 <HAL_GetTick>
 80010d0:	6138      	str	r0, [r7, #16]

      /* Wait till LSI is ready */
      while(__HAL_RCC_GET_FLAG(RCC_FLAG_LSIRDY) == RESET)
 80010d2:	e008      	b.n	80010e6 <HAL_RCC_OscConfig+0x212>
      {
        if((HAL_GetTick() - tickstart ) > LSI_TIMEOUT_VALUE)
 80010d4:	f7ff fc36 	bl	8000944 <HAL_GetTick>
 80010d8:	4602      	mov	r2, r0
 80010da:	693b      	ldr	r3, [r7, #16]
 80010dc:	1ad3      	subs	r3, r2, r3
 80010de:	2b02      	cmp	r3, #2
 80010e0:	d901      	bls.n	80010e6 <HAL_RCC_OscConfig+0x212>
        {
          return HAL_TIMEOUT;
 80010e2:	2303      	movs	r3, #3
 80010e4:	e164      	b.n	80013b0 <HAL_RCC_OscConfig+0x4dc>
      while(__HAL_RCC_GET_FLAG(RCC_FLAG_LSIRDY) == RESET)
 80010e6:	4b26      	ldr	r3, [pc, #152]	; (8001180 <HAL_RCC_OscConfig+0x2ac>)
 80010e8:	6f5b      	ldr	r3, [r3, #116]	; 0x74
 80010ea:	f003 0302 	and.w	r3, r3, #2
 80010ee:	2b00      	cmp	r3, #0
 80010f0:	d0f0      	beq.n	80010d4 <HAL_RCC_OscConfig+0x200>
 80010f2:	e015      	b.n	8001120 <HAL_RCC_OscConfig+0x24c>
      }
    }
    else
    {
      /* Disable the Internal Low Speed oscillator (LSI). */
      __HAL_RCC_LSI_DISABLE();
 80010f4:	4b24      	ldr	r3, [pc, #144]	; (8001188 <HAL_RCC_OscConfig+0x2b4>)
 80010f6:	2200      	movs	r2, #0
 80010f8:	601a      	str	r2, [r3, #0]

      /* Get Start Tick */
      tickstart = HAL_GetTick();
 80010fa:	f7ff fc23 	bl	8000944 <HAL_GetTick>
 80010fe:	6138      	str	r0, [r7, #16]

      /* Wait till LSI is ready */
      while(__HAL_RCC_GET_FLAG(RCC_FLAG_LSIRDY) != RESET)
 8001100:	e008      	b.n	8001114 <HAL_RCC_OscConfig+0x240>
      {
        if((HAL_GetTick() - tickstart ) > LSI_TIMEOUT_VALUE)
 8001102:	f7ff fc1f 	bl	8000944 <HAL_GetTick>
 8001106:	4602      	mov	r2, r0
 8001108:	693b      	ldr	r3, [r7, #16]
 800110a:	1ad3      	subs	r3, r2, r3
 800110c:	2b02      	cmp	r3, #2
 800110e:	d901      	bls.n	8001114 <HAL_RCC_OscConfig+0x240>
        {
          return HAL_TIMEOUT;
 8001110:	2303      	movs	r3, #3
 8001112:	e14d      	b.n	80013b0 <HAL_RCC_OscConfig+0x4dc>
      while(__HAL_RCC_GET_FLAG(RCC_FLAG_LSIRDY) != RESET)
 8001114:	4b1a      	ldr	r3, [pc, #104]	; (8001180 <HAL_RCC_OscConfig+0x2ac>)
 8001116:	6f5b      	ldr	r3, [r3, #116]	; 0x74
 8001118:	f003 0302 	and.w	r3, r3, #2
 800111c:	2b00      	cmp	r3, #0
 800111e:	d1f0      	bne.n	8001102 <HAL_RCC_OscConfig+0x22e>
        }
      }
    }
  }
  /*------------------------------ LSE Configuration -------------------------*/
  if(((RCC_OscInitStruct->OscillatorType) & RCC_OSCILLATORTYPE_LSE) == RCC_OSCILLATORTYPE_LSE)
 8001120:	687b      	ldr	r3, [r7, #4]
 8001122:	681b      	ldr	r3, [r3, #0]
 8001124:	f003 0304 	and.w	r3, r3, #4
 8001128:	2b00      	cmp	r3, #0
 800112a:	f000 80a0 	beq.w	800126e <HAL_RCC_OscConfig+0x39a>
  {
    FlagStatus       pwrclkchanged = RESET;
 800112e:	2300      	movs	r3, #0
 8001130:	75fb      	strb	r3, [r7, #23]
    /* Check the parameters */
    assert_param(IS_RCC_LSE(RCC_OscInitStruct->LSEState));

    /* Update LSE configuration in Backup Domain control register    */
    /* Requires to enable write access to Backup Domain of necessary */
    if(__HAL_RCC_PWR_IS_CLK_DISABLED())
 8001132:	4b13      	ldr	r3, [pc, #76]	; (8001180 <HAL_RCC_OscConfig+0x2ac>)
 8001134:	6c1b      	ldr	r3, [r3, #64]	; 0x40
 8001136:	f003 5380 	and.w	r3, r3, #268435456	; 0x10000000
 800113a:	2b00      	cmp	r3, #0
 800113c:	d10f      	bne.n	800115e <HAL_RCC_OscConfig+0x28a>
    {
      __HAL_RCC_PWR_CLK_ENABLE();
 800113e:	2300      	movs	r3, #0
 8001140:	60bb      	str	r3, [r7, #8]
 8001142:	4b0f      	ldr	r3, [pc, #60]	; (8001180 <HAL_RCC_OscConfig+0x2ac>)
 8001144:	6c1b      	ldr	r3, [r3, #64]	; 0x40
 8001146:	4a0e      	ldr	r2, [pc, #56]	; (8001180 <HAL_RCC_OscConfig+0x2ac>)
 8001148:	f043 5380 	orr.w	r3, r3, #268435456	; 0x10000000
 800114c:	6413      	str	r3, [r2, #64]	; 0x40
 800114e:	4b0c      	ldr	r3, [pc, #48]	; (8001180 <HAL_RCC_OscConfig+0x2ac>)
 8001150:	6c1b      	ldr	r3, [r3, #64]	; 0x40
 8001152:	f003 5380 	and.w	r3, r3, #268435456	; 0x10000000
 8001156:	60bb      	str	r3, [r7, #8]
 8001158:	68bb      	ldr	r3, [r7, #8]
      pwrclkchanged = SET;
 800115a:	2301      	movs	r3, #1
 800115c:	75fb      	strb	r3, [r7, #23]
    }

    if(HAL_IS_BIT_CLR(PWR->CR, PWR_CR_DBP))
 800115e:	4b0b      	ldr	r3, [pc, #44]	; (800118c <HAL_RCC_OscConfig+0x2b8>)
 8001160:	681b      	ldr	r3, [r3, #0]
 8001162:	f403 7380 	and.w	r3, r3, #256	; 0x100
 8001166:	2b00      	cmp	r3, #0
 8001168:	d121      	bne.n	80011ae <HAL_RCC_OscConfig+0x2da>
    {
      /* Enable write access to Backup domain */
      SET_BIT(PWR->CR, PWR_CR_DBP);
 800116a:	4b08      	ldr	r3, [pc, #32]	; (800118c <HAL_RCC_OscConfig+0x2b8>)
 800116c:	681b      	ldr	r3, [r3, #0]
 800116e:	4a07      	ldr	r2, [pc, #28]	; (800118c <HAL_RCC_OscConfig+0x2b8>)
 8001170:	f443 7380 	orr.w	r3, r3, #256	; 0x100
 8001174:	6013      	str	r3, [r2, #0]

      /* Wait for Backup domain Write protection disable */
      tickstart = HAL_GetTick();
 8001176:	f7ff fbe5 	bl	8000944 <HAL_GetTick>
 800117a:	6138      	str	r0, [r7, #16]

      while(HAL_IS_BIT_CLR(PWR->CR, PWR_CR_DBP))
 800117c:	e011      	b.n	80011a2 <HAL_RCC_OscConfig+0x2ce>
 800117e:	bf00      	nop
 8001180:	40023800 	.word	0x40023800
 8001184:	42470000 	.word	0x42470000
 8001188:	42470e80 	.word	0x42470e80
 800118c:	40007000 	.word	0x40007000
      {
        if((HAL_GetTick() - tickstart) > RCC_DBP_TIMEOUT_VALUE)
 8001190:	f7ff fbd8 	bl	8000944 <HAL_GetTick>
 8001194:	4602      	mov	r2, r0
 8001196:	693b      	ldr	r3, [r7, #16]
 8001198:	1ad3      	subs	r3, r2, r3
 800119a:	2b02      	cmp	r3, #2
 800119c:	d901      	bls.n	80011a2 <HAL_RCC_OscConfig+0x2ce>
        {
          return HAL_TIMEOUT;
 800119e:	2303      	movs	r3, #3
 80011a0:	e106      	b.n	80013b0 <HAL_RCC_OscConfig+0x4dc>
      while(HAL_IS_BIT_CLR(PWR->CR, PWR_CR_DBP))
 80011a2:	4b85      	ldr	r3, [pc, #532]	; (80013b8 <HAL_RCC_OscConfig+0x4e4>)
 80011a4:	681b      	ldr	r3, [r3, #0]
 80011a6:	f403 7380 	and.w	r3, r3, #256	; 0x100
 80011aa:	2b00      	cmp	r3, #0
 80011ac:	d0f0      	beq.n	8001190 <HAL_RCC_OscConfig+0x2bc>
        }
      }
    }

    /* Set the new LSE configuration -----------------------------------------*/
    __HAL_RCC_LSE_CONFIG(RCC_OscInitStruct->LSEState);
 80011ae:	687b      	ldr	r3, [r7, #4]
 80011b0:	689b      	ldr	r3, [r3, #8]
 80011b2:	2b01      	cmp	r3, #1
 80011b4:	d106      	bne.n	80011c4 <HAL_RCC_OscConfig+0x2f0>
 80011b6:	4b81      	ldr	r3, [pc, #516]	; (80013bc <HAL_RCC_OscConfig+0x4e8>)
 80011b8:	6f1b      	ldr	r3, [r3, #112]	; 0x70
 80011ba:	4a80      	ldr	r2, [pc, #512]	; (80013bc <HAL_RCC_OscConfig+0x4e8>)
 80011bc:	f043 0301 	orr.w	r3, r3, #1
 80011c0:	6713      	str	r3, [r2, #112]	; 0x70
 80011c2:	e01c      	b.n	80011fe <HAL_RCC_OscConfig+0x32a>
 80011c4:	687b      	ldr	r3, [r7, #4]
 80011c6:	689b      	ldr	r3, [r3, #8]
 80011c8:	2b05      	cmp	r3, #5
 80011ca:	d10c      	bne.n	80011e6 <HAL_RCC_OscConfig+0x312>
 80011cc:	4b7b      	ldr	r3, [pc, #492]	; (80013bc <HAL_RCC_OscConfig+0x4e8>)
 80011ce:	6f1b      	ldr	r3, [r3, #112]	; 0x70
 80011d0:	4a7a      	ldr	r2, [pc, #488]	; (80013bc <HAL_RCC_OscConfig+0x4e8>)
 80011d2:	f043 0304 	orr.w	r3, r3, #4
 80011d6:	6713      	str	r3, [r2, #112]	; 0x70
 80011d8:	4b78      	ldr	r3, [pc, #480]	; (80013bc <HAL_RCC_OscConfig+0x4e8>)
 80011da:	6f1b      	ldr	r3, [r3, #112]	; 0x70
 80011dc:	4a77      	ldr	r2, [pc, #476]	; (80013bc <HAL_RCC_OscConfig+0x4e8>)
 80011de:	f043 0301 	orr.w	r3, r3, #1
 80011e2:	6713      	str	r3, [r2, #112]	; 0x70
 80011e4:	e00b      	b.n	80011fe <HAL_RCC_OscConfig+0x32a>
 80011e6:	4b75      	ldr	r3, [pc, #468]	; (80013bc <HAL_RCC_OscConfig+0x4e8>)
 80011e8:	6f1b      	ldr	r3, [r3, #112]	; 0x70
 80011ea:	4a74      	ldr	r2, [pc, #464]	; (80013bc <HAL_RCC_OscConfig+0x4e8>)
 80011ec:	f023 0301 	bic.w	r3, r3, #1
 80011f0:	6713      	str	r3, [r2, #112]	; 0x70
 80011f2:	4b72      	ldr	r3, [pc, #456]	; (80013bc <HAL_RCC_OscConfig+0x4e8>)
 80011f4:	6f1b      	ldr	r3, [r3, #112]	; 0x70
 80011f6:	4a71      	ldr	r2, [pc, #452]	; (80013bc <HAL_RCC_OscConfig+0x4e8>)
 80011f8:	f023 0304 	bic.w	r3, r3, #4
 80011fc:	6713      	str	r3, [r2, #112]	; 0x70
    /* Check the LSE State */
    if((RCC_OscInitStruct->LSEState) != RCC_LSE_OFF)
 80011fe:	687b      	ldr	r3, [r7, #4]
 8001200:	689b      	ldr	r3, [r3, #8]
 8001202:	2b00      	cmp	r3, #0
 8001204:	d015      	beq.n	8001232 <HAL_RCC_OscConfig+0x35e>
    {
      /* Get Start Tick*/
      tickstart = HAL_GetTick();
 8001206:	f7ff fb9d 	bl	8000944 <HAL_GetTick>
 800120a:	6138      	str	r0, [r7, #16]

      /* Wait till LSE is ready */
      while(__HAL_RCC_GET_FLAG(RCC_FLAG_LSERDY) == RESET)
 800120c:	e00a      	b.n	8001224 <HAL_RCC_OscConfig+0x350>
      {
        if((HAL_GetTick() - tickstart ) > RCC_LSE_TIMEOUT_VALUE)
 800120e:	f7ff fb99 	bl	8000944 <HAL_GetTick>
 8001212:	4602      	mov	r2, r0
 8001214:	693b      	ldr	r3, [r7, #16]
 8001216:	1ad3      	subs	r3, r2, r3
 8001218:	f241 3288 	movw	r2, #5000	; 0x1388
 800121c:	4293      	cmp	r3, r2
 800121e:	d901      	bls.n	8001224 <HAL_RCC_OscConfig+0x350>
        {
          return HAL_TIMEOUT;
 8001220:	2303      	movs	r3, #3
 8001222:	e0c5      	b.n	80013b0 <HAL_RCC_OscConfig+0x4dc>
      while(__HAL_RCC_GET_FLAG(RCC_FLAG_LSERDY) == RESET)
 8001224:	4b65      	ldr	r3, [pc, #404]	; (80013bc <HAL_RCC_OscConfig+0x4e8>)
 8001226:	6f1b      	ldr	r3, [r3, #112]	; 0x70
 8001228:	f003 0302 	and.w	r3, r3, #2
 800122c:	2b00      	cmp	r3, #0
 800122e:	d0ee      	beq.n	800120e <HAL_RCC_OscConfig+0x33a>
 8001230:	e014      	b.n	800125c <HAL_RCC_OscConfig+0x388>
      }
    }
    else
    {
      /* Get Start Tick */
      tickstart = HAL_GetTick();
 8001232:	f7ff fb87 	bl	8000944 <HAL_GetTick>
 8001236:	6138      	str	r0, [r7, #16]

      /* Wait till LSE is ready */
      while(__HAL_RCC_GET_FLAG(RCC_FLAG_LSERDY) != RESET)
 8001238:	e00a      	b.n	8001250 <HAL_RCC_OscConfig+0x37c>
      {
        if((HAL_GetTick() - tickstart ) > RCC_LSE_TIMEOUT_VALUE)
 800123a:	f7ff fb83 	bl	8000944 <HAL_GetTick>
 800123e:	4602      	mov	r2, r0
 8001240:	693b      	ldr	r3, [r7, #16]
 8001242:	1ad3      	subs	r3, r2, r3
 8001244:	f241 3288 	movw	r2, #5000	; 0x1388
 8001248:	4293      	cmp	r3, r2
 800124a:	d901      	bls.n	8001250 <HAL_RCC_OscConfig+0x37c>
        {
          return HAL_TIMEOUT;
 800124c:	2303      	movs	r3, #3
 800124e:	e0af      	b.n	80013b0 <HAL_RCC_OscConfig+0x4dc>
      while(__HAL_RCC_GET_FLAG(RCC_FLAG_LSERDY) != RESET)
 8001250:	4b5a      	ldr	r3, [pc, #360]	; (80013bc <HAL_RCC_OscConfig+0x4e8>)
 8001252:	6f1b      	ldr	r3, [r3, #112]	; 0x70
 8001254:	f003 0302 	and.w	r3, r3, #2
 8001258:	2b00      	cmp	r3, #0
 800125a:	d1ee      	bne.n	800123a <HAL_RCC_OscConfig+0x366>
        }
      }
    }

    /* Restore clock configuration if changed */
    if(pwrclkchanged == SET)
 800125c:	7dfb      	ldrb	r3, [r7, #23]
 800125e:	2b01      	cmp	r3, #1
 8001260:	d105      	bne.n	800126e <HAL_RCC_OscConfig+0x39a>
    {
      __HAL_RCC_PWR_CLK_DISABLE();
 8001262:	4b56      	ldr	r3, [pc, #344]	; (80013bc <HAL_RCC_OscConfig+0x4e8>)
 8001264:	6c1b      	ldr	r3, [r3, #64]	; 0x40
 8001266:	4a55      	ldr	r2, [pc, #340]	; (80013bc <HAL_RCC_OscConfig+0x4e8>)
 8001268:	f023 5380 	bic.w	r3, r3, #268435456	; 0x10000000
 800126c:	6413      	str	r3, [r2, #64]	; 0x40
    }
  }
  /*-------------------------------- PLL Configuration -----------------------*/
  /* Check the parameters */
  assert_param(IS_RCC_PLL(RCC_OscInitStruct->PLL.PLLState));
  if ((RCC_OscInitStruct->PLL.PLLState) != RCC_PLL_NONE)
 800126e:	687b      	ldr	r3, [r7, #4]
 8001270:	699b      	ldr	r3, [r3, #24]
 8001272:	2b00      	cmp	r3, #0
 8001274:	f000 809b 	beq.w	80013ae <HAL_RCC_OscConfig+0x4da>
  {
    /* Check if the PLL is used as system clock or not */
    if(__HAL_RCC_GET_SYSCLK_SOURCE() != RCC_CFGR_SWS_PLL)
 8001278:	4b50      	ldr	r3, [pc, #320]	; (80013bc <HAL_RCC_OscConfig+0x4e8>)
 800127a:	689b      	ldr	r3, [r3, #8]
 800127c:	f003 030c 	and.w	r3, r3, #12
 8001280:	2b08      	cmp	r3, #8
 8001282:	d05c      	beq.n	800133e <HAL_RCC_OscConfig+0x46a>
    {
      if((RCC_OscInitStruct->PLL.PLLState) == RCC_PLL_ON)
 8001284:	687b      	ldr	r3, [r7, #4]
 8001286:	699b      	ldr	r3, [r3, #24]
 8001288:	2b02      	cmp	r3, #2
 800128a:	d141      	bne.n	8001310 <HAL_RCC_OscConfig+0x43c>
        assert_param(IS_RCC_PLLN_VALUE(RCC_OscInitStruct->PLL.PLLN));
        assert_param(IS_RCC_PLLP_VALUE(RCC_OscInitStruct->PLL.PLLP));
        assert_param(IS_RCC_PLLQ_VALUE(RCC_OscInitStruct->PLL.PLLQ));

        /* Disable the main PLL. */
        __HAL_RCC_PLL_DISABLE();
 800128c:	4b4c      	ldr	r3, [pc, #304]	; (80013c0 <HAL_RCC_OscConfig+0x4ec>)
 800128e:	2200      	movs	r2, #0
 8001290:	601a      	str	r2, [r3, #0]

        /* Get Start Tick */
        tickstart = HAL_GetTick();
 8001292:	f7ff fb57 	bl	8000944 <HAL_GetTick>
 8001296:	6138      	str	r0, [r7, #16]

        /* Wait till PLL is ready */
        while(__HAL_RCC_GET_FLAG(RCC_FLAG_PLLRDY) != RESET)
 8001298:	e008      	b.n	80012ac <HAL_RCC_OscConfig+0x3d8>
        {
          if((HAL_GetTick() - tickstart ) > PLL_TIMEOUT_VALUE)
 800129a:	f7ff fb53 	bl	8000944 <HAL_GetTick>
 800129e:	4602      	mov	r2, r0
 80012a0:	693b      	ldr	r3, [r7, #16]
 80012a2:	1ad3      	subs	r3, r2, r3
 80012a4:	2b02      	cmp	r3, #2
 80012a6:	d901      	bls.n	80012ac <HAL_RCC_OscConfig+0x3d8>
          {
            return HAL_TIMEOUT;
 80012a8:	2303      	movs	r3, #3
 80012aa:	e081      	b.n	80013b0 <HAL_RCC_OscConfig+0x4dc>
        while(__HAL_RCC_GET_FLAG(RCC_FLAG_PLLRDY) != RESET)
 80012ac:	4b43      	ldr	r3, [pc, #268]	; (80013bc <HAL_RCC_OscConfig+0x4e8>)
 80012ae:	681b      	ldr	r3, [r3, #0]
 80012b0:	f003 7300 	and.w	r3, r3, #33554432	; 0x2000000
 80012b4:	2b00      	cmp	r3, #0
 80012b6:	d1f0      	bne.n	800129a <HAL_RCC_OscConfig+0x3c6>
          }
        }

        /* Configure the main PLL clock source, multiplication and division factors. */
        WRITE_REG(RCC->PLLCFGR, (RCC_OscInitStruct->PLL.PLLSource                                            | \
 80012b8:	687b      	ldr	r3, [r7, #4]
 80012ba:	69da      	ldr	r2, [r3, #28]
 80012bc:	687b      	ldr	r3, [r7, #4]
 80012be:	6a1b      	ldr	r3, [r3, #32]
 80012c0:	431a      	orrs	r2, r3
 80012c2:	687b      	ldr	r3, [r7, #4]
 80012c4:	6a5b      	ldr	r3, [r3, #36]	; 0x24
 80012c6:	019b      	lsls	r3, r3, #6
 80012c8:	431a      	orrs	r2, r3
 80012ca:	687b      	ldr	r3, [r7, #4]
 80012cc:	6a9b      	ldr	r3, [r3, #40]	; 0x28
 80012ce:	085b      	lsrs	r3, r3, #1
 80012d0:	3b01      	subs	r3, #1
 80012d2:	041b      	lsls	r3, r3, #16
 80012d4:	431a      	orrs	r2, r3
 80012d6:	687b      	ldr	r3, [r7, #4]
 80012d8:	6adb      	ldr	r3, [r3, #44]	; 0x2c
 80012da:	061b      	lsls	r3, r3, #24
 80012dc:	4937      	ldr	r1, [pc, #220]	; (80013bc <HAL_RCC_OscConfig+0x4e8>)
 80012de:	4313      	orrs	r3, r2
 80012e0:	604b      	str	r3, [r1, #4]
                                 RCC_OscInitStruct->PLL.PLLM                                                 | \
                                 (RCC_OscInitStruct->PLL.PLLN << RCC_PLLCFGR_PLLN_Pos)             | \
                                 (((RCC_OscInitStruct->PLL.PLLP >> 1U) - 1U) << RCC_PLLCFGR_PLLP_Pos) | \
                                 (RCC_OscInitStruct->PLL.PLLQ << RCC_PLLCFGR_PLLQ_Pos)));
        /* Enable the main PLL. */
        __HAL_RCC_PLL_ENABLE();
 80012e2:	4b37      	ldr	r3, [pc, #220]	; (80013c0 <HAL_RCC_OscConfig+0x4ec>)
 80012e4:	2201      	movs	r2, #1
 80012e6:	601a      	str	r2, [r3, #0]

        /* Get Start Tick */
        tickstart = HAL_GetTick();
 80012e8:	f7ff fb2c 	bl	8000944 <HAL_GetTick>
 80012ec:	6138      	str	r0, [r7, #16]

        /* Wait till PLL is ready */
        while(__HAL_RCC_GET_FLAG(RCC_FLAG_PLLRDY) == RESET)
 80012ee:	e008      	b.n	8001302 <HAL_RCC_OscConfig+0x42e>
        {
          if((HAL_GetTick() - tickstart ) > PLL_TIMEOUT_VALUE)
 80012f0:	f7ff fb28 	bl	8000944 <HAL_GetTick>
 80012f4:	4602      	mov	r2, r0
 80012f6:	693b      	ldr	r3, [r7, #16]
 80012f8:	1ad3      	subs	r3, r2, r3
 80012fa:	2b02      	cmp	r3, #2
 80012fc:	d901      	bls.n	8001302 <HAL_RCC_OscConfig+0x42e>
          {
            return HAL_TIMEOUT;
 80012fe:	2303      	movs	r3, #3
 8001300:	e056      	b.n	80013b0 <HAL_RCC_OscConfig+0x4dc>
        while(__HAL_RCC_GET_FLAG(RCC_FLAG_PLLRDY) == RESET)
 8001302:	4b2e      	ldr	r3, [pc, #184]	; (80013bc <HAL_RCC_OscConfig+0x4e8>)
 8001304:	681b      	ldr	r3, [r3, #0]
 8001306:	f003 7300 	and.w	r3, r3, #33554432	; 0x2000000
 800130a:	2b00      	cmp	r3, #0
 800130c:	d0f0      	beq.n	80012f0 <HAL_RCC_OscConfig+0x41c>
 800130e:	e04e      	b.n	80013ae <HAL_RCC_OscConfig+0x4da>
        }
      }
      else
      {
        /* Disable the main PLL. */
        __HAL_RCC_PLL_DISABLE();
 8001310:	4b2b      	ldr	r3, [pc, #172]	; (80013c0 <HAL_RCC_OscConfig+0x4ec>)
 8001312:	2200      	movs	r2, #0
 8001314:	601a      	str	r2, [r3, #0]

        /* Get Start Tick */
        tickstart = HAL_GetTick();
 8001316:	f7ff fb15 	bl	8000944 <HAL_GetTick>
 800131a:	6138      	str	r0, [r7, #16]

        /* Wait till PLL is ready */
        while(__HAL_RCC_GET_FLAG(RCC_FLAG_PLLRDY) != RESET)
 800131c:	e008      	b.n	8001330 <HAL_RCC_OscConfig+0x45c>
        {
          if((HAL_GetTick() - tickstart ) > PLL_TIMEOUT_VALUE)
 800131e:	f7ff fb11 	bl	8000944 <HAL_GetTick>
 8001322:	4602      	mov	r2, r0
 8001324:	693b      	ldr	r3, [r7, #16]
 8001326:	1ad3      	subs	r3, r2, r3
 8001328:	2b02      	cmp	r3, #2
 800132a:	d901      	bls.n	8001330 <HAL_RCC_OscConfig+0x45c>
          {
            return HAL_TIMEOUT;
 800132c:	2303      	movs	r3, #3
 800132e:	e03f      	b.n	80013b0 <HAL_RCC_OscConfig+0x4dc>
        while(__HAL_RCC_GET_FLAG(RCC_FLAG_PLLRDY) != RESET)
 8001330:	4b22      	ldr	r3, [pc, #136]	; (80013bc <HAL_RCC_OscConfig+0x4e8>)
 8001332:	681b      	ldr	r3, [r3, #0]
 8001334:	f003 7300 	and.w	r3, r3, #33554432	; 0x2000000
 8001338:	2b00      	cmp	r3, #0
 800133a:	d1f0      	bne.n	800131e <HAL_RCC_OscConfig+0x44a>
 800133c:	e037      	b.n	80013ae <HAL_RCC_OscConfig+0x4da>
      }
    }
    else
    {
      /* Check if there is a request to disable the PLL used as System clock source */
      if((RCC_OscInitStruct->PLL.PLLState) == RCC_PLL_OFF)
 800133e:	687b      	ldr	r3, [r7, #4]
 8001340:	699b      	ldr	r3, [r3, #24]
 8001342:	2b01      	cmp	r3, #1
 8001344:	d101      	bne.n	800134a <HAL_RCC_OscConfig+0x476>
      {
        return HAL_ERROR;
 8001346:	2301      	movs	r3, #1
 8001348:	e032      	b.n	80013b0 <HAL_RCC_OscConfig+0x4dc>
      }
      else
      {
        /* Do not return HAL_ERROR if request repeats the current configuration */
        pll_config = RCC->PLLCFGR;
 800134a:	4b1c      	ldr	r3, [pc, #112]	; (80013bc <HAL_RCC_OscConfig+0x4e8>)
 800134c:	685b      	ldr	r3, [r3, #4]
 800134e:	60fb      	str	r3, [r7, #12]
            (READ_BIT(pll_config, RCC_PLLCFGR_PLLN) != (RCC_OscInitStruct->PLL.PLLN) << RCC_PLLCFGR_PLLN_Pos) ||
            (READ_BIT(pll_config, RCC_PLLCFGR_PLLP) != (((RCC_OscInitStruct->PLL.PLLP >> 1U) - 1U)) << RCC_PLLCFGR_PLLP_Pos) ||
            (READ_BIT(pll_config, RCC_PLLCFGR_PLLQ) != (RCC_OscInitStruct->PLL.PLLQ << RCC_PLLCFGR_PLLQ_Pos)) ||
            (READ_BIT(pll_config, RCC_PLLCFGR_PLLR) != (RCC_OscInitStruct->PLL.PLLR << RCC_PLLCFGR_PLLR_Pos)))
#else
        if (((RCC_OscInitStruct->PLL.PLLState) == RCC_PLL_OFF) ||
 8001350:	687b      	ldr	r3, [r7, #4]
 8001352:	699b      	ldr	r3, [r3, #24]
 8001354:	2b01      	cmp	r3, #1
 8001356:	d028      	beq.n	80013aa <HAL_RCC_OscConfig+0x4d6>
            (READ_BIT(pll_config, RCC_PLLCFGR_PLLSRC) != RCC_OscInitStruct->PLL.PLLSource) ||
 8001358:	68fb      	ldr	r3, [r7, #12]
 800135a:	f403 0280 	and.w	r2, r3, #4194304	; 0x400000
 800135e:	687b      	ldr	r3, [r7, #4]
 8001360:	69db      	ldr	r3, [r3, #28]
        if (((RCC_OscInitStruct->PLL.PLLState) == RCC_PLL_OFF) ||
 8001362:	429a      	cmp	r2, r3
 8001364:	d121      	bne.n	80013aa <HAL_RCC_OscConfig+0x4d6>
            (READ_BIT(pll_config, RCC_PLLCFGR_PLLM) != (RCC_OscInitStruct->PLL.PLLM) << RCC_PLLCFGR_PLLM_Pos) ||
 8001366:	68fb      	ldr	r3, [r7, #12]
 8001368:	f003 023f 	and.w	r2, r3, #63	; 0x3f
 800136c:	687b      	ldr	r3, [r7, #4]
 800136e:	6a1b      	ldr	r3, [r3, #32]
            (READ_BIT(pll_config, RCC_PLLCFGR_PLLSRC) != RCC_OscInitStruct->PLL.PLLSource) ||
 8001370:	429a      	cmp	r2, r3
 8001372:	d11a      	bne.n	80013aa <HAL_RCC_OscConfig+0x4d6>
            (READ_BIT(pll_config, RCC_PLLCFGR_PLLN) != (RCC_OscInitStruct->PLL.PLLN) << RCC_PLLCFGR_PLLN_Pos) ||
 8001374:	68fa      	ldr	r2, [r7, #12]
 8001376:	f647 73c0 	movw	r3, #32704	; 0x7fc0
 800137a:	4013      	ands	r3, r2
 800137c:	687a      	ldr	r2, [r7, #4]
 800137e:	6a52      	ldr	r2, [r2, #36]	; 0x24
 8001380:	0192      	lsls	r2, r2, #6
            (READ_BIT(pll_config, RCC_PLLCFGR_PLLM) != (RCC_OscInitStruct->PLL.PLLM) << RCC_PLLCFGR_PLLM_Pos) ||
 8001382:	4293      	cmp	r3, r2
 8001384:	d111      	bne.n	80013aa <HAL_RCC_OscConfig+0x4d6>
            (READ_BIT(pll_config, RCC_PLLCFGR_PLLP) != (((RCC_OscInitStruct->PLL.PLLP >> 1U) - 1U)) << RCC_PLLCFGR_PLLP_Pos) ||
 8001386:	68fb      	ldr	r3, [r7, #12]
 8001388:	f403 3240 	and.w	r2, r3, #196608	; 0x30000
 800138c:	687b      	ldr	r3, [r7, #4]
 800138e:	6a9b      	ldr	r3, [r3, #40]	; 0x28
 8001390:	085b      	lsrs	r3, r3, #1
 8001392:	3b01      	subs	r3, #1
 8001394:	041b      	lsls	r3, r3, #16
            (READ_BIT(pll_config, RCC_PLLCFGR_PLLN) != (RCC_OscInitStruct->PLL.PLLN) << RCC_PLLCFGR_PLLN_Pos) ||
 8001396:	429a      	cmp	r2, r3
 8001398:	d107      	bne.n	80013aa <HAL_RCC_OscConfig+0x4d6>
            (READ_BIT(pll_config, RCC_PLLCFGR_PLLQ) != (RCC_OscInitStruct->PLL.PLLQ << RCC_PLLCFGR_PLLQ_Pos)))
 800139a:	68fb      	ldr	r3, [r7, #12]
 800139c:	f003 6270 	and.w	r2, r3, #251658240	; 0xf000000
 80013a0:	687b      	ldr	r3, [r7, #4]
 80013a2:	6adb      	ldr	r3, [r3, #44]	; 0x2c
 80013a4:	061b      	lsls	r3, r3, #24
            (READ_BIT(pll_config, RCC_PLLCFGR_PLLP) != (((RCC_OscInitStruct->PLL.PLLP >> 1U) - 1U)) << RCC_PLLCFGR_PLLP_Pos) ||
 80013a6:	429a      	cmp	r2, r3
 80013a8:	d001      	beq.n	80013ae <HAL_RCC_OscConfig+0x4da>
#endif
        {
          return HAL_ERROR;
 80013aa:	2301      	movs	r3, #1
 80013ac:	e000      	b.n	80013b0 <HAL_RCC_OscConfig+0x4dc>
        }
      }
    }
  }
  return HAL_OK;
 80013ae:	2300      	movs	r3, #0
}
 80013b0:	4618      	mov	r0, r3
 80013b2:	3718      	adds	r7, #24
 80013b4:	46bd      	mov	sp, r7
 80013b6:	bd80      	pop	{r7, pc}
 80013b8:	40007000 	.word	0x40007000
 80013bc:	40023800 	.word	0x40023800
 80013c0:	42470060 	.word	0x42470060

080013c4 <HAL_RCC_ClockConfig>:
  *         HPRE[3:0] bits to ensure that HCLK not exceed the maximum allowed frequency
  *         (for more details refer to section above "Initialization/de-initialization functions")
  * @retval None
  */
HAL_StatusTypeDef HAL_RCC_ClockConfig(RCC_ClkInitTypeDef  *RCC_ClkInitStruct, uint32_t FLatency)
{
 80013c4:	b580      	push	{r7, lr}
 80013c6:	b084      	sub	sp, #16
 80013c8:	af00      	add	r7, sp, #0
 80013ca:	6078      	str	r0, [r7, #4]
 80013cc:	6039      	str	r1, [r7, #0]
  uint32_t tickstart;

  /* Check Null pointer */
  if(RCC_ClkInitStruct == NULL)
 80013ce:	687b      	ldr	r3, [r7, #4]
 80013d0:	2b00      	cmp	r3, #0
 80013d2:	d101      	bne.n	80013d8 <HAL_RCC_ClockConfig+0x14>
  {
    return HAL_ERROR;
 80013d4:	2301      	movs	r3, #1
 80013d6:	e0cc      	b.n	8001572 <HAL_RCC_ClockConfig+0x1ae>
  /* To correctly read data from FLASH memory, the number of wait states (LATENCY)
    must be correctly programmed according to the frequency of the CPU clock
    (HCLK) and the supply voltage of the device. */

  /* Increasing the number of wait states because of higher CPU frequency */
  if(FLatency > __HAL_FLASH_GET_LATENCY())
 80013d8:	4b68      	ldr	r3, [pc, #416]	; (800157c <HAL_RCC_ClockConfig+0x1b8>)
 80013da:	681b      	ldr	r3, [r3, #0]
 80013dc:	f003 0307 	and.w	r3, r3, #7
 80013e0:	683a      	ldr	r2, [r7, #0]
 80013e2:	429a      	cmp	r2, r3
 80013e4:	d90c      	bls.n	8001400 <HAL_RCC_ClockConfig+0x3c>
  {
    /* Program the new number of wait states to the LATENCY bits in the FLASH_ACR register */
    __HAL_FLASH_SET_LATENCY(FLatency);
 80013e6:	4b65      	ldr	r3, [pc, #404]	; (800157c <HAL_RCC_ClockConfig+0x1b8>)
 80013e8:	683a      	ldr	r2, [r7, #0]
 80013ea:	b2d2      	uxtb	r2, r2
 80013ec:	701a      	strb	r2, [r3, #0]

    /* Check that the new number of wait states is taken into account to access the Flash
    memory by reading the FLASH_ACR register */
    if(__HAL_FLASH_GET_LATENCY() != FLatency)
 80013ee:	4b63      	ldr	r3, [pc, #396]	; (800157c <HAL_RCC_ClockConfig+0x1b8>)
 80013f0:	681b      	ldr	r3, [r3, #0]
 80013f2:	f003 0307 	and.w	r3, r3, #7
 80013f6:	683a      	ldr	r2, [r7, #0]
 80013f8:	429a      	cmp	r2, r3
 80013fa:	d001      	beq.n	8001400 <HAL_RCC_ClockConfig+0x3c>
    {
      return HAL_ERROR;
 80013fc:	2301      	movs	r3, #1
 80013fe:	e0b8      	b.n	8001572 <HAL_RCC_ClockConfig+0x1ae>
    }
  }

  /*-------------------------- HCLK Configuration --------------------------*/
  if(((RCC_ClkInitStruct->ClockType) & RCC_CLOCKTYPE_HCLK) == RCC_CLOCKTYPE_HCLK)
 8001400:	687b      	ldr	r3, [r7, #4]
 8001402:	681b      	ldr	r3, [r3, #0]
 8001404:	f003 0302 	and.w	r3, r3, #2
 8001408:	2b00      	cmp	r3, #0
 800140a:	d020      	beq.n	800144e <HAL_RCC_ClockConfig+0x8a>
  {
    /* Set the highest APBx dividers in order to ensure that we do not go through
       a non-spec phase whatever we decrease or increase HCLK. */
    if(((RCC_ClkInitStruct->ClockType) & RCC_CLOCKTYPE_PCLK1) == RCC_CLOCKTYPE_PCLK1)
 800140c:	687b      	ldr	r3, [r7, #4]
 800140e:	681b      	ldr	r3, [r3, #0]
 8001410:	f003 0304 	and.w	r3, r3, #4
 8001414:	2b00      	cmp	r3, #0
 8001416:	d005      	beq.n	8001424 <HAL_RCC_ClockConfig+0x60>
    {
      MODIFY_REG(RCC->CFGR, RCC_CFGR_PPRE1, RCC_HCLK_DIV16);
 8001418:	4b59      	ldr	r3, [pc, #356]	; (8001580 <HAL_RCC_ClockConfig+0x1bc>)
 800141a:	689b      	ldr	r3, [r3, #8]
 800141c:	4a58      	ldr	r2, [pc, #352]	; (8001580 <HAL_RCC_ClockConfig+0x1bc>)
 800141e:	f443 53e0 	orr.w	r3, r3, #7168	; 0x1c00
 8001422:	6093      	str	r3, [r2, #8]
    }

    if(((RCC_ClkInitStruct->ClockType) & RCC_CLOCKTYPE_PCLK2) == RCC_CLOCKTYPE_PCLK2)
 8001424:	687b      	ldr	r3, [r7, #4]
 8001426:	681b      	ldr	r3, [r3, #0]
 8001428:	f003 0308 	and.w	r3, r3, #8
 800142c:	2b00      	cmp	r3, #0
 800142e:	d005      	beq.n	800143c <HAL_RCC_ClockConfig+0x78>
    {
      MODIFY_REG(RCC->CFGR, RCC_CFGR_PPRE2, (RCC_HCLK_DIV16 << 3));
 8001430:	4b53      	ldr	r3, [pc, #332]	; (8001580 <HAL_RCC_ClockConfig+0x1bc>)
 8001432:	689b      	ldr	r3, [r3, #8]
 8001434:	4a52      	ldr	r2, [pc, #328]	; (8001580 <HAL_RCC_ClockConfig+0x1bc>)
 8001436:	f443 4360 	orr.w	r3, r3, #57344	; 0xe000
 800143a:	6093      	str	r3, [r2, #8]
    }

    assert_param(IS_RCC_HCLK(RCC_ClkInitStruct->AHBCLKDivider));
    MODIFY_REG(RCC->CFGR, RCC_CFGR_HPRE, RCC_ClkInitStruct->AHBCLKDivider);
 800143c:	4b50      	ldr	r3, [pc, #320]	; (8001580 <HAL_RCC_ClockConfig+0x1bc>)
 800143e:	689b      	ldr	r3, [r3, #8]
 8001440:	f023 02f0 	bic.w	r2, r3, #240	; 0xf0
 8001444:	687b      	ldr	r3, [r7, #4]
 8001446:	689b      	ldr	r3, [r3, #8]
 8001448:	494d      	ldr	r1, [pc, #308]	; (8001580 <HAL_RCC_ClockConfig+0x1bc>)
 800144a:	4313      	orrs	r3, r2
 800144c:	608b      	str	r3, [r1, #8]
  }

  /*------------------------- SYSCLK Configuration ---------------------------*/
  if(((RCC_ClkInitStruct->ClockType) & RCC_CLOCKTYPE_SYSCLK) == RCC_CLOCKTYPE_SYSCLK)
 800144e:	687b      	ldr	r3, [r7, #4]
 8001450:	681b      	ldr	r3, [r3, #0]
 8001452:	f003 0301 	and.w	r3, r3, #1
 8001456:	2b00      	cmp	r3, #0
 8001458:	d044      	beq.n	80014e4 <HAL_RCC_ClockConfig+0x120>
  {
    assert_param(IS_RCC_SYSCLKSOURCE(RCC_ClkInitStruct->SYSCLKSource));

    /* HSE is selected as System Clock Source */
    if(RCC_ClkInitStruct->SYSCLKSource == RCC_SYSCLKSOURCE_HSE)
 800145a:	687b      	ldr	r3, [r7, #4]
 800145c:	685b      	ldr	r3, [r3, #4]
 800145e:	2b01      	cmp	r3, #1
 8001460:	d107      	bne.n	8001472 <HAL_RCC_ClockConfig+0xae>
    {
      /* Check the HSE ready flag */
      if(__HAL_RCC_GET_FLAG(RCC_FLAG_HSERDY) == RESET)
 8001462:	4b47      	ldr	r3, [pc, #284]	; (8001580 <HAL_RCC_ClockConfig+0x1bc>)
 8001464:	681b      	ldr	r3, [r3, #0]
 8001466:	f403 3300 	and.w	r3, r3, #131072	; 0x20000
 800146a:	2b00      	cmp	r3, #0
 800146c:	d119      	bne.n	80014a2 <HAL_RCC_ClockConfig+0xde>
      {
        return HAL_ERROR;
 800146e:	2301      	movs	r3, #1
 8001470:	e07f      	b.n	8001572 <HAL_RCC_ClockConfig+0x1ae>
      }
    }
    /* PLL is selected as System Clock Source */
    else if((RCC_ClkInitStruct->SYSCLKSource == RCC_SYSCLKSOURCE_PLLCLK)   ||
 8001472:	687b      	ldr	r3, [r7, #4]
 8001474:	685b      	ldr	r3, [r3, #4]
 8001476:	2b02      	cmp	r3, #2
 8001478:	d003      	beq.n	8001482 <HAL_RCC_ClockConfig+0xbe>
            (RCC_ClkInitStruct->SYSCLKSource == RCC_SYSCLKSOURCE_PLLRCLK))
 800147a:	687b      	ldr	r3, [r7, #4]
 800147c:	685b      	ldr	r3, [r3, #4]
    else if((RCC_ClkInitStruct->SYSCLKSource == RCC_SYSCLKSOURCE_PLLCLK)   ||
 800147e:	2b03      	cmp	r3, #3
 8001480:	d107      	bne.n	8001492 <HAL_RCC_ClockConfig+0xce>
    {
      /* Check the PLL ready flag */
      if(__HAL_RCC_GET_FLAG(RCC_FLAG_PLLRDY) == RESET)
 8001482:	4b3f      	ldr	r3, [pc, #252]	; (8001580 <HAL_RCC_ClockConfig+0x1bc>)
 8001484:	681b      	ldr	r3, [r3, #0]
 8001486:	f003 7300 	and.w	r3, r3, #33554432	; 0x2000000
 800148a:	2b00      	cmp	r3, #0
 800148c:	d109      	bne.n	80014a2 <HAL_RCC_ClockConfig+0xde>
      {
        return HAL_ERROR;
 800148e:	2301      	movs	r3, #1
 8001490:	e06f      	b.n	8001572 <HAL_RCC_ClockConfig+0x1ae>
    }
    /* HSI is selected as System Clock Source */
    else
    {
      /* Check the HSI ready flag */
      if(__HAL_RCC_GET_FLAG(RCC_FLAG_HSIRDY) == RESET)
 8001492:	4b3b      	ldr	r3, [pc, #236]	; (8001580 <HAL_RCC_ClockConfig+0x1bc>)
 8001494:	681b      	ldr	r3, [r3, #0]
 8001496:	f003 0302 	and.w	r3, r3, #2
 800149a:	2b00      	cmp	r3, #0
 800149c:	d101      	bne.n	80014a2 <HAL_RCC_ClockConfig+0xde>
      {
        return HAL_ERROR;
 800149e:	2301      	movs	r3, #1
 80014a0:	e067      	b.n	8001572 <HAL_RCC_ClockConfig+0x1ae>
      }
    }

    __HAL_RCC_SYSCLK_CONFIG(RCC_ClkInitStruct->SYSCLKSource);
 80014a2:	4b37      	ldr	r3, [pc, #220]	; (8001580 <HAL_RCC_ClockConfig+0x1bc>)
 80014a4:	689b      	ldr	r3, [r3, #8]
 80014a6:	f023 0203 	bic.w	r2, r3, #3
 80014aa:	687b      	ldr	r3, [r7, #4]
 80014ac:	685b      	ldr	r3, [r3, #4]
 80014ae:	4934      	ldr	r1, [pc, #208]	; (8001580 <HAL_RCC_ClockConfig+0x1bc>)
 80014b0:	4313      	orrs	r3, r2
 80014b2:	608b      	str	r3, [r1, #8]

    /* Get Start Tick */
    tickstart = HAL_GetTick();
 80014b4:	f7ff fa46 	bl	8000944 <HAL_GetTick>
 80014b8:	60f8      	str	r0, [r7, #12]

    while (__HAL_RCC_GET_SYSCLK_SOURCE() != (RCC_ClkInitStruct->SYSCLKSource << RCC_CFGR_SWS_Pos))
 80014ba:	e00a      	b.n	80014d2 <HAL_RCC_ClockConfig+0x10e>
    {
      if ((HAL_GetTick() - tickstart) > CLOCKSWITCH_TIMEOUT_VALUE)
 80014bc:	f7ff fa42 	bl	8000944 <HAL_GetTick>
 80014c0:	4602      	mov	r2, r0
 80014c2:	68fb      	ldr	r3, [r7, #12]
 80014c4:	1ad3      	subs	r3, r2, r3
 80014c6:	f241 3288 	movw	r2, #5000	; 0x1388
 80014ca:	4293      	cmp	r3, r2
 80014cc:	d901      	bls.n	80014d2 <HAL_RCC_ClockConfig+0x10e>
      {
        return HAL_TIMEOUT;
 80014ce:	2303      	movs	r3, #3
 80014d0:	e04f      	b.n	8001572 <HAL_RCC_ClockConfig+0x1ae>
    while (__HAL_RCC_GET_SYSCLK_SOURCE() != (RCC_ClkInitStruct->SYSCLKSource << RCC_CFGR_SWS_Pos))
 80014d2:	4b2b      	ldr	r3, [pc, #172]	; (8001580 <HAL_RCC_ClockConfig+0x1bc>)
 80014d4:	689b      	ldr	r3, [r3, #8]
 80014d6:	f003 020c 	and.w	r2, r3, #12
 80014da:	687b      	ldr	r3, [r7, #4]
 80014dc:	685b      	ldr	r3, [r3, #4]
 80014de:	009b      	lsls	r3, r3, #2
 80014e0:	429a      	cmp	r2, r3
 80014e2:	d1eb      	bne.n	80014bc <HAL_RCC_ClockConfig+0xf8>
      }
    }
  }

  /* Decreasing the number of wait states because of lower CPU frequency */
  if(FLatency < __HAL_FLASH_GET_LATENCY())
 80014e4:	4b25      	ldr	r3, [pc, #148]	; (800157c <HAL_RCC_ClockConfig+0x1b8>)
 80014e6:	681b      	ldr	r3, [r3, #0]
 80014e8:	f003 0307 	and.w	r3, r3, #7
 80014ec:	683a      	ldr	r2, [r7, #0]
 80014ee:	429a      	cmp	r2, r3
 80014f0:	d20c      	bcs.n	800150c <HAL_RCC_ClockConfig+0x148>
  {
     /* Program the new number of wait states to the LATENCY bits in the FLASH_ACR register */
    __HAL_FLASH_SET_LATENCY(FLatency);
 80014f2:	4b22      	ldr	r3, [pc, #136]	; (800157c <HAL_RCC_ClockConfig+0x1b8>)
 80014f4:	683a      	ldr	r2, [r7, #0]
 80014f6:	b2d2      	uxtb	r2, r2
 80014f8:	701a      	strb	r2, [r3, #0]

    /* Check that the new number of wait states is taken into account to access the Flash
    memory by reading the FLASH_ACR register */
    if(__HAL_FLASH_GET_LATENCY() != FLatency)
 80014fa:	4b20      	ldr	r3, [pc, #128]	; (800157c <HAL_RCC_ClockConfig+0x1b8>)
 80014fc:	681b      	ldr	r3, [r3, #0]
 80014fe:	f003 0307 	and.w	r3, r3, #7
 8001502:	683a      	ldr	r2, [r7, #0]
 8001504:	429a      	cmp	r2, r3
 8001506:	d001      	beq.n	800150c <HAL_RCC_ClockConfig+0x148>
    {
      return HAL_ERROR;
 8001508:	2301      	movs	r3, #1
 800150a:	e032      	b.n	8001572 <HAL_RCC_ClockConfig+0x1ae>
    }
  }

  /*-------------------------- PCLK1 Configuration ---------------------------*/
  if(((RCC_ClkInitStruct->ClockType) & RCC_CLOCKTYPE_PCLK1) == RCC_CLOCKTYPE_PCLK1)
 800150c:	687b      	ldr	r3, [r7, #4]
 800150e:	681b      	ldr	r3, [r3, #0]
 8001510:	f003 0304 	and.w	r3, r3, #4
 8001514:	2b00      	cmp	r3, #0
 8001516:	d008      	beq.n	800152a <HAL_RCC_ClockConfig+0x166>
  {
    assert_param(IS_RCC_PCLK(RCC_ClkInitStruct->APB1CLKDivider));
    MODIFY_REG(RCC->CFGR, RCC_CFGR_PPRE1, RCC_ClkInitStruct->APB1CLKDivider);
 8001518:	4b19      	ldr	r3, [pc, #100]	; (8001580 <HAL_RCC_ClockConfig+0x1bc>)
 800151a:	689b      	ldr	r3, [r3, #8]
 800151c:	f423 52e0 	bic.w	r2, r3, #7168	; 0x1c00
 8001520:	687b      	ldr	r3, [r7, #4]
 8001522:	68db      	ldr	r3, [r3, #12]
 8001524:	4916      	ldr	r1, [pc, #88]	; (8001580 <HAL_RCC_ClockConfig+0x1bc>)
 8001526:	4313      	orrs	r3, r2
 8001528:	608b      	str	r3, [r1, #8]
  }

  /*-------------------------- PCLK2 Configuration ---------------------------*/
  if(((RCC_ClkInitStruct->ClockType) & RCC_CLOCKTYPE_PCLK2) == RCC_CLOCKTYPE_PCLK2)
 800152a:	687b      	ldr	r3, [r7, #4]
 800152c:	681b      	ldr	r3, [r3, #0]
 800152e:	f003 0308 	and.w	r3, r3, #8
 8001532:	2b00      	cmp	r3, #0
 8001534:	d009      	beq.n	800154a <HAL_RCC_ClockConfig+0x186>
  {
    assert_param(IS_RCC_PCLK(RCC_ClkInitStruct->APB2CLKDivider));
    MODIFY_REG(RCC->CFGR, RCC_CFGR_PPRE2, ((RCC_ClkInitStruct->APB2CLKDivider) << 3U));
 8001536:	4b12      	ldr	r3, [pc, #72]	; (8001580 <HAL_RCC_ClockConfig+0x1bc>)
 8001538:	689b      	ldr	r3, [r3, #8]
 800153a:	f423 4260 	bic.w	r2, r3, #57344	; 0xe000
 800153e:	687b      	ldr	r3, [r7, #4]
 8001540:	691b      	ldr	r3, [r3, #16]
 8001542:	00db      	lsls	r3, r3, #3
 8001544:	490e      	ldr	r1, [pc, #56]	; (8001580 <HAL_RCC_ClockConfig+0x1bc>)
 8001546:	4313      	orrs	r3, r2
 8001548:	608b      	str	r3, [r1, #8]
  }

  /* Update the SystemCoreClock global variable */
  SystemCoreClock = HAL_RCC_GetSysClockFreq() >> AHBPrescTable[(RCC->CFGR & RCC_CFGR_HPRE)>> RCC_CFGR_HPRE_Pos];
 800154a:	f000 f821 	bl	8001590 <HAL_RCC_GetSysClockFreq>
 800154e:	4602      	mov	r2, r0
 8001550:	4b0b      	ldr	r3, [pc, #44]	; (8001580 <HAL_RCC_ClockConfig+0x1bc>)
 8001552:	689b      	ldr	r3, [r3, #8]
 8001554:	091b      	lsrs	r3, r3, #4
 8001556:	f003 030f 	and.w	r3, r3, #15
 800155a:	490a      	ldr	r1, [pc, #40]	; (8001584 <HAL_RCC_ClockConfig+0x1c0>)
 800155c:	5ccb      	ldrb	r3, [r1, r3]
 800155e:	fa22 f303 	lsr.w	r3, r2, r3
 8001562:	4a09      	ldr	r2, [pc, #36]	; (8001588 <HAL_RCC_ClockConfig+0x1c4>)
 8001564:	6013      	str	r3, [r2, #0]

  /* Configure the source of time base considering new system clocks settings */
  HAL_InitTick (uwTickPrio);
 8001566:	4b09      	ldr	r3, [pc, #36]	; (800158c <HAL_RCC_ClockConfig+0x1c8>)
 8001568:	681b      	ldr	r3, [r3, #0]
 800156a:	4618      	mov	r0, r3
 800156c:	f7ff f8e8 	bl	8000740 <HAL_InitTick>

  return HAL_OK;
 8001570:	2300      	movs	r3, #0
}
 8001572:	4618      	mov	r0, r3
 8001574:	3710      	adds	r7, #16
 8001576:	46bd      	mov	sp, r7
 8001578:	bd80      	pop	{r7, pc}
 800157a:	bf00      	nop
 800157c:	40023c00 	.word	0x40023c00
 8001580:	40023800 	.word	0x40023800
 8001584:	08001dc4 	.word	0x08001dc4
 8001588:	20000000 	.word	0x20000000
 800158c:	20000004 	.word	0x20000004

08001590 <HAL_RCC_GetSysClockFreq>:
  *
  *
  * @retval SYSCLK frequency
  */
__weak uint32_t HAL_RCC_GetSysClockFreq(void)
{
 8001590:	e92d 43b0 	stmdb	sp!, {r4, r5, r7, r8, r9, lr}
 8001594:	b084      	sub	sp, #16
 8001596:	af00      	add	r7, sp, #0
  uint32_t pllm = 0U, pllvco = 0U, pllp = 0U;
 8001598:	2300      	movs	r3, #0
 800159a:	607b      	str	r3, [r7, #4]
 800159c:	2300      	movs	r3, #0
 800159e:	60fb      	str	r3, [r7, #12]
 80015a0:	2300      	movs	r3, #0
 80015a2:	603b      	str	r3, [r7, #0]
  uint32_t sysclockfreq = 0U;
 80015a4:	2300      	movs	r3, #0
 80015a6:	60bb      	str	r3, [r7, #8]

  /* Get SYSCLK source -------------------------------------------------------*/
  switch (RCC->CFGR & RCC_CFGR_SWS)
 80015a8:	4b67      	ldr	r3, [pc, #412]	; (8001748 <HAL_RCC_GetSysClockFreq+0x1b8>)
 80015aa:	689b      	ldr	r3, [r3, #8]
 80015ac:	f003 030c 	and.w	r3, r3, #12
 80015b0:	2b08      	cmp	r3, #8
 80015b2:	d00d      	beq.n	80015d0 <HAL_RCC_GetSysClockFreq+0x40>
 80015b4:	2b08      	cmp	r3, #8
 80015b6:	f200 80bd 	bhi.w	8001734 <HAL_RCC_GetSysClockFreq+0x1a4>
 80015ba:	2b00      	cmp	r3, #0
 80015bc:	d002      	beq.n	80015c4 <HAL_RCC_GetSysClockFreq+0x34>
 80015be:	2b04      	cmp	r3, #4
 80015c0:	d003      	beq.n	80015ca <HAL_RCC_GetSysClockFreq+0x3a>
 80015c2:	e0b7      	b.n	8001734 <HAL_RCC_GetSysClockFreq+0x1a4>
  {
    case RCC_CFGR_SWS_HSI:  /* HSI used as system clock source */
    {
      sysclockfreq = HSI_VALUE;
 80015c4:	4b61      	ldr	r3, [pc, #388]	; (800174c <HAL_RCC_GetSysClockFreq+0x1bc>)
 80015c6:	60bb      	str	r3, [r7, #8]
       break;
 80015c8:	e0b7      	b.n	800173a <HAL_RCC_GetSysClockFreq+0x1aa>
    }
    case RCC_CFGR_SWS_HSE:  /* HSE used as system clock  source */
    {
      sysclockfreq = HSE_VALUE;
 80015ca:	4b61      	ldr	r3, [pc, #388]	; (8001750 <HAL_RCC_GetSysClockFreq+0x1c0>)
 80015cc:	60bb      	str	r3, [r7, #8]
      break;
 80015ce:	e0b4      	b.n	800173a <HAL_RCC_GetSysClockFreq+0x1aa>
    }
    case RCC_CFGR_SWS_PLL:  /* PLL used as system clock  source */
    {
      /* PLL_VCO = (HSE_VALUE or HSI_VALUE / PLLM) * PLLN
      SYSCLK = PLL_VCO / PLLP */
      pllm = RCC->PLLCFGR & RCC_PLLCFGR_PLLM;
 80015d0:	4b5d      	ldr	r3, [pc, #372]	; (8001748 <HAL_RCC_GetSysClockFreq+0x1b8>)
 80015d2:	685b      	ldr	r3, [r3, #4]
 80015d4:	f003 033f 	and.w	r3, r3, #63	; 0x3f
 80015d8:	607b      	str	r3, [r7, #4]
      if(__HAL_RCC_GET_PLL_OSCSOURCE() != RCC_PLLSOURCE_HSI)
 80015da:	4b5b      	ldr	r3, [pc, #364]	; (8001748 <HAL_RCC_GetSysClockFreq+0x1b8>)
 80015dc:	685b      	ldr	r3, [r3, #4]
 80015de:	f403 0380 	and.w	r3, r3, #4194304	; 0x400000
 80015e2:	2b00      	cmp	r3, #0
 80015e4:	d04d      	beq.n	8001682 <HAL_RCC_GetSysClockFreq+0xf2>
      {
        /* HSE used as PLL clock source */
        pllvco = (uint32_t) ((((uint64_t) HSE_VALUE * ((uint64_t) ((RCC->PLLCFGR & RCC_PLLCFGR_PLLN) >> RCC_PLLCFGR_PLLN_Pos)))) / (uint64_t)pllm);
 80015e6:	4b58      	ldr	r3, [pc, #352]	; (8001748 <HAL_RCC_GetSysClockFreq+0x1b8>)
 80015e8:	685b      	ldr	r3, [r3, #4]
 80015ea:	099b      	lsrs	r3, r3, #6
 80015ec:	461a      	mov	r2, r3
 80015ee:	f04f 0300 	mov.w	r3, #0
 80015f2:	f240 10ff 	movw	r0, #511	; 0x1ff
 80015f6:	f04f 0100 	mov.w	r1, #0
 80015fa:	ea02 0800 	and.w	r8, r2, r0
 80015fe:	ea03 0901 	and.w	r9, r3, r1
 8001602:	4640      	mov	r0, r8
 8001604:	4649      	mov	r1, r9
 8001606:	f04f 0200 	mov.w	r2, #0
 800160a:	f04f 0300 	mov.w	r3, #0
 800160e:	014b      	lsls	r3, r1, #5
 8001610:	ea43 63d0 	orr.w	r3, r3, r0, lsr #27
 8001614:	0142      	lsls	r2, r0, #5
 8001616:	4610      	mov	r0, r2
 8001618:	4619      	mov	r1, r3
 800161a:	ebb0 0008 	subs.w	r0, r0, r8
 800161e:	eb61 0109 	sbc.w	r1, r1, r9
 8001622:	f04f 0200 	mov.w	r2, #0
 8001626:	f04f 0300 	mov.w	r3, #0
 800162a:	018b      	lsls	r3, r1, #6
 800162c:	ea43 6390 	orr.w	r3, r3, r0, lsr #26
 8001630:	0182      	lsls	r2, r0, #6
 8001632:	1a12      	subs	r2, r2, r0
 8001634:	eb63 0301 	sbc.w	r3, r3, r1
 8001638:	f04f 0000 	mov.w	r0, #0
 800163c:	f04f 0100 	mov.w	r1, #0
 8001640:	00d9      	lsls	r1, r3, #3
 8001642:	ea41 7152 	orr.w	r1, r1, r2, lsr #29
 8001646:	00d0      	lsls	r0, r2, #3
 8001648:	4602      	mov	r2, r0
 800164a:	460b      	mov	r3, r1
 800164c:	eb12 0208 	adds.w	r2, r2, r8
 8001650:	eb43 0309 	adc.w	r3, r3, r9
 8001654:	f04f 0000 	mov.w	r0, #0
 8001658:	f04f 0100 	mov.w	r1, #0
 800165c:	0259      	lsls	r1, r3, #9
 800165e:	ea41 51d2 	orr.w	r1, r1, r2, lsr #23
 8001662:	0250      	lsls	r0, r2, #9
 8001664:	4602      	mov	r2, r0
 8001666:	460b      	mov	r3, r1
 8001668:	4610      	mov	r0, r2
 800166a:	4619      	mov	r1, r3
 800166c:	687b      	ldr	r3, [r7, #4]
 800166e:	461a      	mov	r2, r3
 8001670:	f04f 0300 	mov.w	r3, #0
 8001674:	f7fe fda8 	bl	80001c8 <__aeabi_uldivmod>
 8001678:	4602      	mov	r2, r0
 800167a:	460b      	mov	r3, r1
 800167c:	4613      	mov	r3, r2
 800167e:	60fb      	str	r3, [r7, #12]
 8001680:	e04a      	b.n	8001718 <HAL_RCC_GetSysClockFreq+0x188>
      }
      else
      {
        /* HSI used as PLL clock source */
        pllvco = (uint32_t) ((((uint64_t) HSI_VALUE * ((uint64_t) ((RCC->PLLCFGR & RCC_PLLCFGR_PLLN) >> RCC_PLLCFGR_PLLN_Pos)))) / (uint64_t)pllm);
 8001682:	4b31      	ldr	r3, [pc, #196]	; (8001748 <HAL_RCC_GetSysClockFreq+0x1b8>)
 8001684:	685b      	ldr	r3, [r3, #4]
 8001686:	099b      	lsrs	r3, r3, #6
 8001688:	461a      	mov	r2, r3
 800168a:	f04f 0300 	mov.w	r3, #0
 800168e:	f240 10ff 	movw	r0, #511	; 0x1ff
 8001692:	f04f 0100 	mov.w	r1, #0
 8001696:	ea02 0400 	and.w	r4, r2, r0
 800169a:	ea03 0501 	and.w	r5, r3, r1
 800169e:	4620      	mov	r0, r4
 80016a0:	4629      	mov	r1, r5
 80016a2:	f04f 0200 	mov.w	r2, #0
 80016a6:	f04f 0300 	mov.w	r3, #0
 80016aa:	014b      	lsls	r3, r1, #5
 80016ac:	ea43 63d0 	orr.w	r3, r3, r0, lsr #27
 80016b0:	0142      	lsls	r2, r0, #5
 80016b2:	4610      	mov	r0, r2
 80016b4:	4619      	mov	r1, r3
 80016b6:	1b00      	subs	r0, r0, r4
 80016b8:	eb61 0105 	sbc.w	r1, r1, r5
 80016bc:	f04f 0200 	mov.w	r2, #0
 80016c0:	f04f 0300 	mov.w	r3, #0
 80016c4:	018b      	lsls	r3, r1, #6
 80016c6:	ea43 6390 	orr.w	r3, r3, r0, lsr #26
 80016ca:	0182      	lsls	r2, r0, #6
 80016cc:	1a12      	subs	r2, r2, r0
 80016ce:	eb63 0301 	sbc.w	r3, r3, r1
 80016d2:	f04f 0000 	mov.w	r0, #0
 80016d6:	f04f 0100 	mov.w	r1, #0
 80016da:	00d9      	lsls	r1, r3, #3
 80016dc:	ea41 7152 	orr.w	r1, r1, r2, lsr #29
 80016e0:	00d0      	lsls	r0, r2, #3
 80016e2:	4602      	mov	r2, r0
 80016e4:	460b      	mov	r3, r1
 80016e6:	1912      	adds	r2, r2, r4
 80016e8:	eb45 0303 	adc.w	r3, r5, r3
 80016ec:	f04f 0000 	mov.w	r0, #0
 80016f0:	f04f 0100 	mov.w	r1, #0
 80016f4:	0299      	lsls	r1, r3, #10
 80016f6:	ea41 5192 	orr.w	r1, r1, r2, lsr #22
 80016fa:	0290      	lsls	r0, r2, #10
 80016fc:	4602      	mov	r2, r0
 80016fe:	460b      	mov	r3, r1
 8001700:	4610      	mov	r0, r2
 8001702:	4619      	mov	r1, r3
 8001704:	687b      	ldr	r3, [r7, #4]
 8001706:	461a      	mov	r2, r3
 8001708:	f04f 0300 	mov.w	r3, #0
 800170c:	f7fe fd5c 	bl	80001c8 <__aeabi_uldivmod>
 8001710:	4602      	mov	r2, r0
 8001712:	460b      	mov	r3, r1
 8001714:	4613      	mov	r3, r2
 8001716:	60fb      	str	r3, [r7, #12]
      }
      pllp = ((((RCC->PLLCFGR & RCC_PLLCFGR_PLLP) >> RCC_PLLCFGR_PLLP_Pos) + 1U) *2U);
 8001718:	4b0b      	ldr	r3, [pc, #44]	; (8001748 <HAL_RCC_GetSysClockFreq+0x1b8>)
 800171a:	685b      	ldr	r3, [r3, #4]
 800171c:	0c1b      	lsrs	r3, r3, #16
 800171e:	f003 0303 	and.w	r3, r3, #3
 8001722:	3301      	adds	r3, #1
 8001724:	005b      	lsls	r3, r3, #1
 8001726:	603b      	str	r3, [r7, #0]

      sysclockfreq = pllvco/pllp;
 8001728:	68fa      	ldr	r2, [r7, #12]
 800172a:	683b      	ldr	r3, [r7, #0]
 800172c:	fbb2 f3f3 	udiv	r3, r2, r3
 8001730:	60bb      	str	r3, [r7, #8]
      break;
 8001732:	e002      	b.n	800173a <HAL_RCC_GetSysClockFreq+0x1aa>
    }
    default:
    {
      sysclockfreq = HSI_VALUE;
 8001734:	4b05      	ldr	r3, [pc, #20]	; (800174c <HAL_RCC_GetSysClockFreq+0x1bc>)
 8001736:	60bb      	str	r3, [r7, #8]
      break;
 8001738:	bf00      	nop
    }
  }
  return sysclockfreq;
 800173a:	68bb      	ldr	r3, [r7, #8]
}
 800173c:	4618      	mov	r0, r3
 800173e:	3710      	adds	r7, #16
 8001740:	46bd      	mov	sp, r7
 8001742:	e8bd 83b0 	ldmia.w	sp!, {r4, r5, r7, r8, r9, pc}
 8001746:	bf00      	nop
 8001748:	40023800 	.word	0x40023800
 800174c:	00f42400 	.word	0x00f42400
 8001750:	007a1200 	.word	0x007a1200

08001754 <HAL_RCC_GetHCLKFreq>:
  * @note   The SystemCoreClock CMSIS variable is used to store System Clock Frequency
  *         and updated within this function
  * @retval HCLK frequency
  */
uint32_t HAL_RCC_GetHCLKFreq(void)
{
 8001754:	b480      	push	{r7}
 8001756:	af00      	add	r7, sp, #0
  return SystemCoreClock;
 8001758:	4b03      	ldr	r3, [pc, #12]	; (8001768 <HAL_RCC_GetHCLKFreq+0x14>)
 800175a:	681b      	ldr	r3, [r3, #0]
}
 800175c:	4618      	mov	r0, r3
 800175e:	46bd      	mov	sp, r7
 8001760:	f85d 7b04 	ldr.w	r7, [sp], #4
 8001764:	4770      	bx	lr
 8001766:	bf00      	nop
 8001768:	20000000 	.word	0x20000000

0800176c <HAL_RCC_GetPCLK2Freq>:
  * @note   Each time PCLK2 changes, this function must be called to update the
  *         right PCLK2 value. Otherwise, any configuration based on this function will be incorrect.
  * @retval PCLK2 frequency
  */
uint32_t HAL_RCC_GetPCLK2Freq(void)
{
 800176c:	b580      	push	{r7, lr}
 800176e:	af00      	add	r7, sp, #0
  /* Get HCLK source and Compute PCLK2 frequency ---------------------------*/
  return (HAL_RCC_GetHCLKFreq()>> APBPrescTable[(RCC->CFGR & RCC_CFGR_PPRE2)>> RCC_CFGR_PPRE2_Pos]);
 8001770:	f7ff fff0 	bl	8001754 <HAL_RCC_GetHCLKFreq>
 8001774:	4602      	mov	r2, r0
 8001776:	4b05      	ldr	r3, [pc, #20]	; (800178c <HAL_RCC_GetPCLK2Freq+0x20>)
 8001778:	689b      	ldr	r3, [r3, #8]
 800177a:	0b5b      	lsrs	r3, r3, #13
 800177c:	f003 0307 	and.w	r3, r3, #7
 8001780:	4903      	ldr	r1, [pc, #12]	; (8001790 <HAL_RCC_GetPCLK2Freq+0x24>)
 8001782:	5ccb      	ldrb	r3, [r1, r3]
 8001784:	fa22 f303 	lsr.w	r3, r2, r3
}
 8001788:	4618      	mov	r0, r3
 800178a:	bd80      	pop	{r7, pc}
 800178c:	40023800 	.word	0x40023800
 8001790:	08001dd4 	.word	0x08001dd4

08001794 <HAL_RCC_GetClockConfig>:
  * will be configured.
  * @param  pFLatency Pointer on the Flash Latency.
  * @retval None
  */
void HAL_RCC_GetClockConfig(RCC_ClkInitTypeDef  *RCC_ClkInitStruct, uint32_t *pFLatency)
{
 8001794:	b480      	push	{r7}
 8001796:	b083      	sub	sp, #12
 8001798:	af00      	add	r7, sp, #0
 800179a:	6078      	str	r0, [r7, #4]
 800179c:	6039      	str	r1, [r7, #0]
  /* Set all possible values for the Clock type parameter --------------------*/
  RCC_ClkInitStruct->ClockType = RCC_CLOCKTYPE_SYSCLK | RCC_CLOCKTYPE_HCLK | RCC_CLOCKTYPE_PCLK1 | RCC_CLOCKTYPE_PCLK2;
 800179e:	687b      	ldr	r3, [r7, #4]
 80017a0:	220f      	movs	r2, #15
 80017a2:	601a      	str	r2, [r3, #0]

  /* Get the SYSCLK configuration --------------------------------------------*/
  RCC_ClkInitStruct->SYSCLKSource = (uint32_t)(RCC->CFGR & RCC_CFGR_SW);
 80017a4:	4b12      	ldr	r3, [pc, #72]	; (80017f0 <HAL_RCC_GetClockConfig+0x5c>)
 80017a6:	689b      	ldr	r3, [r3, #8]
 80017a8:	f003 0203 	and.w	r2, r3, #3
 80017ac:	687b      	ldr	r3, [r7, #4]
 80017ae:	605a      	str	r2, [r3, #4]

  /* Get the HCLK configuration ----------------------------------------------*/
  RCC_ClkInitStruct->AHBCLKDivider = (uint32_t)(RCC->CFGR & RCC_CFGR_HPRE);
 80017b0:	4b0f      	ldr	r3, [pc, #60]	; (80017f0 <HAL_RCC_GetClockConfig+0x5c>)
 80017b2:	689b      	ldr	r3, [r3, #8]
 80017b4:	f003 02f0 	and.w	r2, r3, #240	; 0xf0
 80017b8:	687b      	ldr	r3, [r7, #4]
 80017ba:	609a      	str	r2, [r3, #8]

  /* Get the APB1 configuration ----------------------------------------------*/
  RCC_ClkInitStruct->APB1CLKDivider = (uint32_t)(RCC->CFGR & RCC_CFGR_PPRE1);
 80017bc:	4b0c      	ldr	r3, [pc, #48]	; (80017f0 <HAL_RCC_GetClockConfig+0x5c>)
 80017be:	689b      	ldr	r3, [r3, #8]
 80017c0:	f403 52e0 	and.w	r2, r3, #7168	; 0x1c00
 80017c4:	687b      	ldr	r3, [r7, #4]
 80017c6:	60da      	str	r2, [r3, #12]

  /* Get the APB2 configuration ----------------------------------------------*/
  RCC_ClkInitStruct->APB2CLKDivider = (uint32_t)((RCC->CFGR & RCC_CFGR_PPRE2) >> 3U);
 80017c8:	4b09      	ldr	r3, [pc, #36]	; (80017f0 <HAL_RCC_GetClockConfig+0x5c>)
 80017ca:	689b      	ldr	r3, [r3, #8]
 80017cc:	08db      	lsrs	r3, r3, #3
 80017ce:	f403 52e0 	and.w	r2, r3, #7168	; 0x1c00
 80017d2:	687b      	ldr	r3, [r7, #4]
 80017d4:	611a      	str	r2, [r3, #16]

  /* Get the Flash Wait State (Latency) configuration ------------------------*/
  *pFLatency = (uint32_t)(FLASH->ACR & FLASH_ACR_LATENCY);
 80017d6:	4b07      	ldr	r3, [pc, #28]	; (80017f4 <HAL_RCC_GetClockConfig+0x60>)
 80017d8:	681b      	ldr	r3, [r3, #0]
 80017da:	f003 0207 	and.w	r2, r3, #7
 80017de:	683b      	ldr	r3, [r7, #0]
 80017e0:	601a      	str	r2, [r3, #0]
}
 80017e2:	bf00      	nop
 80017e4:	370c      	adds	r7, #12
 80017e6:	46bd      	mov	sp, r7
 80017e8:	f85d 7b04 	ldr.w	r7, [sp], #4
 80017ec:	4770      	bx	lr
 80017ee:	bf00      	nop
 80017f0:	40023800 	.word	0x40023800
 80017f4:	40023c00 	.word	0x40023c00

080017f8 <HAL_TIM_Base_Init>:
  *         Ex: call @ref HAL_TIM_Base_DeInit() before HAL_TIM_Base_Init()
  * @param  htim TIM Base handle
  * @retval HAL status
  */
HAL_StatusTypeDef HAL_TIM_Base_Init(TIM_HandleTypeDef *htim)
{
 80017f8:	b580      	push	{r7, lr}
 80017fa:	b082      	sub	sp, #8
 80017fc:	af00      	add	r7, sp, #0
 80017fe:	6078      	str	r0, [r7, #4]
  /* Check the TIM handle allocation */
  if (htim == NULL)
 8001800:	687b      	ldr	r3, [r7, #4]
 8001802:	2b00      	cmp	r3, #0
 8001804:	d101      	bne.n	800180a <HAL_TIM_Base_Init+0x12>
  {
    return HAL_ERROR;
 8001806:	2301      	movs	r3, #1
 8001808:	e041      	b.n	800188e <HAL_TIM_Base_Init+0x96>
  assert_param(IS_TIM_INSTANCE(htim->Instance));
  assert_param(IS_TIM_COUNTER_MODE(htim->Init.CounterMode));
  assert_param(IS_TIM_CLOCKDIVISION_DIV(htim->Init.ClockDivision));
  assert_param(IS_TIM_AUTORELOAD_PRELOAD(htim->Init.AutoReloadPreload));

  if (htim->State == HAL_TIM_STATE_RESET)
 800180a:	687b      	ldr	r3, [r7, #4]
 800180c:	f893 303d 	ldrb.w	r3, [r3, #61]	; 0x3d
 8001810:	b2db      	uxtb	r3, r3
 8001812:	2b00      	cmp	r3, #0
 8001814:	d106      	bne.n	8001824 <HAL_TIM_Base_Init+0x2c>
  {
    /* Allocate lock resource and initialize it */
    htim->Lock = HAL_UNLOCKED;
 8001816:	687b      	ldr	r3, [r7, #4]
 8001818:	2200      	movs	r2, #0
 800181a:	f883 203c 	strb.w	r2, [r3, #60]	; 0x3c
    }
    /* Init the low level hardware : GPIO, CLOCK, NVIC */
    htim->Base_MspInitCallback(htim);
#else
    /* Init the low level hardware : GPIO, CLOCK, NVIC */
    HAL_TIM_Base_MspInit(htim);
 800181e:	6878      	ldr	r0, [r7, #4]
 8001820:	f000 f839 	bl	8001896 <HAL_TIM_Base_MspInit>
#endif /* USE_HAL_TIM_REGISTER_CALLBACKS */
  }

  /* Set the TIM state */
  htim->State = HAL_TIM_STATE_BUSY;
 8001824:	687b      	ldr	r3, [r7, #4]
 8001826:	2202      	movs	r2, #2
 8001828:	f883 203d 	strb.w	r2, [r3, #61]	; 0x3d

  /* Set the Time Base configuration */
  TIM_Base_SetConfig(htim->Instance, &htim->Init);
 800182c:	687b      	ldr	r3, [r7, #4]
 800182e:	681a      	ldr	r2, [r3, #0]
 8001830:	687b      	ldr	r3, [r7, #4]
 8001832:	3304      	adds	r3, #4
 8001834:	4619      	mov	r1, r3
 8001836:	4610      	mov	r0, r2
 8001838:	f000 f9d8 	bl	8001bec <TIM_Base_SetConfig>

  /* Initialize the DMA burst operation state */
  htim->DMABurstState = HAL_DMA_BURST_STATE_READY;
 800183c:	687b      	ldr	r3, [r7, #4]
 800183e:	2201      	movs	r2, #1
 8001840:	f883 2046 	strb.w	r2, [r3, #70]	; 0x46

  /* Initialize the TIM channels state */
  TIM_CHANNEL_STATE_SET_ALL(htim, HAL_TIM_CHANNEL_STATE_READY);
 8001844:	687b      	ldr	r3, [r7, #4]
 8001846:	2201      	movs	r2, #1
 8001848:	f883 203e 	strb.w	r2, [r3, #62]	; 0x3e
 800184c:	687b      	ldr	r3, [r7, #4]
 800184e:	2201      	movs	r2, #1
 8001850:	f883 203f 	strb.w	r2, [r3, #63]	; 0x3f
 8001854:	687b      	ldr	r3, [r7, #4]
 8001856:	2201      	movs	r2, #1
 8001858:	f883 2040 	strb.w	r2, [r3, #64]	; 0x40
 800185c:	687b      	ldr	r3, [r7, #4]
 800185e:	2201      	movs	r2, #1
 8001860:	f883 2041 	strb.w	r2, [r3, #65]	; 0x41
  TIM_CHANNEL_N_STATE_SET_ALL(htim, HAL_TIM_CHANNEL_STATE_READY);
 8001864:	687b      	ldr	r3, [r7, #4]
 8001866:	2201      	movs	r2, #1
 8001868:	f883 2042 	strb.w	r2, [r3, #66]	; 0x42
 800186c:	687b      	ldr	r3, [r7, #4]
 800186e:	2201      	movs	r2, #1
 8001870:	f883 2043 	strb.w	r2, [r3, #67]	; 0x43
 8001874:	687b      	ldr	r3, [r7, #4]
 8001876:	2201      	movs	r2, #1
 8001878:	f883 2044 	strb.w	r2, [r3, #68]	; 0x44
 800187c:	687b      	ldr	r3, [r7, #4]
 800187e:	2201      	movs	r2, #1
 8001880:	f883 2045 	strb.w	r2, [r3, #69]	; 0x45

  /* Initialize the TIM state*/
  htim->State = HAL_TIM_STATE_READY;
 8001884:	687b      	ldr	r3, [r7, #4]
 8001886:	2201      	movs	r2, #1
 8001888:	f883 203d 	strb.w	r2, [r3, #61]	; 0x3d

  return HAL_OK;
 800188c:	2300      	movs	r3, #0
}
 800188e:	4618      	mov	r0, r3
 8001890:	3708      	adds	r7, #8
 8001892:	46bd      	mov	sp, r7
 8001894:	bd80      	pop	{r7, pc}

08001896 <HAL_TIM_Base_MspInit>:
  * @brief  Initializes the TIM Base MSP.
  * @param  htim TIM Base handle
  * @retval None
  */
__weak void HAL_TIM_Base_MspInit(TIM_HandleTypeDef *htim)
{
 8001896:	b480      	push	{r7}
 8001898:	b083      	sub	sp, #12
 800189a:	af00      	add	r7, sp, #0
 800189c:	6078      	str	r0, [r7, #4]
  UNUSED(htim);

  /* NOTE : This function should not be modified, when the callback is needed,
            the HAL_TIM_Base_MspInit could be implemented in the user file
   */
}
 800189e:	bf00      	nop
 80018a0:	370c      	adds	r7, #12
 80018a2:	46bd      	mov	sp, r7
 80018a4:	f85d 7b04 	ldr.w	r7, [sp], #4
 80018a8:	4770      	bx	lr
	...

080018ac <HAL_TIM_Base_Start_IT>:
  * @brief  Starts the TIM Base generation in interrupt mode.
  * @param  htim TIM Base handle
  * @retval HAL status
  */
HAL_StatusTypeDef HAL_TIM_Base_Start_IT(TIM_HandleTypeDef *htim)
{
 80018ac:	b480      	push	{r7}
 80018ae:	b085      	sub	sp, #20
 80018b0:	af00      	add	r7, sp, #0
 80018b2:	6078      	str	r0, [r7, #4]

  /* Check the parameters */
  assert_param(IS_TIM_INSTANCE(htim->Instance));

  /* Check the TIM state */
  if (htim->State != HAL_TIM_STATE_READY)
 80018b4:	687b      	ldr	r3, [r7, #4]
 80018b6:	f893 303d 	ldrb.w	r3, [r3, #61]	; 0x3d
 80018ba:	b2db      	uxtb	r3, r3
 80018bc:	2b01      	cmp	r3, #1
 80018be:	d001      	beq.n	80018c4 <HAL_TIM_Base_Start_IT+0x18>
  {
    return HAL_ERROR;
 80018c0:	2301      	movs	r3, #1
 80018c2:	e04e      	b.n	8001962 <HAL_TIM_Base_Start_IT+0xb6>
  }

  /* Set the TIM state */
  htim->State = HAL_TIM_STATE_BUSY;
 80018c4:	687b      	ldr	r3, [r7, #4]
 80018c6:	2202      	movs	r2, #2
 80018c8:	f883 203d 	strb.w	r2, [r3, #61]	; 0x3d

  /* Enable the TIM Update interrupt */
  __HAL_TIM_ENABLE_IT(htim, TIM_IT_UPDATE);
 80018cc:	687b      	ldr	r3, [r7, #4]
 80018ce:	681b      	ldr	r3, [r3, #0]
 80018d0:	68da      	ldr	r2, [r3, #12]
 80018d2:	687b      	ldr	r3, [r7, #4]
 80018d4:	681b      	ldr	r3, [r3, #0]
 80018d6:	f042 0201 	orr.w	r2, r2, #1
 80018da:	60da      	str	r2, [r3, #12]

  /* Enable the Peripheral, except in trigger mode where enable is automatically done with trigger */
  if (IS_TIM_SLAVE_INSTANCE(htim->Instance))
 80018dc:	687b      	ldr	r3, [r7, #4]
 80018de:	681b      	ldr	r3, [r3, #0]
 80018e0:	4a23      	ldr	r2, [pc, #140]	; (8001970 <HAL_TIM_Base_Start_IT+0xc4>)
 80018e2:	4293      	cmp	r3, r2
 80018e4:	d022      	beq.n	800192c <HAL_TIM_Base_Start_IT+0x80>
 80018e6:	687b      	ldr	r3, [r7, #4]
 80018e8:	681b      	ldr	r3, [r3, #0]
 80018ea:	f1b3 4f80 	cmp.w	r3, #1073741824	; 0x40000000
 80018ee:	d01d      	beq.n	800192c <HAL_TIM_Base_Start_IT+0x80>
 80018f0:	687b      	ldr	r3, [r7, #4]
 80018f2:	681b      	ldr	r3, [r3, #0]
 80018f4:	4a1f      	ldr	r2, [pc, #124]	; (8001974 <HAL_TIM_Base_Start_IT+0xc8>)
 80018f6:	4293      	cmp	r3, r2
 80018f8:	d018      	beq.n	800192c <HAL_TIM_Base_Start_IT+0x80>
 80018fa:	687b      	ldr	r3, [r7, #4]
 80018fc:	681b      	ldr	r3, [r3, #0]
 80018fe:	4a1e      	ldr	r2, [pc, #120]	; (8001978 <HAL_TIM_Base_Start_IT+0xcc>)
 8001900:	4293      	cmp	r3, r2
 8001902:	d013      	beq.n	800192c <HAL_TIM_Base_Start_IT+0x80>
 8001904:	687b      	ldr	r3, [r7, #4]
 8001906:	681b      	ldr	r3, [r3, #0]
 8001908:	4a1c      	ldr	r2, [pc, #112]	; (800197c <HAL_TIM_Base_Start_IT+0xd0>)
 800190a:	4293      	cmp	r3, r2
 800190c:	d00e      	beq.n	800192c <HAL_TIM_Base_Start_IT+0x80>
 800190e:	687b      	ldr	r3, [r7, #4]
 8001910:	681b      	ldr	r3, [r3, #0]
 8001912:	4a1b      	ldr	r2, [pc, #108]	; (8001980 <HAL_TIM_Base_Start_IT+0xd4>)
 8001914:	4293      	cmp	r3, r2
 8001916:	d009      	beq.n	800192c <HAL_TIM_Base_Start_IT+0x80>
 8001918:	687b      	ldr	r3, [r7, #4]
 800191a:	681b      	ldr	r3, [r3, #0]
 800191c:	4a19      	ldr	r2, [pc, #100]	; (8001984 <HAL_TIM_Base_Start_IT+0xd8>)
 800191e:	4293      	cmp	r3, r2
 8001920:	d004      	beq.n	800192c <HAL_TIM_Base_Start_IT+0x80>
 8001922:	687b      	ldr	r3, [r7, #4]
 8001924:	681b      	ldr	r3, [r3, #0]
 8001926:	4a18      	ldr	r2, [pc, #96]	; (8001988 <HAL_TIM_Base_Start_IT+0xdc>)
 8001928:	4293      	cmp	r3, r2
 800192a:	d111      	bne.n	8001950 <HAL_TIM_Base_Start_IT+0xa4>
  {
    tmpsmcr = htim->Instance->SMCR & TIM_SMCR_SMS;
 800192c:	687b      	ldr	r3, [r7, #4]
 800192e:	681b      	ldr	r3, [r3, #0]
 8001930:	689b      	ldr	r3, [r3, #8]
 8001932:	f003 0307 	and.w	r3, r3, #7
 8001936:	60fb      	str	r3, [r7, #12]
    if (!IS_TIM_SLAVEMODE_TRIGGER_ENABLED(tmpsmcr))
 8001938:	68fb      	ldr	r3, [r7, #12]
 800193a:	2b06      	cmp	r3, #6
 800193c:	d010      	beq.n	8001960 <HAL_TIM_Base_Start_IT+0xb4>
    {
      __HAL_TIM_ENABLE(htim);
 800193e:	687b      	ldr	r3, [r7, #4]
 8001940:	681b      	ldr	r3, [r3, #0]
 8001942:	681a      	ldr	r2, [r3, #0]
 8001944:	687b      	ldr	r3, [r7, #4]
 8001946:	681b      	ldr	r3, [r3, #0]
 8001948:	f042 0201 	orr.w	r2, r2, #1
 800194c:	601a      	str	r2, [r3, #0]
    if (!IS_TIM_SLAVEMODE_TRIGGER_ENABLED(tmpsmcr))
 800194e:	e007      	b.n	8001960 <HAL_TIM_Base_Start_IT+0xb4>
    }
  }
  else
  {
    __HAL_TIM_ENABLE(htim);
 8001950:	687b      	ldr	r3, [r7, #4]
 8001952:	681b      	ldr	r3, [r3, #0]
 8001954:	681a      	ldr	r2, [r3, #0]
 8001956:	687b      	ldr	r3, [r7, #4]
 8001958:	681b      	ldr	r3, [r3, #0]
 800195a:	f042 0201 	orr.w	r2, r2, #1
 800195e:	601a      	str	r2, [r3, #0]
  }

  /* Return function status */
  return HAL_OK;
 8001960:	2300      	movs	r3, #0
}
 8001962:	4618      	mov	r0, r3
 8001964:	3714      	adds	r7, #20
 8001966:	46bd      	mov	sp, r7
 8001968:	f85d 7b04 	ldr.w	r7, [sp], #4
 800196c:	4770      	bx	lr
 800196e:	bf00      	nop
 8001970:	40010000 	.word	0x40010000
 8001974:	40000400 	.word	0x40000400
 8001978:	40000800 	.word	0x40000800
 800197c:	40000c00 	.word	0x40000c00
 8001980:	40010400 	.word	0x40010400
 8001984:	40014000 	.word	0x40014000
 8001988:	40001800 	.word	0x40001800

0800198c <HAL_TIM_IRQHandler>:
  * @brief  This function handles TIM interrupts requests.
  * @param  htim TIM  handle
  * @retval None
  */
void HAL_TIM_IRQHandler(TIM_HandleTypeDef *htim)
{
 800198c:	b580      	push	{r7, lr}
 800198e:	b082      	sub	sp, #8
 8001990:	af00      	add	r7, sp, #0
 8001992:	6078      	str	r0, [r7, #4]
  /* Capture compare 1 event */
  if (__HAL_TIM_GET_FLAG(htim, TIM_FLAG_CC1) != RESET)
 8001994:	687b      	ldr	r3, [r7, #4]
 8001996:	681b      	ldr	r3, [r3, #0]
 8001998:	691b      	ldr	r3, [r3, #16]
 800199a:	f003 0302 	and.w	r3, r3, #2
 800199e:	2b02      	cmp	r3, #2
 80019a0:	d122      	bne.n	80019e8 <HAL_TIM_IRQHandler+0x5c>
  {
    if (__HAL_TIM_GET_IT_SOURCE(htim, TIM_IT_CC1) != RESET)
 80019a2:	687b      	ldr	r3, [r7, #4]
 80019a4:	681b      	ldr	r3, [r3, #0]
 80019a6:	68db      	ldr	r3, [r3, #12]
 80019a8:	f003 0302 	and.w	r3, r3, #2
 80019ac:	2b02      	cmp	r3, #2
 80019ae:	d11b      	bne.n	80019e8 <HAL_TIM_IRQHandler+0x5c>
    {
      {
        __HAL_TIM_CLEAR_IT(htim, TIM_IT_CC1);
 80019b0:	687b      	ldr	r3, [r7, #4]
 80019b2:	681b      	ldr	r3, [r3, #0]
 80019b4:	f06f 0202 	mvn.w	r2, #2
 80019b8:	611a      	str	r2, [r3, #16]
        htim->Channel = HAL_TIM_ACTIVE_CHANNEL_1;
 80019ba:	687b      	ldr	r3, [r7, #4]
 80019bc:	2201      	movs	r2, #1
 80019be:	771a      	strb	r2, [r3, #28]

        /* Input capture event */
        if ((htim->Instance->CCMR1 & TIM_CCMR1_CC1S) != 0x00U)
 80019c0:	687b      	ldr	r3, [r7, #4]
 80019c2:	681b      	ldr	r3, [r3, #0]
 80019c4:	699b      	ldr	r3, [r3, #24]
 80019c6:	f003 0303 	and.w	r3, r3, #3
 80019ca:	2b00      	cmp	r3, #0
 80019cc:	d003      	beq.n	80019d6 <HAL_TIM_IRQHandler+0x4a>
        {
#if (USE_HAL_TIM_REGISTER_CALLBACKS == 1)
          htim->IC_CaptureCallback(htim);
#else
          HAL_TIM_IC_CaptureCallback(htim);
 80019ce:	6878      	ldr	r0, [r7, #4]
 80019d0:	f000 f8ee 	bl	8001bb0 <HAL_TIM_IC_CaptureCallback>
 80019d4:	e005      	b.n	80019e2 <HAL_TIM_IRQHandler+0x56>
        {
#if (USE_HAL_TIM_REGISTER_CALLBACKS == 1)
          htim->OC_DelayElapsedCallback(htim);
          htim->PWM_PulseFinishedCallback(htim);
#else
          HAL_TIM_OC_DelayElapsedCallback(htim);
 80019d6:	6878      	ldr	r0, [r7, #4]
 80019d8:	f000 f8e0 	bl	8001b9c <HAL_TIM_OC_DelayElapsedCallback>
          HAL_TIM_PWM_PulseFinishedCallback(htim);
 80019dc:	6878      	ldr	r0, [r7, #4]
 80019de:	f000 f8f1 	bl	8001bc4 <HAL_TIM_PWM_PulseFinishedCallback>
#endif /* USE_HAL_TIM_REGISTER_CALLBACKS */
        }
        htim->Channel = HAL_TIM_ACTIVE_CHANNEL_CLEARED;
 80019e2:	687b      	ldr	r3, [r7, #4]
 80019e4:	2200      	movs	r2, #0
 80019e6:	771a      	strb	r2, [r3, #28]
      }
    }
  }
  /* Capture compare 2 event */
  if (__HAL_TIM_GET_FLAG(htim, TIM_FLAG_CC2) != RESET)
 80019e8:	687b      	ldr	r3, [r7, #4]
 80019ea:	681b      	ldr	r3, [r3, #0]
 80019ec:	691b      	ldr	r3, [r3, #16]
 80019ee:	f003 0304 	and.w	r3, r3, #4
 80019f2:	2b04      	cmp	r3, #4
 80019f4:	d122      	bne.n	8001a3c <HAL_TIM_IRQHandler+0xb0>
  {
    if (__HAL_TIM_GET_IT_SOURCE(htim, TIM_IT_CC2) != RESET)
 80019f6:	687b      	ldr	r3, [r7, #4]
 80019f8:	681b      	ldr	r3, [r3, #0]
 80019fa:	68db      	ldr	r3, [r3, #12]
 80019fc:	f003 0304 	and.w	r3, r3, #4
 8001a00:	2b04      	cmp	r3, #4
 8001a02:	d11b      	bne.n	8001a3c <HAL_TIM_IRQHandler+0xb0>
    {
      __HAL_TIM_CLEAR_IT(htim, TIM_IT_CC2);
 8001a04:	687b      	ldr	r3, [r7, #4]
 8001a06:	681b      	ldr	r3, [r3, #0]
 8001a08:	f06f 0204 	mvn.w	r2, #4
 8001a0c:	611a      	str	r2, [r3, #16]
      htim->Channel = HAL_TIM_ACTIVE_CHANNEL_2;
 8001a0e:	687b      	ldr	r3, [r7, #4]
 8001a10:	2202      	movs	r2, #2
 8001a12:	771a      	strb	r2, [r3, #28]
      /* Input capture event */
      if ((htim->Instance->CCMR1 & TIM_CCMR1_CC2S) != 0x00U)
 8001a14:	687b      	ldr	r3, [r7, #4]
 8001a16:	681b      	ldr	r3, [r3, #0]
 8001a18:	699b      	ldr	r3, [r3, #24]
 8001a1a:	f403 7340 	and.w	r3, r3, #768	; 0x300
 8001a1e:	2b00      	cmp	r3, #0
 8001a20:	d003      	beq.n	8001a2a <HAL_TIM_IRQHandler+0x9e>
      {
#if (USE_HAL_TIM_REGISTER_CALLBACKS == 1)
        htim->IC_CaptureCallback(htim);
#else
        HAL_TIM_IC_CaptureCallback(htim);
 8001a22:	6878      	ldr	r0, [r7, #4]
 8001a24:	f000 f8c4 	bl	8001bb0 <HAL_TIM_IC_CaptureCallback>
 8001a28:	e005      	b.n	8001a36 <HAL_TIM_IRQHandler+0xaa>
      {
#if (USE_HAL_TIM_REGISTER_CALLBACKS == 1)
        htim->OC_DelayElapsedCallback(htim);
        htim->PWM_PulseFinishedCallback(htim);
#else
        HAL_TIM_OC_DelayElapsedCallback(htim);
 8001a2a:	6878      	ldr	r0, [r7, #4]
 8001a2c:	f000 f8b6 	bl	8001b9c <HAL_TIM_OC_DelayElapsedCallback>
        HAL_TIM_PWM_PulseFinishedCallback(htim);
 8001a30:	6878      	ldr	r0, [r7, #4]
 8001a32:	f000 f8c7 	bl	8001bc4 <HAL_TIM_PWM_PulseFinishedCallback>
#endif /* USE_HAL_TIM_REGISTER_CALLBACKS */
      }
      htim->Channel = HAL_TIM_ACTIVE_CHANNEL_CLEARED;
 8001a36:	687b      	ldr	r3, [r7, #4]
 8001a38:	2200      	movs	r2, #0
 8001a3a:	771a      	strb	r2, [r3, #28]
    }
  }
  /* Capture compare 3 event */
  if (__HAL_TIM_GET_FLAG(htim, TIM_FLAG_CC3) != RESET)
 8001a3c:	687b      	ldr	r3, [r7, #4]
 8001a3e:	681b      	ldr	r3, [r3, #0]
 8001a40:	691b      	ldr	r3, [r3, #16]
 8001a42:	f003 0308 	and.w	r3, r3, #8
 8001a46:	2b08      	cmp	r3, #8
 8001a48:	d122      	bne.n	8001a90 <HAL_TIM_IRQHandler+0x104>
  {
    if (__HAL_TIM_GET_IT_SOURCE(htim, TIM_IT_CC3) != RESET)
 8001a4a:	687b      	ldr	r3, [r7, #4]
 8001a4c:	681b      	ldr	r3, [r3, #0]
 8001a4e:	68db      	ldr	r3, [r3, #12]
 8001a50:	f003 0308 	and.w	r3, r3, #8
 8001a54:	2b08      	cmp	r3, #8
 8001a56:	d11b      	bne.n	8001a90 <HAL_TIM_IRQHandler+0x104>
    {
      __HAL_TIM_CLEAR_IT(htim, TIM_IT_CC3);
 8001a58:	687b      	ldr	r3, [r7, #4]
 8001a5a:	681b      	ldr	r3, [r3, #0]
 8001a5c:	f06f 0208 	mvn.w	r2, #8
 8001a60:	611a      	str	r2, [r3, #16]
      htim->Channel = HAL_TIM_ACTIVE_CHANNEL_3;
 8001a62:	687b      	ldr	r3, [r7, #4]
 8001a64:	2204      	movs	r2, #4
 8001a66:	771a      	strb	r2, [r3, #28]
      /* Input capture event */
      if ((htim->Instance->CCMR2 & TIM_CCMR2_CC3S) != 0x00U)
 8001a68:	687b      	ldr	r3, [r7, #4]
 8001a6a:	681b      	ldr	r3, [r3, #0]
 8001a6c:	69db      	ldr	r3, [r3, #28]
 8001a6e:	f003 0303 	and.w	r3, r3, #3
 8001a72:	2b00      	cmp	r3, #0
 8001a74:	d003      	beq.n	8001a7e <HAL_TIM_IRQHandler+0xf2>
      {
#if (USE_HAL_TIM_REGISTER_CALLBACKS == 1)
        htim->IC_CaptureCallback(htim);
#else
        HAL_TIM_IC_CaptureCallback(htim);
 8001a76:	6878      	ldr	r0, [r7, #4]
 8001a78:	f000 f89a 	bl	8001bb0 <HAL_TIM_IC_CaptureCallback>
 8001a7c:	e005      	b.n	8001a8a <HAL_TIM_IRQHandler+0xfe>
      {
#if (USE_HAL_TIM_REGISTER_CALLBACKS == 1)
        htim->OC_DelayElapsedCallback(htim);
        htim->PWM_PulseFinishedCallback(htim);
#else
        HAL_TIM_OC_DelayElapsedCallback(htim);
 8001a7e:	6878      	ldr	r0, [r7, #4]
 8001a80:	f000 f88c 	bl	8001b9c <HAL_TIM_OC_DelayElapsedCallback>
        HAL_TIM_PWM_PulseFinishedCallback(htim);
 8001a84:	6878      	ldr	r0, [r7, #4]
 8001a86:	f000 f89d 	bl	8001bc4 <HAL_TIM_PWM_PulseFinishedCallback>
#endif /* USE_HAL_TIM_REGISTER_CALLBACKS */
      }
      htim->Channel = HAL_TIM_ACTIVE_CHANNEL_CLEARED;
 8001a8a:	687b      	ldr	r3, [r7, #4]
 8001a8c:	2200      	movs	r2, #0
 8001a8e:	771a      	strb	r2, [r3, #28]
    }
  }
  /* Capture compare 4 event */
  if (__HAL_TIM_GET_FLAG(htim, TIM_FLAG_CC4) != RESET)
 8001a90:	687b      	ldr	r3, [r7, #4]
 8001a92:	681b      	ldr	r3, [r3, #0]
 8001a94:	691b      	ldr	r3, [r3, #16]
 8001a96:	f003 0310 	and.w	r3, r3, #16
 8001a9a:	2b10      	cmp	r3, #16
 8001a9c:	d122      	bne.n	8001ae4 <HAL_TIM_IRQHandler+0x158>
  {
    if (__HAL_TIM_GET_IT_SOURCE(htim, TIM_IT_CC4) != RESET)
 8001a9e:	687b      	ldr	r3, [r7, #4]
 8001aa0:	681b      	ldr	r3, [r3, #0]
 8001aa2:	68db      	ldr	r3, [r3, #12]
 8001aa4:	f003 0310 	and.w	r3, r3, #16
 8001aa8:	2b10      	cmp	r3, #16
 8001aaa:	d11b      	bne.n	8001ae4 <HAL_TIM_IRQHandler+0x158>
    {
      __HAL_TIM_CLEAR_IT(htim, TIM_IT_CC4);
 8001aac:	687b      	ldr	r3, [r7, #4]
 8001aae:	681b      	ldr	r3, [r3, #0]
 8001ab0:	f06f 0210 	mvn.w	r2, #16
 8001ab4:	611a      	str	r2, [r3, #16]
      htim->Channel = HAL_TIM_ACTIVE_CHANNEL_4;
 8001ab6:	687b      	ldr	r3, [r7, #4]
 8001ab8:	2208      	movs	r2, #8
 8001aba:	771a      	strb	r2, [r3, #28]
      /* Input capture event */
      if ((htim->Instance->CCMR2 & TIM_CCMR2_CC4S) != 0x00U)
 8001abc:	687b      	ldr	r3, [r7, #4]
 8001abe:	681b      	ldr	r3, [r3, #0]
 8001ac0:	69db      	ldr	r3, [r3, #28]
 8001ac2:	f403 7340 	and.w	r3, r3, #768	; 0x300
 8001ac6:	2b00      	cmp	r3, #0
 8001ac8:	d003      	beq.n	8001ad2 <HAL_TIM_IRQHandler+0x146>
      {
#if (USE_HAL_TIM_REGISTER_CALLBACKS == 1)
        htim->IC_CaptureCallback(htim);
#else
        HAL_TIM_IC_CaptureCallback(htim);
 8001aca:	6878      	ldr	r0, [r7, #4]
 8001acc:	f000 f870 	bl	8001bb0 <HAL_TIM_IC_CaptureCallback>
 8001ad0:	e005      	b.n	8001ade <HAL_TIM_IRQHandler+0x152>
      {
#if (USE_HAL_TIM_REGISTER_CALLBACKS == 1)
        htim->OC_DelayElapsedCallback(htim);
        htim->PWM_PulseFinishedCallback(htim);
#else
        HAL_TIM_OC_DelayElapsedCallback(htim);
 8001ad2:	6878      	ldr	r0, [r7, #4]
 8001ad4:	f000 f862 	bl	8001b9c <HAL_TIM_OC_DelayElapsedCallback>
        HAL_TIM_PWM_PulseFinishedCallback(htim);
 8001ad8:	6878      	ldr	r0, [r7, #4]
 8001ada:	f000 f873 	bl	8001bc4 <HAL_TIM_PWM_PulseFinishedCallback>
#endif /* USE_HAL_TIM_REGISTER_CALLBACKS */
      }
      htim->Channel = HAL_TIM_ACTIVE_CHANNEL_CLEARED;
 8001ade:	687b      	ldr	r3, [r7, #4]
 8001ae0:	2200      	movs	r2, #0
 8001ae2:	771a      	strb	r2, [r3, #28]
    }
  }
  /* TIM Update event */
  if (__HAL_TIM_GET_FLAG(htim, TIM_FLAG_UPDATE) != RESET)
 8001ae4:	687b      	ldr	r3, [r7, #4]
 8001ae6:	681b      	ldr	r3, [r3, #0]
 8001ae8:	691b      	ldr	r3, [r3, #16]
 8001aea:	f003 0301 	and.w	r3, r3, #1
 8001aee:	2b01      	cmp	r3, #1
 8001af0:	d10e      	bne.n	8001b10 <HAL_TIM_IRQHandler+0x184>
  {
    if (__HAL_TIM_GET_IT_SOURCE(htim, TIM_IT_UPDATE) != RESET)
 8001af2:	687b      	ldr	r3, [r7, #4]
 8001af4:	681b      	ldr	r3, [r3, #0]
 8001af6:	68db      	ldr	r3, [r3, #12]
 8001af8:	f003 0301 	and.w	r3, r3, #1
 8001afc:	2b01      	cmp	r3, #1
 8001afe:	d107      	bne.n	8001b10 <HAL_TIM_IRQHandler+0x184>
    {
      __HAL_TIM_CLEAR_IT(htim, TIM_IT_UPDATE);
 8001b00:	687b      	ldr	r3, [r7, #4]
 8001b02:	681b      	ldr	r3, [r3, #0]
 8001b04:	f06f 0201 	mvn.w	r2, #1
 8001b08:	611a      	str	r2, [r3, #16]
#if (USE_HAL_TIM_REGISTER_CALLBACKS == 1)
      htim->PeriodElapsedCallback(htim);
#else
      HAL_TIM_PeriodElapsedCallback(htim);
 8001b0a:	6878      	ldr	r0, [r7, #4]
 8001b0c:	f7fe fdd8 	bl	80006c0 <HAL_TIM_PeriodElapsedCallback>
#endif /* USE_HAL_TIM_REGISTER_CALLBACKS */
    }
  }
  /* TIM Break input event */
  if (__HAL_TIM_GET_FLAG(htim, TIM_FLAG_BREAK) != RESET)
 8001b10:	687b      	ldr	r3, [r7, #4]
 8001b12:	681b      	ldr	r3, [r3, #0]
 8001b14:	691b      	ldr	r3, [r3, #16]
 8001b16:	f003 0380 	and.w	r3, r3, #128	; 0x80
 8001b1a:	2b80      	cmp	r3, #128	; 0x80
 8001b1c:	d10e      	bne.n	8001b3c <HAL_TIM_IRQHandler+0x1b0>
  {
    if (__HAL_TIM_GET_IT_SOURCE(htim, TIM_IT_BREAK) != RESET)
 8001b1e:	687b      	ldr	r3, [r7, #4]
 8001b20:	681b      	ldr	r3, [r3, #0]
 8001b22:	68db      	ldr	r3, [r3, #12]
 8001b24:	f003 0380 	and.w	r3, r3, #128	; 0x80
 8001b28:	2b80      	cmp	r3, #128	; 0x80
 8001b2a:	d107      	bne.n	8001b3c <HAL_TIM_IRQHandler+0x1b0>
    {
      __HAL_TIM_CLEAR_IT(htim, TIM_IT_BREAK);
 8001b2c:	687b      	ldr	r3, [r7, #4]
 8001b2e:	681b      	ldr	r3, [r3, #0]
 8001b30:	f06f 0280 	mvn.w	r2, #128	; 0x80
 8001b34:	611a      	str	r2, [r3, #16]
#if (USE_HAL_TIM_REGISTER_CALLBACKS == 1)
      htim->BreakCallback(htim);
#else
      HAL_TIMEx_BreakCallback(htim);
 8001b36:	6878      	ldr	r0, [r7, #4]
 8001b38:	f000 f902 	bl	8001d40 <HAL_TIMEx_BreakCallback>
#endif /* USE_HAL_TIM_REGISTER_CALLBACKS */
    }
  }
  /* TIM Trigger detection event */
  if (__HAL_TIM_GET_FLAG(htim, TIM_FLAG_TRIGGER) != RESET)
 8001b3c:	687b      	ldr	r3, [r7, #4]
 8001b3e:	681b      	ldr	r3, [r3, #0]
 8001b40:	691b      	ldr	r3, [r3, #16]
 8001b42:	f003 0340 	and.w	r3, r3, #64	; 0x40
 8001b46:	2b40      	cmp	r3, #64	; 0x40
 8001b48:	d10e      	bne.n	8001b68 <HAL_TIM_IRQHandler+0x1dc>
  {
    if (__HAL_TIM_GET_IT_SOURCE(htim, TIM_IT_TRIGGER) != RESET)
 8001b4a:	687b      	ldr	r3, [r7, #4]
 8001b4c:	681b      	ldr	r3, [r3, #0]
 8001b4e:	68db      	ldr	r3, [r3, #12]
 8001b50:	f003 0340 	and.w	r3, r3, #64	; 0x40
 8001b54:	2b40      	cmp	r3, #64	; 0x40
 8001b56:	d107      	bne.n	8001b68 <HAL_TIM_IRQHandler+0x1dc>
    {
      __HAL_TIM_CLEAR_IT(htim, TIM_IT_TRIGGER);
 8001b58:	687b      	ldr	r3, [r7, #4]
 8001b5a:	681b      	ldr	r3, [r3, #0]
 8001b5c:	f06f 0240 	mvn.w	r2, #64	; 0x40
 8001b60:	611a      	str	r2, [r3, #16]
#if (USE_HAL_TIM_REGISTER_CALLBACKS == 1)
      htim->TriggerCallback(htim);
#else
      HAL_TIM_TriggerCallback(htim);
 8001b62:	6878      	ldr	r0, [r7, #4]
 8001b64:	f000 f838 	bl	8001bd8 <HAL_TIM_TriggerCallback>
#endif /* USE_HAL_TIM_REGISTER_CALLBACKS */
    }
  }
  /* TIM commutation event */
  if (__HAL_TIM_GET_FLAG(htim, TIM_FLAG_COM) != RESET)
 8001b68:	687b      	ldr	r3, [r7, #4]
 8001b6a:	681b      	ldr	r3, [r3, #0]
 8001b6c:	691b      	ldr	r3, [r3, #16]
 8001b6e:	f003 0320 	and.w	r3, r3, #32
 8001b72:	2b20      	cmp	r3, #32
 8001b74:	d10e      	bne.n	8001b94 <HAL_TIM_IRQHandler+0x208>
  {
    if (__HAL_TIM_GET_IT_SOURCE(htim, TIM_IT_COM) != RESET)
 8001b76:	687b      	ldr	r3, [r7, #4]
 8001b78:	681b      	ldr	r3, [r3, #0]
 8001b7a:	68db      	ldr	r3, [r3, #12]
 8001b7c:	f003 0320 	and.w	r3, r3, #32
 8001b80:	2b20      	cmp	r3, #32
 8001b82:	d107      	bne.n	8001b94 <HAL_TIM_IRQHandler+0x208>
    {
      __HAL_TIM_CLEAR_IT(htim, TIM_FLAG_COM);
 8001b84:	687b      	ldr	r3, [r7, #4]
 8001b86:	681b      	ldr	r3, [r3, #0]
 8001b88:	f06f 0220 	mvn.w	r2, #32
 8001b8c:	611a      	str	r2, [r3, #16]
#if (USE_HAL_TIM_REGISTER_CALLBACKS == 1)
      htim->CommutationCallback(htim);
#else
      HAL_TIMEx_CommutCallback(htim);
 8001b8e:	6878      	ldr	r0, [r7, #4]
 8001b90:	f000 f8cc 	bl	8001d2c <HAL_TIMEx_CommutCallback>
#endif /* USE_HAL_TIM_REGISTER_CALLBACKS */
    }
  }
}
 8001b94:	bf00      	nop
 8001b96:	3708      	adds	r7, #8
 8001b98:	46bd      	mov	sp, r7
 8001b9a:	bd80      	pop	{r7, pc}

08001b9c <HAL_TIM_OC_DelayElapsedCallback>:
  * @brief  Output Compare callback in non-blocking mode
  * @param  htim TIM OC handle
  * @retval None
  */
__weak void HAL_TIM_OC_DelayElapsedCallback(TIM_HandleTypeDef *htim)
{
 8001b9c:	b480      	push	{r7}
 8001b9e:	b083      	sub	sp, #12
 8001ba0:	af00      	add	r7, sp, #0
 8001ba2:	6078      	str	r0, [r7, #4]
  UNUSED(htim);

  /* NOTE : This function should not be modified, when the callback is needed,
            the HAL_TIM_OC_DelayElapsedCallback could be implemented in the user file
   */
}
 8001ba4:	bf00      	nop
 8001ba6:	370c      	adds	r7, #12
 8001ba8:	46bd      	mov	sp, r7
 8001baa:	f85d 7b04 	ldr.w	r7, [sp], #4
 8001bae:	4770      	bx	lr

08001bb0 <HAL_TIM_IC_CaptureCallback>:
  * @brief  Input Capture callback in non-blocking mode
  * @param  htim TIM IC handle
  * @retval None
  */
__weak void HAL_TIM_IC_CaptureCallback(TIM_HandleTypeDef *htim)
{
 8001bb0:	b480      	push	{r7}
 8001bb2:	b083      	sub	sp, #12
 8001bb4:	af00      	add	r7, sp, #0
 8001bb6:	6078      	str	r0, [r7, #4]
  UNUSED(htim);

  /* NOTE : This function should not be modified, when the callback is needed,
            the HAL_TIM_IC_CaptureCallback could be implemented in the user file
   */
}
 8001bb8:	bf00      	nop
 8001bba:	370c      	adds	r7, #12
 8001bbc:	46bd      	mov	sp, r7
 8001bbe:	f85d 7b04 	ldr.w	r7, [sp], #4
 8001bc2:	4770      	bx	lr

08001bc4 <HAL_TIM_PWM_PulseFinishedCallback>:
  * @brief  PWM Pulse finished callback in non-blocking mode
  * @param  htim TIM handle
  * @retval None
  */
__weak void HAL_TIM_PWM_PulseFinishedCallback(TIM_HandleTypeDef *htim)
{
 8001bc4:	b480      	push	{r7}
 8001bc6:	b083      	sub	sp, #12
 8001bc8:	af00      	add	r7, sp, #0
 8001bca:	6078      	str	r0, [r7, #4]
  UNUSED(htim);

  /* NOTE : This function should not be modified, when the callback is needed,
            the HAL_TIM_PWM_PulseFinishedCallback could be implemented in the user file
   */
}
 8001bcc:	bf00      	nop
 8001bce:	370c      	adds	r7, #12
 8001bd0:	46bd      	mov	sp, r7
 8001bd2:	f85d 7b04 	ldr.w	r7, [sp], #4
 8001bd6:	4770      	bx	lr

08001bd8 <HAL_TIM_TriggerCallback>:
  * @brief  Hall Trigger detection callback in non-blocking mode
  * @param  htim TIM handle
  * @retval None
  */
__weak void HAL_TIM_TriggerCallback(TIM_HandleTypeDef *htim)
{
 8001bd8:	b480      	push	{r7}
 8001bda:	b083      	sub	sp, #12
 8001bdc:	af00      	add	r7, sp, #0
 8001bde:	6078      	str	r0, [r7, #4]
  UNUSED(htim);

  /* NOTE : This function should not be modified, when the callback is needed,
            the HAL_TIM_TriggerCallback could be implemented in the user file
   */
}
 8001be0:	bf00      	nop
 8001be2:	370c      	adds	r7, #12
 8001be4:	46bd      	mov	sp, r7
 8001be6:	f85d 7b04 	ldr.w	r7, [sp], #4
 8001bea:	4770      	bx	lr

08001bec <TIM_Base_SetConfig>:
  * @param  TIMx TIM peripheral
  * @param  Structure TIM Base configuration structure
  * @retval None
  */
void TIM_Base_SetConfig(TIM_TypeDef *TIMx, TIM_Base_InitTypeDef *Structure)
{
 8001bec:	b480      	push	{r7}
 8001bee:	b085      	sub	sp, #20
 8001bf0:	af00      	add	r7, sp, #0
 8001bf2:	6078      	str	r0, [r7, #4]
 8001bf4:	6039      	str	r1, [r7, #0]
  uint32_t tmpcr1;
  tmpcr1 = TIMx->CR1;
 8001bf6:	687b      	ldr	r3, [r7, #4]
 8001bf8:	681b      	ldr	r3, [r3, #0]
 8001bfa:	60fb      	str	r3, [r7, #12]

  /* Set TIM Time Base Unit parameters ---------------------------------------*/
  if (IS_TIM_COUNTER_MODE_SELECT_INSTANCE(TIMx))
 8001bfc:	687b      	ldr	r3, [r7, #4]
 8001bfe:	4a40      	ldr	r2, [pc, #256]	; (8001d00 <TIM_Base_SetConfig+0x114>)
 8001c00:	4293      	cmp	r3, r2
 8001c02:	d013      	beq.n	8001c2c <TIM_Base_SetConfig+0x40>
 8001c04:	687b      	ldr	r3, [r7, #4]
 8001c06:	f1b3 4f80 	cmp.w	r3, #1073741824	; 0x40000000
 8001c0a:	d00f      	beq.n	8001c2c <TIM_Base_SetConfig+0x40>
 8001c0c:	687b      	ldr	r3, [r7, #4]
 8001c0e:	4a3d      	ldr	r2, [pc, #244]	; (8001d04 <TIM_Base_SetConfig+0x118>)
 8001c10:	4293      	cmp	r3, r2
 8001c12:	d00b      	beq.n	8001c2c <TIM_Base_SetConfig+0x40>
 8001c14:	687b      	ldr	r3, [r7, #4]
 8001c16:	4a3c      	ldr	r2, [pc, #240]	; (8001d08 <TIM_Base_SetConfig+0x11c>)
 8001c18:	4293      	cmp	r3, r2
 8001c1a:	d007      	beq.n	8001c2c <TIM_Base_SetConfig+0x40>
 8001c1c:	687b      	ldr	r3, [r7, #4]
 8001c1e:	4a3b      	ldr	r2, [pc, #236]	; (8001d0c <TIM_Base_SetConfig+0x120>)
 8001c20:	4293      	cmp	r3, r2
 8001c22:	d003      	beq.n	8001c2c <TIM_Base_SetConfig+0x40>
 8001c24:	687b      	ldr	r3, [r7, #4]
 8001c26:	4a3a      	ldr	r2, [pc, #232]	; (8001d10 <TIM_Base_SetConfig+0x124>)
 8001c28:	4293      	cmp	r3, r2
 8001c2a:	d108      	bne.n	8001c3e <TIM_Base_SetConfig+0x52>
  {
    /* Select the Counter Mode */
    tmpcr1 &= ~(TIM_CR1_DIR | TIM_CR1_CMS);
 8001c2c:	68fb      	ldr	r3, [r7, #12]
 8001c2e:	f023 0370 	bic.w	r3, r3, #112	; 0x70
 8001c32:	60fb      	str	r3, [r7, #12]
    tmpcr1 |= Structure->CounterMode;
 8001c34:	683b      	ldr	r3, [r7, #0]
 8001c36:	685b      	ldr	r3, [r3, #4]
 8001c38:	68fa      	ldr	r2, [r7, #12]
 8001c3a:	4313      	orrs	r3, r2
 8001c3c:	60fb      	str	r3, [r7, #12]
  }

  if (IS_TIM_CLOCK_DIVISION_INSTANCE(TIMx))
 8001c3e:	687b      	ldr	r3, [r7, #4]
 8001c40:	4a2f      	ldr	r2, [pc, #188]	; (8001d00 <TIM_Base_SetConfig+0x114>)
 8001c42:	4293      	cmp	r3, r2
 8001c44:	d02b      	beq.n	8001c9e <TIM_Base_SetConfig+0xb2>
 8001c46:	687b      	ldr	r3, [r7, #4]
 8001c48:	f1b3 4f80 	cmp.w	r3, #1073741824	; 0x40000000
 8001c4c:	d027      	beq.n	8001c9e <TIM_Base_SetConfig+0xb2>
 8001c4e:	687b      	ldr	r3, [r7, #4]
 8001c50:	4a2c      	ldr	r2, [pc, #176]	; (8001d04 <TIM_Base_SetConfig+0x118>)
 8001c52:	4293      	cmp	r3, r2
 8001c54:	d023      	beq.n	8001c9e <TIM_Base_SetConfig+0xb2>
 8001c56:	687b      	ldr	r3, [r7, #4]
 8001c58:	4a2b      	ldr	r2, [pc, #172]	; (8001d08 <TIM_Base_SetConfig+0x11c>)
 8001c5a:	4293      	cmp	r3, r2
 8001c5c:	d01f      	beq.n	8001c9e <TIM_Base_SetConfig+0xb2>
 8001c5e:	687b      	ldr	r3, [r7, #4]
 8001c60:	4a2a      	ldr	r2, [pc, #168]	; (8001d0c <TIM_Base_SetConfig+0x120>)
 8001c62:	4293      	cmp	r3, r2
 8001c64:	d01b      	beq.n	8001c9e <TIM_Base_SetConfig+0xb2>
 8001c66:	687b      	ldr	r3, [r7, #4]
 8001c68:	4a29      	ldr	r2, [pc, #164]	; (8001d10 <TIM_Base_SetConfig+0x124>)
 8001c6a:	4293      	cmp	r3, r2
 8001c6c:	d017      	beq.n	8001c9e <TIM_Base_SetConfig+0xb2>
 8001c6e:	687b      	ldr	r3, [r7, #4]
 8001c70:	4a28      	ldr	r2, [pc, #160]	; (8001d14 <TIM_Base_SetConfig+0x128>)
 8001c72:	4293      	cmp	r3, r2
 8001c74:	d013      	beq.n	8001c9e <TIM_Base_SetConfig+0xb2>
 8001c76:	687b      	ldr	r3, [r7, #4]
 8001c78:	4a27      	ldr	r2, [pc, #156]	; (8001d18 <TIM_Base_SetConfig+0x12c>)
 8001c7a:	4293      	cmp	r3, r2
 8001c7c:	d00f      	beq.n	8001c9e <TIM_Base_SetConfig+0xb2>
 8001c7e:	687b      	ldr	r3, [r7, #4]
 8001c80:	4a26      	ldr	r2, [pc, #152]	; (8001d1c <TIM_Base_SetConfig+0x130>)
 8001c82:	4293      	cmp	r3, r2
 8001c84:	d00b      	beq.n	8001c9e <TIM_Base_SetConfig+0xb2>
 8001c86:	687b      	ldr	r3, [r7, #4]
 8001c88:	4a25      	ldr	r2, [pc, #148]	; (8001d20 <TIM_Base_SetConfig+0x134>)
 8001c8a:	4293      	cmp	r3, r2
 8001c8c:	d007      	beq.n	8001c9e <TIM_Base_SetConfig+0xb2>
 8001c8e:	687b      	ldr	r3, [r7, #4]
 8001c90:	4a24      	ldr	r2, [pc, #144]	; (8001d24 <TIM_Base_SetConfig+0x138>)
 8001c92:	4293      	cmp	r3, r2
 8001c94:	d003      	beq.n	8001c9e <TIM_Base_SetConfig+0xb2>
 8001c96:	687b      	ldr	r3, [r7, #4]
 8001c98:	4a23      	ldr	r2, [pc, #140]	; (8001d28 <TIM_Base_SetConfig+0x13c>)
 8001c9a:	4293      	cmp	r3, r2
 8001c9c:	d108      	bne.n	8001cb0 <TIM_Base_SetConfig+0xc4>
  {
    /* Set the clock division */
    tmpcr1 &= ~TIM_CR1_CKD;
 8001c9e:	68fb      	ldr	r3, [r7, #12]
 8001ca0:	f423 7340 	bic.w	r3, r3, #768	; 0x300
 8001ca4:	60fb      	str	r3, [r7, #12]
    tmpcr1 |= (uint32_t)Structure->ClockDivision;
 8001ca6:	683b      	ldr	r3, [r7, #0]
 8001ca8:	68db      	ldr	r3, [r3, #12]
 8001caa:	68fa      	ldr	r2, [r7, #12]
 8001cac:	4313      	orrs	r3, r2
 8001cae:	60fb      	str	r3, [r7, #12]
  }

  /* Set the auto-reload preload */
  MODIFY_REG(tmpcr1, TIM_CR1_ARPE, Structure->AutoReloadPreload);
 8001cb0:	68fb      	ldr	r3, [r7, #12]
 8001cb2:	f023 0280 	bic.w	r2, r3, #128	; 0x80
 8001cb6:	683b      	ldr	r3, [r7, #0]
 8001cb8:	695b      	ldr	r3, [r3, #20]
 8001cba:	4313      	orrs	r3, r2
 8001cbc:	60fb      	str	r3, [r7, #12]

  TIMx->CR1 = tmpcr1;
 8001cbe:	687b      	ldr	r3, [r7, #4]
 8001cc0:	68fa      	ldr	r2, [r7, #12]
 8001cc2:	601a      	str	r2, [r3, #0]

  /* Set the Autoreload value */
  TIMx->ARR = (uint32_t)Structure->Period ;
 8001cc4:	683b      	ldr	r3, [r7, #0]
 8001cc6:	689a      	ldr	r2, [r3, #8]
 8001cc8:	687b      	ldr	r3, [r7, #4]
 8001cca:	62da      	str	r2, [r3, #44]	; 0x2c

  /* Set the Prescaler value */
  TIMx->PSC = Structure->Prescaler;
 8001ccc:	683b      	ldr	r3, [r7, #0]
 8001cce:	681a      	ldr	r2, [r3, #0]
 8001cd0:	687b      	ldr	r3, [r7, #4]
 8001cd2:	629a      	str	r2, [r3, #40]	; 0x28

  if (IS_TIM_REPETITION_COUNTER_INSTANCE(TIMx))
 8001cd4:	687b      	ldr	r3, [r7, #4]
 8001cd6:	4a0a      	ldr	r2, [pc, #40]	; (8001d00 <TIM_Base_SetConfig+0x114>)
 8001cd8:	4293      	cmp	r3, r2
 8001cda:	d003      	beq.n	8001ce4 <TIM_Base_SetConfig+0xf8>
 8001cdc:	687b      	ldr	r3, [r7, #4]
 8001cde:	4a0c      	ldr	r2, [pc, #48]	; (8001d10 <TIM_Base_SetConfig+0x124>)
 8001ce0:	4293      	cmp	r3, r2
 8001ce2:	d103      	bne.n	8001cec <TIM_Base_SetConfig+0x100>
  {
    /* Set the Repetition Counter value */
    TIMx->RCR = Structure->RepetitionCounter;
 8001ce4:	683b      	ldr	r3, [r7, #0]
 8001ce6:	691a      	ldr	r2, [r3, #16]
 8001ce8:	687b      	ldr	r3, [r7, #4]
 8001cea:	631a      	str	r2, [r3, #48]	; 0x30
  }

  /* Generate an update event to reload the Prescaler
     and the repetition counter (only for advanced timer) value immediately */
  TIMx->EGR = TIM_EGR_UG;
 8001cec:	687b      	ldr	r3, [r7, #4]
 8001cee:	2201      	movs	r2, #1
 8001cf0:	615a      	str	r2, [r3, #20]
}
 8001cf2:	bf00      	nop
 8001cf4:	3714      	adds	r7, #20
 8001cf6:	46bd      	mov	sp, r7
 8001cf8:	f85d 7b04 	ldr.w	r7, [sp], #4
 8001cfc:	4770      	bx	lr
 8001cfe:	bf00      	nop
 8001d00:	40010000 	.word	0x40010000
 8001d04:	40000400 	.word	0x40000400
 8001d08:	40000800 	.word	0x40000800
 8001d0c:	40000c00 	.word	0x40000c00
 8001d10:	40010400 	.word	0x40010400
 8001d14:	40014000 	.word	0x40014000
 8001d18:	40014400 	.word	0x40014400
 8001d1c:	40014800 	.word	0x40014800
 8001d20:	40001800 	.word	0x40001800
 8001d24:	40001c00 	.word	0x40001c00
 8001d28:	40002000 	.word	0x40002000

08001d2c <HAL_TIMEx_CommutCallback>:
  * @brief  Hall commutation changed callback in non-blocking mode
  * @param  htim TIM handle
  * @retval None
  */
__weak void HAL_TIMEx_CommutCallback(TIM_HandleTypeDef *htim)
{
 8001d2c:	b480      	push	{r7}
 8001d2e:	b083      	sub	sp, #12
 8001d30:	af00      	add	r7, sp, #0
 8001d32:	6078      	str	r0, [r7, #4]
  UNUSED(htim);

  /* NOTE : This function should not be modified, when the callback is needed,
            the HAL_TIMEx_CommutCallback could be implemented in the user file
   */
}
 8001d34:	bf00      	nop
 8001d36:	370c      	adds	r7, #12
 8001d38:	46bd      	mov	sp, r7
 8001d3a:	f85d 7b04 	ldr.w	r7, [sp], #4
 8001d3e:	4770      	bx	lr

08001d40 <HAL_TIMEx_BreakCallback>:
  * @brief  Hall Break detection callback in non-blocking mode
  * @param  htim TIM handle
  * @retval None
  */
__weak void HAL_TIMEx_BreakCallback(TIM_HandleTypeDef *htim)
{
 8001d40:	b480      	push	{r7}
 8001d42:	b083      	sub	sp, #12
 8001d44:	af00      	add	r7, sp, #0
 8001d46:	6078      	str	r0, [r7, #4]
  UNUSED(htim);

  /* NOTE : This function should not be modified, when the callback is needed,
            the HAL_TIMEx_BreakCallback could be implemented in the user file
   */
}
 8001d48:	bf00      	nop
 8001d4a:	370c      	adds	r7, #12
 8001d4c:	46bd      	mov	sp, r7
 8001d4e:	f85d 7b04 	ldr.w	r7, [sp], #4
 8001d52:	4770      	bx	lr

08001d54 <__libc_init_array>:
 8001d54:	b570      	push	{r4, r5, r6, lr}
 8001d56:	4d0d      	ldr	r5, [pc, #52]	; (8001d8c <__libc_init_array+0x38>)
 8001d58:	4c0d      	ldr	r4, [pc, #52]	; (8001d90 <__libc_init_array+0x3c>)
 8001d5a:	1b64      	subs	r4, r4, r5
 8001d5c:	10a4      	asrs	r4, r4, #2
 8001d5e:	2600      	movs	r6, #0
 8001d60:	42a6      	cmp	r6, r4
 8001d62:	d109      	bne.n	8001d78 <__libc_init_array+0x24>
 8001d64:	4d0b      	ldr	r5, [pc, #44]	; (8001d94 <__libc_init_array+0x40>)
 8001d66:	4c0c      	ldr	r4, [pc, #48]	; (8001d98 <__libc_init_array+0x44>)
 8001d68:	f000 f820 	bl	8001dac <_init>
 8001d6c:	1b64      	subs	r4, r4, r5
 8001d6e:	10a4      	asrs	r4, r4, #2
 8001d70:	2600      	movs	r6, #0
 8001d72:	42a6      	cmp	r6, r4
 8001d74:	d105      	bne.n	8001d82 <__libc_init_array+0x2e>
 8001d76:	bd70      	pop	{r4, r5, r6, pc}
 8001d78:	f855 3b04 	ldr.w	r3, [r5], #4
 8001d7c:	4798      	blx	r3
 8001d7e:	3601      	adds	r6, #1
 8001d80:	e7ee      	b.n	8001d60 <__libc_init_array+0xc>
 8001d82:	f855 3b04 	ldr.w	r3, [r5], #4
 8001d86:	4798      	blx	r3
 8001d88:	3601      	adds	r6, #1
 8001d8a:	e7f2      	b.n	8001d72 <__libc_init_array+0x1e>
 8001d8c:	08001de4 	.word	0x08001de4
 8001d90:	08001de4 	.word	0x08001de4
 8001d94:	08001de4 	.word	0x08001de4
 8001d98:	08001de8 	.word	0x08001de8

08001d9c <memset>:
 8001d9c:	4402      	add	r2, r0
 8001d9e:	4603      	mov	r3, r0
 8001da0:	4293      	cmp	r3, r2
 8001da2:	d100      	bne.n	8001da6 <memset+0xa>
 8001da4:	4770      	bx	lr
 8001da6:	f803 1b01 	strb.w	r1, [r3], #1
 8001daa:	e7f9      	b.n	8001da0 <memset+0x4>

08001dac <_init>:
 8001dac:	b5f8      	push	{r3, r4, r5, r6, r7, lr}
 8001dae:	bf00      	nop
 8001db0:	bcf8      	pop	{r3, r4, r5, r6, r7}
 8001db2:	bc08      	pop	{r3}
 8001db4:	469e      	mov	lr, r3
 8001db6:	4770      	bx	lr

08001db8 <_fini>:
 8001db8:	b5f8      	push	{r3, r4, r5, r6, r7, lr}
 8001dba:	bf00      	nop
 8001dbc:	bcf8      	pop	{r3, r4, r5, r6, r7}
 8001dbe:	bc08      	pop	{r3}
 8001dc0:	469e      	mov	lr, r3
 8001dc2:	4770      	bx	lr
